:100000000C94E0000C9408010C9408010C94080175
:100010000C9408010C9408010C9408010C9408013C
:100020000C9408010C9408010C947A090C940106B4
:100030000C9408010C9408010C9408010C9408011C
:100040000C9408010C9408010C9408010C9408010C
:100050000C9408010C9408010C9408010C94BB0446
:100060000C9408010C9408010C9408010C940801EC
:100070000C9408010C9408010C9408010C940801DC
:100080000C9408010C9408010C9408010C940801CC
:100090000C9408010C9408010C9408010C940801BC
:1000A0000C9408010C9408010C9408016A086D086E
:1000B0005C08600864088E088E088E087108750850
:1000C00079087F0883088E08890800000000240052
:1000D00027002A002D003000080B00020202010058
:1000E000090400000102020000052400100105249B
:1000F000010101042402060524060001070581030D
:1001000010004009040100020A0000000705020275
:100110004000000705830240000004030904416415
:1001200061667275697400466C6F7261001201003D
:1001300002000000409A2304800001010203011222
:10014000010002EF0201409A230480000101020332
:10015000010000000200090F0000030401000C0070
:10016000000000000000000000000000000000008F
:1001700004080201104080401020408040800802A6
:100180000401804020100201108010204040200017
:10019000000000250028002B002E0031000404047C
:1001A000040403040502020202040302020202061E
:1001B000060606060604040202020404CA0DBA0D6D
:1001C00011241FBECFEFDAE0DEBFCDBF11E0A0E00B
:1001D000B1E0E6E8FFE102C005900D92AE33B10751
:1001E000D9F722E0AEE3B1E001C01D92A831B20719
:1001F000E1F710E0CFEDD0E004C02197FE010E94AE
:100200005C0ECE3DD107C9F70E94EC090C94B60FE5
:100210000C940000CF93DF931F92CDB7DEB76983B4
:10022000DC01ED91FC910280F381E02D41E050E092
:10023000BE016F5F7F4F09950F90DF91CF910895B9
:1002400083E08093E9008091F200882319F08AE32B
:100250008093E8000895FC018485958597FD0BC087
:100260009FB7F89482E08093E9008091F2009FBFED
:1002700090E0019608959FB7F89482E08093E9009A
:100280008091F2009FBF90E008953FB7F89480916D
:10029000430190914401A0914501B091460126B5DA
:1002A000A89B05C02F3F19F00196A11DB11D3FBFAE
:1002B000BA2FA92F982F8827820F911DA11DB11D3C
:1002C000BC01CD0143E0660F771F881F991F4A9537
:1002D000D1F708958F929F92AF92BF92CF92DF9203
:1002E000EF92FF926B017C010E9445014B015C0182
:1002F000C114D104E104F104F1F00E944501DC01D4
:10030000CB0188199909AA09BB09883E9340A10528
:10031000B10570F321E0C21AD108E108F10888EEB6
:10032000880E83E0981EA11CB11CC114D104E10405
:10033000F10419F7DDCFFF90EF90DF90CF90BF90E1
:10034000AF909F908F9008958F929F92AF92BF929F
:10035000CF92DF92EF92FF920F931F93CF93DF9391
:100360005C016B018A0180910B01882309F45EC056
:1003700080918801882309F459C08091850180FF0C
:1003800005C08091E00082608093E000E8018AEF80
:10039000F82E93E0E92E2FE3822E3AE3932E209756
:1003A00009F43DC08FB7F894E092E9009091E8001D
:1003B00095FF06C09091F200282D291B922F01C0B5
:1003C00090E08FBF91110AC0FA94FF2079F161E0AB
:1003D00070E080E090E00E946A01E1CF292F30E0D8
:1003E000C217D3070CF49C2F8FB7F894E092E90062
:1003F0002091E80025FF11C0292F30E0C21BD30B4C
:10040000F601915020F041914093F100FACFC20ED5
:10041000D31E9091E80095FF13C08FBFC0CF5D9AA7
:1004200084E6809386011016110644F081E090E086
:10043000F5019383828380E090E005C0C80103C08A
:100440009092E800EACFDF91CF911F910F91FF903A
:10045000EF90DF90CF90BF90AF909F908F900895D6
:100460002FB7F89460913F01709140018091410154
:10047000909142012FBF0895CF92DF92EF92FF92A9
:100480000F931F93CF93DF93CDB7DEB729970FB6A6
:10049000F894DEBF0FBECDBF8C01DC0118968D91A4
:1004A0009C911997892B09F4D8C10E944501F80144
:1004B000C684D784E088F188DC01CB018C199D09C2
:1004C000AE09BF09C297A105B10578F3F8948481FC
:1004D00095819A838983A085B1857D01EFEFEE1A1E
:1004E000FE0A8C918987D8018C9152960D90BC910F
:1004F000A02D882309F477C11B82AB32B10509F026
:1005000059C09BB1F8018489982B98879BB180953D
:1005100089238F838F818C83898587FF02C088859B
:100520008C8358856F8149853C812B8189819A8193
:10053000D7015BB9262F3BB900C046FD252F6BB90B
:1005400000C05BB9362F2BB900C045FD352F6BB904
:1005500000C05BB9262F3BB900C044FD252F6BB905
:1005600000C05BB9362F2BB900C043FD352F6BB9E6
:1005700000C05BB9262F3BB900C042FD252F6BB9E7
:1005800000C05BB9362F2BB900C041FD352F6BB9C8
:1005900000C05BB9262F3BB900C040FD252F6BB9C9
:1005A00001975BB9362F2BB94D9147FD352F6BB9AC
:1005B00001F615C1A532B10509F059C095B1F80190
:1005C0008489982B988795B1809589238F838F8113
:1005D0008C83898587FF02C088858C8358856F81CD
:1005E00049853C812B8189819A81D70155B9262F74
:1005F00035B900C046FD252F65B900C055B9362F65
:1006000025B900C045FD352F65B900C055B9262F65
:1006100035B900C044FD252F65B900C055B9362F46
:1006200025B900C043FD352F65B900C055B9262F47
:1006300035B900C042FD252F65B900C055B9362F28
:1006400025B900C041FD352F65B900C055B9262F29
:1006500035B900C040FD252F65B9019755B9362F32
:1006600025B94D9147FD352F65B901F6B8C0A832BF
:10067000B10509F059C098B1F8018489982B988781
:1006800098B1809589238F838F818C83898587FF9B
:1006900002C088858C8358856F8149853C812B8178
:1006A00089819A81D70158B9262F38B900C046FDF3
:1006B000252F68B900C058B9362F28B900C045FDAC
:1006C000352F68B900C058B9262F38B900C044FD8D
:1006D000252F68B900C058B9362F28B900C043FD8E
:1006E000352F68B900C058B9262F38B900C042FD6F
:1006F000252F68B900C058B9362F28B900C041FD70
:10070000352F68B900C058B9262F38B900C040FD50
:10071000252F68B9019758B9362F28B94D9147FD53
:10072000352F68B901F65BC0D19709F08CC091B341
:10073000F8018489982B988791B3809589238F83BA
:100740008F818C83898587FF02C088858C8358853B
:100750006F8149853C812B8189819A81D70151BB69
:10076000262F31BB00C046FD252F61BB00C051BB09
:10077000362F21BB00C045FD352F61BB00C051BBEA
:10078000262F31BB00C044FD252F61BB00C051BBEB
:10079000362F21BB00C043FD352F61BB00C051BBCC
:1007A000262F31BB00C042FD252F61BB00C051BBCD
:1007B000362F21BB00C041FD352F61BB00C051BBAE
:1007C000262F31BB00C040FD252F61BB019751BBD7
:1007D000362F21BB4D9147FD352F61BB01F649876F
:1007E0003C832B832EC09C91F8018489982B988799
:1007F0009C91809589238F838F818E8388E08D8360
:1008000058856F8149853D812E8189819A81F701C3
:100810005C9347FD252F2C93262F3A9531F0441FEA
:100820006C9300C000C000C0F3CF6C93000038E0B0
:100830004191019769F7F801B38BA28B49873D83FA
:100840002E839A83898378940E944501D8011E964D
:100850006D937D938D939C93519729960FB6F89441
:10086000DEBF0FBECDBFDF91CF911F910F91FF90E3
:10087000EF90DF90CF90089508950F931F93CF933B
:10088000DF931F92CDB7DEB78C01FC01848595857F
:1008900097FF0EC0CE0101960E943C09019719F402
:1008A000298130E002C02FEF3FEFF8013587248720
:1008B000F801848595850F90DF91CF911F910F915D
:1008C0000895CF93DF931F92CDB7DEB7FC018485E7
:1008D000958597FD05C02FEF3FEF358724870BC027
:1008E000CE0101960E943C09019719F4898190E09C
:1008F00002C08FEF9FEF0F90DF91CF910895CF93BC
:10090000DF9390E0FC01E059FE4F2491FC01E35697
:10091000FE4F8491882361F190E0880F991FFC01BC
:10092000E653FF4FC591D491FC01E157FE4FA591CD
:10093000B491611109C09FB7F894888120958223F2
:100940008883EC912E230BC0623061F49FB7F8943A
:100950003881822F809583238883EC912E2B2C93D2
:100960009FBF06C08FB7F894E8812E2B28838FBFD6
:10097000DF91CF9108951F920F920FB60F9211241D
:100980002F933F938F939F93AF93BF9380913F019A
:1009900090914001A0914101B091420130913E01FE
:1009A00026E0230F2D3720F40296A11DB11D05C0AE
:1009B00029E8230F0396A11DB11D20933E018093CA
:1009C0003F0190934001A0934101B0934201809177
:1009D000430190914401A0914501B09146010196D7
:1009E000A11DB11D8093430190934401A093450143
:1009F000B0934601BF91AF919F918F913F912F91FD
:100A00000F900FBE0F901F90189540918301509149
:100A10008401209181013091820142175307B4F47F
:100A20009091E8009570E1F39091E80092FD19C073
:100A30008093F100809183019091840101968F73DE
:100A40009927892B19F48EEF8093E8008091830118
:100A5000909184010196909384018093830181E0B9
:100A6000089580E00895CF92DF92EF92FF920F9366
:100A70001F93CF93DF931F92CDB7DEB7182F062FAA
:100A8000E42E862F880F8E5F99830E94050583E0F0
:100A90000E940505F12EC12E9981D92E8C2D8F191A
:100AA000801798F4F601E7FE02C0849101C08081AE
:100AB0000E940505182F80E00E9405058123FFEFA5
:100AC000CF1ADF0A8111EACF01C081E00F90DF91D8
:100AD000CF911F910F91FF90EF90DF90CF900895ED
:100AE000DF92EF92FF920F931F93CF93DF93D82E55
:100AF0008A017B01E40EF51EEB01CE15DF0571F0D6
:100B0000D7FE03C0FE01849101C088810E940505C3
:100B100021968111F2CF8FEF9FEF01C0C801DF91C5
:100B2000CF911F910F91FF90EF90DF90089561504A
:100B300030F02091F100FC0120830196F8CF289A33
:100B400084E6809387010895CF92DF92EF92FF921F
:100B50000F931F93CF93DF936C017A018B01C0E059
:100B6000D0E0CE15DF0589F0D8016D918D01D60159
:100B7000ED91FC910190F081E02DC6010995892B42
:100B800011F47E0102C02196ECCFC701DF91CF9115
:100B90001F910F91FF90EF90DF90CF9008950F93EA
:100BA0001F93CF93DF931F92CDB7DEB782E0898387
:100BB00042E450E068ED70E080E80E9470050E9419
:100BC0006609DC0112960D911C9113970115110510
:100BD00069F0D801ED91FC910280F381E02DBE0116
:100BE0006F5F7F4FC801099597FF07C089810F90FC
:100BF000DF91CF911F910F910895F8010085118524
:100C0000E5CF1F920F920FB60F921124CF92DF9271
:100C1000EF92FF920F931F932F933F934F935F9306
:100C20006F937F938F939F93AF93BF93EF93FF93B4
:100C3000CF93DF93CDB7DEB76C97DEBFCDBF1092F9
:100C4000E9008091E80083FFFAC168E0CE01459693
:100C50000E94970582EF8093E8008D8987FF05C089
:100C60009091E80090FFFCCF03C09EEF9093E800C6
:100C7000982F907609F0C6C09E892F89188D911102
:100C80000CC0803829F480917F018093F10002C06C
:100C90001092F1001092F10047C1422F50E0512B09
:100CA000913051F4811140C14130510509F03CC1EE
:100CB00080917F018D7F0BC0933061F4811134C12D
:100CC0004130510509F030C180917F0182608093ED
:100CD0007F012AC1953041F48091E80080FFFCCF6C
:100CE00020682093E30020C1963009F05FC0EB8CB0
:100CF000FC8C1092E9001092840110928301123052
:100D000091F510928201109281010E94CF0599E025
:100D1000BE016F5F7F4FDB01E92F1D92EA95E9F776
:100D200099831A8391E09E8390EA98879AEF998736
:100D30002091830130918401275F3F4F3C832B83B7
:100D40008D831092E9001092840110928301F09239
:100D50008201E092810149E050E080E00E9470054C
:100D60000E94CF05E1C0F0928201E09281010E94D1
:100D70006609DC011296ED90FC901397E114F104E2
:100D800009F4C0C0D701ED91FC910480F581E02DFC
:100D9000BE016B5E7F4FC7010995009719F00CF0FB
:100DA000C3C0C6C0F701E084F184E8CF973009F4EE
:100DB000BFC0983021F481E08093F100B5C0993034
:100DC00009F0B2C0837009F0B3C0E3E1F1E081E063
:100DD00021E036E39081992361F08093E90020932C
:100DE000EB0091919093EC003093ED008F5F873092
:100DF00089F78EE78093EA001092EA008F8980934A
:100E0000880192C08B8D9C8D1092E9001092840114
:100E1000109283019093820180938101898D8111C9
:100E200056C08E899D89913A59F4813209F080C06B
:100E300047E050E064E071E080E00E94700574C01B
:100E4000913209F075C0833289F4888D90E0982F33
:100E500088272F89822BA0E0B0E080930001909337
:100E60000101A0930201B09303015EC0803269F4D6
:100E70008091E80082FFFCCF67E084E091E00E946F
:100E800097058BEF8093E80006C0823209F04CC0D2
:100E90008F8980930B0180917E01882319F0EEEFFA
:100EA000FAE002C0E0E0F8E08091040190910501D1
:100EB000A0910601B0910701803B9440A105B105C6
:100EC00009F088C080910B0180FFA0C083C00E9400
:100ED0006609DC0112960D911C91139701151105FD
:100EE00039F1D801ED91FC910190F081E02DBE0126
:100EF0006B5E7F4FC8010995811116C0F80100850E
:100F00001185ECCF1130C1F0133091F48F89882313
:100F100009F455C08230E9F440E865E087E291E0E9
:100F20000E943305882321F08EEF8093E80087C06C
:100F300081E28093EB0083C08B8D9C8D089711F428
:100F40001093800180918001811136C06DE271E0C3
:100F500038C0813029F440E868E08EE191E0E0CFCC
:100F6000833031F70E946609DC011296ED90FC9007
:100F700013978E010F5F1F4F6801E114F10479F0A0
:100F8000D701ED91FC910680F781E02DB801C701F2
:100F90000995080F111DF701E084F184EECFD80107
:100FA0001C92F60101900020E9F73197BF016C19FE
:100FB0007D0940E0C601B4CF6FE371E002C06AE191
:100FC00071E06115710509F4B3CFFB01449150E064
:100FD00080E833CF0FB6F894A895809160008861BF
:100FE00080936000109260000FBEA895EE3F2AE04B
:100FF000F20739F08091FE0A9091FF0A9183808375
:1010000093CF1092FF0A1092FE0A8ECFEE3F8AE035
:10101000F80731F0808191819093FF0A8093FE0A56
:1010200087E797E7918380839BE088E10FB6F89488
:10103000A895809360000FBE9093600075CF6C966A
:101040000FB6F894DEBF0FBECDBFDF91CF91FF91F9
:10105000EF91BF91AF919F918F917F916F915F9130
:101060004F913F912F911F910F91FF90EF90DF9043
:10107000CF900F900FBE0F901F9018950E948F0F6A
:1010800090E0FC01EF5AFE4F4491FC01E059FE4F05
:101090002491FC01E356FE4F8491882309F44DC04E
:1010A0004423E1F150E0FA013197EF30F105B0F55A
:1010B000EA5AFF4F0C945C0E909180009F7707C016
:1010C000909180009F7D03C090918000977F9093C6
:1010D000800024C094B59F7702C094B59F7D94BDD5
:1010E0001DC0909190009F7707C0909190009F7DC8
:1010F00003C090919000977F909390000FC09091C3
:10110000C0009F7703C09091C0009F7D9093C00066
:1011100005C09091C200977F9093C200E82FF0E045
:10112000EE0FFF1FE157FE4FA591B4918FB7F894D2
:10113000EC9120952E232C938FBF08952091F001E0
:101140003091F1018091040290910502232B89F4E2
:10115000019690930502809304022091020230913F
:10116000030282179307E0F0109205021092040226
:1011700010C001979093050280930402892B81F49B
:10118000809102029091030201979093050280934F
:101190000402E0910602F0910702309709F00994E9
:1011A00008958F929F92AF92BF92CF92DF92EF926B
:1011B000FF922091DB013091DC018217930708F048
:1011C00052C04B01AA24BB24E82DC52ED62EE72EF3
:1011D000FF24FC2D342F2091E001222361F0829E18
:1011E00040011124E92DC29E60011124FD2D429F72
:1011F000D00111243B2FF090E601E090E301A09193
:10120000E101B091E201FE1008C0AC01440F551F8E
:10121000840F951F8A0F9B1F14C0880F991F880F7A
:10122000991F8A0F9B1F472F552766277727DC01B9
:10123000AF0DB11D222321F0429FA0011124452FA3
:101240004C932091E301DC01A20FB11DEC9320919E
:10125000E401DC01A20FB11DFC932091E501FC012A
:10126000E20FF11D3083FF90EF90DF90CF90BF90A1
:10127000AF909F908F900895FC018091880181111B
:1012800003C08FEF9FEF08959FB7F89482E080939B
:10129000E9002091F20030E01216130614F421E068
:1012A00030E02115310559F0289A84E680938701B2
:1012B0008091F10080838091F200882319F09FBF14
:1012C000C90108958BE68093E800F9CF80910C0264
:1012D00081110DC082E08093080284E080930902AE
:1012E00010920B0210920A0281E080930C0288E0B7
:1012F00092E008951F920F920FB60F9211248F93D0
:101300009F938091E1009091E100937F9093E100A1
:1013100083FF0FC01092E90091E09093EB001092D0
:10132000EC0092E39093ED001092880198E0909386
:10133000F00082FF20C093E09093E9009091F200CA
:10134000992319F09AE39093E800909186019923EC
:1013500039F090918601915090938601992389F1FB
:1013600090918701992339F0909187019150909342
:101370008701992341F184FF10C08091E2008E7EA5
:1013800081608093E2008091E1008F7E8093E10094
:10139000809185018E7E806111C080FF16C0809192
:1013A000E2008E7E80618093E2008091E1008E7E7B
:1013B0008093E100809185018E7E8160809385011C
:1013C00004C05D98CDCF2898D6CF9F918F910F9074
:1013D0000FBE0F901F901895CF93DF9300D000D0D1
:1013E000CDB7DEB7789484B5826084BD84B5816062
:1013F00084BD85B5826085BD85B5816085BD8091E0
:101400006E00816080936E00109281008091810057
:10141000826080938100809181008160809381004F
:101420008091800081608093800080919100826033
:1014300080939100809191008160809391008091D0
:1014400090008160809390008091C10084608093BF
:10145000C1008091C10082608093C1008091C10071
:1014600081608093C1008091C30081608093C3003C
:101470008091C00082608093C0008091C200816032
:101480008093C20080917A00846080937A0080917A
:101490007A00826080937A0080917A008E7F8093B8
:1014A0007A0080917A00806880937A001092880197
:1014B00010927F01109285018091D7008160809306
:1014C000D70080EA8093D80089B58F7E89BD89B521
:1014D000826089BD09B400FEFDCF61E070E080E06C
:1014E00090E00E946A018091D8008F7C8061809397
:1014F000D8008091E000807F8093E0008091E1003F
:101500008E7E8093E1008DE08093E200559A209AD0
:10151000EEEFFFE7859194918B3F9C4D19F481E0AC
:1015200080937E0110927A0110927B0110927C01CF
:1015300010927D01109248011092490110924A01C7
:1015400010924B0160ED77E080E090E00E946A012C
:1015500089E891E09093790180937801ABE1EA2EDC
:10156000F12C10910B016AE070E080E090E00E94A5
:101570006A0111110BC031E0E31AF10839F064E699
:1015800070E080E090E00E946A01EBCFE09178018A
:10159000F09179018FEF9FEF958784870E94300249
:1015A000009148011091490120914A0130914B016D
:1015B000DC01CB01801B910BA20BB30B8436910590
:1015C000A105B10538F463E070E080E090E00E948E
:1015D0006A01E4CF0E943002609348017093490190
:1015E00080934A0190934B01809178019091790109
:1015F000DC01ED91FC910280F381E02D41E150E0AE
:101600006BE271E009956AE070E080E090E00E9492
:101610006A018FEF9FEF90939601809395018091DF
:10162000DF0187FD07C061E00E947F048091DF0138
:101630000E94400881E08093DA0189ED91E00E94E8
:101640003C0281E090E09093EF018093EE0182E311
:1016500090E0A0E0B0E08093F2019093F301A093BA
:10166000F401B093F5018FEF90E090930302809323
:10167000020210920502109204021092F1011092DF
:10168000F0010E9430020091F6011091F7012091C3
:10169000F8013091F901DC01CB01801B910BA20B09
:1016A000B30B0091F2011091F3012091F4013091FC
:1016B000F50180179107A207B30718F30E943002C3
:1016C0006093F6017093F7018093F8019093F9010C
:1016D0008091EE019091EF018330910509F4D5C01E
:1016E00054F48130910509F463C0029709F03AC2BD
:1016F00000E010E0B9C08430910509F4D5C0059729
:1017000009F030C21091FA01E090FB016091FC01F8
:101710002091020230910302E0910402F09105024F
:101720005901AE1ABF0A0091FE01D090FF018091CD
:1017300000028E9FA0018F9F500D11246A9DC00151
:101740006B9D900D1124840F951FB9010E94480EC6
:10175000F62EDE9EA001DF9E500D1124EA9CC001F2
:10176000EB9C900D1124840F951FB9010E94480E27
:10177000462F50E060E070E0762F652F542F44270D
:10178000DB01CA01AF296C017D010E9FC0010F9FD3
:10179000900D11241A9DA0011B9D500D1124840F42
:1017A000951FB9010E94480EC62A00E010E0C1C191
:1017B00000E010E0E12CF12C6091DB017091DC0184
:1017C000E616F70608F0C8C1C8010E94480E40910D
:1017D0000402640F6095653558F4462F440F640F7A
:1017E000862F8095462F50E060E070E0682B1BC08C
:1017F0006A3A58F46555962F990F960F492F4095E0
:1018000050E060E070E0592B0EC06A5A462F440F3A
:10181000640F862F8095462F50E060E070E0BA019B
:1018200055274427582BC7010E94D108BFEFEB1A58
:10183000FB0A1395C1CF8091040290910502800F9D
:10184000911F63E070E00E94480E892BA9F440913B
:10185000FA015091FB016091FC017091FD01C801FA
:101860000E94D1080F5F1F4F8091DB019091DC0136
:101870000817190700F370C14091FE015091FF0154
:101880006091000270910102EACF4091FA015091FB
:10189000FB016091FC017091FD0180910402909127
:1018A00005020E94D10858C1212C312C1A821982BC
:1018B000A12CB12C8091DB019091DC01A816B90616
:1018C00008F04AC12091040230910502A216B30625
:1018D00049F08091020290910302821B930BA8169B
:1018E000B90649F44091FA015091FB016091FC0165
:1018F0007091FD010EC12091E6010091E30140913C
:10190000E1015091E201C090E001822F90E09090BF
:10191000E4018090E50120135CC08A01020D131DD3
:10192000CC2009F440C0D12CE12CF12CF801E80FB7
:10193000F91F608170E0762F6627072E000C880B58
:10194000990BA70196010E94940F39015524442454
:10195000F801E90DF11D608170E0762F6627072EF2
:10196000000C880B990BA70196010E94940FB42FCD
:10197000A32F922F8827482A592A6A2A7B2AF801FE
:10198000E80DF11D608170E0762F6627072E000CB0
:10199000880B990BA70196010E94940F422A532AA3
:1019A000642A752A90C0F801E80FF91F8081F801B8
:1019B000E90DF11D4080512C612C712C762C652C89
:1019C000542C4424682AF801E80DF11D8081482A2E
:1019D0007AC0E981FA81E40FF51FFC83EB8310E004
:1019E000CC2009F459C0D12CE12CF12CE80FF91FBF
:1019F000608170E0762F6627072E000C880B990B0C
:101A0000A70196010E94940F722E66245524442447
:101A1000EB81FC81E00FF11F608170E0762F66277B
:101A2000072E000C880B990BA70196010E94940FBA
:101A3000D90199278827482A592A6A2A7B2AEB81C3
:101A4000FC81E80DF11D608170E0762F6627072E7E
:101A5000000C880B990BA70196010E94940F422A53
:101A6000532A642A752AEB81FC81E90DF11D6081FE
:101A700070E0762F6627072E000C880B990BA701C4
:101A800096010E94940FB42FA32F922F8827482AE3
:101A9000592A6A2A7B2A17C0EB81FC81E00FF11FCB
:101AA0004080512C612C712C320155244424EB814F
:101AB000FC81E80DF11D8081482AEB81FC81E90D54
:101AC000F11D8081582A462D50E055954795052EE9
:101AD000000C660B770BBA0155274427852D90E043
:101AE00095958795092E000CAA0BBB0BBA2FA92F31
:101AF000982F8827482B592B6A2B7B2B512C5594D8
:101B00004794052C000C6608770844295529662956
:101B10007729C5010E94D108FFEFAF1ABF0A2981BA
:101B20003A812C5F3F4F3A83298333E0230E311CE7
:101B3000C1CE8091DB019091DC010817190740F4B8
:101B4000B701A601C8010E94D1080F5F1F4FF1CF56
:101B500089ED91E00E943C0289ED91E00E943C02F7
:101B60000E949E08A0E0B0E0AB2B09F48ACD0E9451
:101B7000000087CD8091E1019091E201009711F082
:101B80000E94F70E8091DF0187FD03C060E00C9496
:101B90007F04089510928C0110928B0188EE93E0DF
:101BA000A0E0B0E080938D0190938E01A0938F010F
:101BB000B09390018DE191E090938A018093890127
:101BC0008FEF9FEF90939601809395011092DA0129
:101BD0001092E0011092E7011092E8011092E901E1
:101BE0001092EA0181E08093E6018093E301109274
:101BF000E40192E09093E5018093D90188E190E0BF
:101C00009093DE018093DD010E94620E9093E201C9
:101C10008093E101009761F028E1FC0111922A957F
:101C2000E9F788E090E09093DC018093DB0108C045
:101C30001092DE011092DD011092DC011092DB01A6
:101C400086E08093DF018091DA01882339F061E03A
:101C500086E00E947F0486E00E944008E3EAF1E00B
:101C6000E491F0E0EE0FFF1FE157FE4F8591949154
:101C70009093EC018093EB01E6E7F1E0E491E093CF
:101C8000ED018CE394E0909307028093060208959F
:101C9000AA1BBB1B51E107C0AA1FBB1FA617B70792
:101CA00010F0A61BB70B881F991F5A95A9F78095AE
:101CB0009095BC01CD010895EE0FFF1F0590F491A2
:101CC000E02D0994CF93DF938230910510F482E0E8
:101CD00090E0E0911602F091170220E030E0C0E0C1
:101CE000D0E0309711F14081518148175907C0F079
:101CF0004817590761F482819381209719F09B83DB
:101D00008A832BC0909317028093160226C0211558
:101D1000310519F04217530718F49A01BE01DF018B
:101D2000EF010280F381E02DDCCF2115310509F1AF
:101D3000281B390B2430310590F412968D919C911B
:101D400013976115710521F0FB019383828304C011
:101D50009093170280931602FD01329644C0FD0154
:101D6000E20FF31F81939193225031092D933C93FD
:101D70003AC02091140230911502232B41F4209196
:101D80000E0130910F01309315022093140220911F
:101D90000C0130910D012115310541F42DB73EB7ED
:101DA0004091100150911101241B350BE091140258
:101DB000F0911502E217F307A0F42E1B3F0B281732
:101DC000390778F0AC014E5F5F4F2417350748F0B4
:101DD0004E0F5F1F5093150240931402819391930D
:101DE00002C0E0E0F0E0CF01DF91CF9108950F93C2
:101DF0001F93CF93DF93009709F48CC0FC013297B7
:101E0000138212820091160210911702011511051A
:101E100081F420813181820F931F2091140230912F
:101E200015022817390779F5F0931502E09314028B
:101E300071C0D80140E050E0AE17BF0750F41296D1
:101E40002D913C911397AD012115310509F1D9016F
:101E5000F3CF9D01DA013383228360817181860F84
:101E6000971F8217930769F4EC0128813981260FA7
:101E7000371F2E5F3F4F318320838A819B8193835D
:101E80008283452B29F4F0931702E093160242C097
:101E90001396FC93EE931297ED01499159919E018F
:101EA000240F351FE217F30771F480819181840FAD
:101EB000951F029611969C938E938281938113961F
:101EC0009C938E931297E0E0F0E0D80112968D91EA
:101ED0009C911397009719F0F8018C01F6CF8D9122
:101EE0009C9198012E5F3F4F820F931F2091140207
:101EF000309115022817390769F4309729F41092A8
:101F000017021092160202C0138212821093150259
:101F100000931402DF91CF911F910F91089581E0FA
:101F200090E0F8940C94B60FA1E21A2EAA1BBB1BEA
:101F3000FD010DC0AA1FBB1FEE1FFF1FA217B30795
:101F4000E407F50720F0A21BB30BE40BF50B661FAB
:101F5000771F881F991F1A9469F76095709580956F
:101F600090959B01AC01BD01CF01089510E0CFED2C
:101F7000D0E004C0FE010E945C0E2196C03ED10755
:061F8000C9F7F894FFCF41
:101F8600FFFFFFFF00E10000000000000000180254
:101F9600800000C18081000000000000000A01A44A
:101FA600012B0161043D0420010600564D445056A4
:0E1FB6005F317C305F564D4450560D0A0000DE
:00000001FF
