:100000000C94E0000C9408010C9408010C94080175
:100010000C9408010C9408010C9408010C9408013C
:100020000C9408010C9408010C94FA080C946C09C7
:100030000C9408010C9408010C9408010C9408011C
:100040000C9408010C9408010C9408010C9408010C
:100050000C9408010C9408010C9408010C94BB0248
:100060000C9408010C9408010C9408010C940801EC
:100070000C9408010C9408010C9408010C940801DC
:100080000C9408010C9408010C9408010C940801CC
:100090000C9408010C9408010C9408010C940801BC
:1000A0000C9408010C9408010C940801E80BEB0B6C
:1000B000DA0BDE0BE20B0C0C0C0C0C0CEF0BF30B45
:1000C000F70BFD0B010C0C0C070C000000002400CA
:1000D00027002A002D003000080B00020202010058
:1000E000090400000102020000052400100105249B
:1000F000010101042402060524060001070581030D
:1001000010004009040100020A0000000705020275
:100110004000000705830240000004030904416415
:1001200061667275697400466C6F7261001201003D
:1001300002000000409A2304800001010203011222
:10014000010002EF0201409A230480000101020332
:10015000010000000200090F0000030401000C0070
:10016000000000000000000000000000000000008F
:1001700004080201104080401020408040800802A6
:100180000401804020100201108010204040200017
:10019000000000250028002B002E0031000404047C
:1001A000040403040502020202040302020202061E
:1001B000060606060604040202020404370F270F8F
:1001C00011241FBECFEFDAE0DEBFCDBF11E0A0E00B
:1001D000B1E0EEE5F2E202C005900D92A035B10764
:1001E000D9F722E0A0E5B1E001C01D92A233B20729
:1001F000E1F710E0CFEDD0E004C02197FE010E94AE
:10020000C80FCE3DD107C9F70E94BA0C0C94221139
:100210000C940000CF93DF931F92CDB7DEB76983B4
:10022000DC01ED91FC910280F381E02D41E050E092
:10023000BE016F5F7F4F09950F90DF91CF910895B9
:1002400083E08093E9008091F200882319F08AE32B
:100250008093E8000895FC018485958597FD0BC087
:100260009FB7F89482E08093E9008091F2009FBFED
:1002700090E0019608959FB7F89482E08093E9009A
:100280008091F2009FBF90E008953FB7F89480916D
:10029000550190915601A0915701B091580126B592
:1002A000A89B05C02F3F19F00196A11DB11D3FBFAE
:1002B000BA2FA92F982F8827820F911DA11DB11D3C
:1002C000BC01CD0143E0660F771F881F991F4A9537
:1002D000D1F708958F929F92AF92BF92CF92DF9203
:1002E000EF92FF926B017C010E9445014B015C0182
:1002F000C114D104E104F104F1F00E944501DC01D4
:10030000CB0188199909AA09BB09883E9340A10528
:10031000B10570F321E0C21AD108E108F10888EEB6
:10032000880E83E0981EA11CB11CC114D104E10405
:10033000F10419F7DDCFFF90EF90DF90CF90BF90E1
:10034000AF909F908F9008958F929F92AF92BF929F
:10035000CF92DF92EF92FF920F931F93CF93DF9391
:100360005C016B018A0180910B01882309F45EC056
:1003700080919C01882309F459C080919A0180FFE3
:1003800005C08091E00082608093E000E8018AEF80
:10039000F82E93E0E92E2FE3822E3AE3932E209756
:1003A00009F43DC08FB7F894E092E9009091E8001D
:1003B00095FF06C09091F200282D291B922F01C0B5
:1003C00090E08FBF91110AC0FA94FF2079F161E0AB
:1003D00070E080E090E00E946A01E1CF292F30E0D8
:1003E000C217D3070CF49C2F8FB7F894E092E90062
:1003F0002091E80025FF11C0292F30E0C21BD30B4C
:10040000F601915020F041914093F100FACFC20ED5
:10041000D31E9091E80095FF13C08FBFC0CF5D9AA7
:1004200084E680939B011016110644F081E090E071
:10043000F5019383828380E090E005C0C80103C08A
:100440009092E800EACFDF91CF911F910F91FF903A
:10045000EF90DF90CF90BF90AF909F908F900895D6
:100460000895CF93DF931F92CDB7DEB7FC0184854B
:10047000958597FD05C02FEF3FEF358724870BC08B
:10048000CE0101960E94D008019719F4898190E06D
:1004900002C08FEF9FEF0F90DF91CF9108950F93E0
:1004A0001F93CF93DF931F92CDB7DEB78C01FC0172
:1004B0008485958597FF0EC0CE0101960E94D008D5
:1004C000019719F4298130E002C02FEF3FEFF801C6
:1004D00035872487F801848595850F90DF91CF912A
:1004E0001F910F910895CF93DF9390E0FC01E059A5
:1004F000FE4F2491FC01E356FE4F8491882361F165
:1005000090E0880F991FFC01E653FF4FC591D491ED
:10051000FC01E157FE4FA591B491611109C09FB74D
:10052000F8948881209582238883EC912E230BC038
:10053000623061F49FB7F8943881822F80958323CD
:100540008883EC912E2B2C939FBF06C08FB7F89415
:10055000E8812E2B28838FBFDF91CF9108952FB78D
:10056000F8946091510170915201809153019091E2
:1005700054012FBF08951F920F920FB60F921124AE
:100580002F933F938F939F93AF93BF93809151018C
:1005900090915201A0915301B091540130915001BA
:1005A00026E0230F2D3720F40296A11DB11D05C0B2
:1005B00029E8230F0396A11DB11D209350018093BC
:1005C000510190935201A0935301B0935401809133
:1005D000550190915601A0915701B0915801019693
:1005E000A11DB11D8093550190935601A093570111
:1005F000B0935801BF91AF919F918F913F912F91EF
:100600000F900FBE0F901F901895CF92DF92EF9230
:10061000FF920F931F93CF93DF93CDB7DEB7299748
:100620000FB6F894DEBF0FBECDBF8C01DC0118966B
:100630008D919C911997892B09F4D8C10E9445018D
:10064000F801C684D784E088F188DC01CB018C19DD
:100650009D09AE09BF09C297A105B10578F3F894C9
:10066000848195819A838983A085B1857D01EFEF8F
:10067000EE1AFE0A8C918987D8018C9152960D90C2
:10068000BC91A02D882309F477C11B82AB32B10540
:1006900009F059C09BB1F8018489982B98879BB1C8
:1006A000809589238F838F818C83898587FF02C002
:1006B00088858C8358856F8149853C812B81898110
:1006C0009A81D7015BB9262F3BB900C046FD252F83
:1006D0006BB900C05BB9362F2BB900C045FD352F73
:1006E0006BB900C05BB9262F3BB900C044FD252F74
:1006F0006BB900C05BB9362F2BB900C043FD352F55
:100700006BB900C05BB9262F3BB900C042FD252F55
:100710006BB900C05BB9362F2BB900C041FD352F36
:100720006BB900C05BB9262F3BB900C040FD252F37
:100730006BB901975BB9362F2BB94D9147FD352F1A
:100740006BB901F615C1A532B10509F059C095B1D3
:10075000F8018489982B988795B1809589238F8398
:100760008F818C83898587FF02C088858C8358851B
:100770006F8149853C812B8189819A81D70155B947
:10078000262F35B900C046FD252F65B900C055B9E3
:10079000362F25B900C045FD352F65B900C055B9C4
:1007A000262F35B900C044FD252F65B900C055B9C5
:1007B000362F25B900C043FD352F65B900C055B9A6
:1007C000262F35B900C042FD252F65B900C055B9A7
:1007D000362F25B900C041FD352F65B900C055B988
:1007E000262F35B900C040FD252F65B9019755B9B1
:1007F000362F25B94D9147FD352F65B901F6B8C0A3
:10080000A832B10509F059C098B1F8018489982B34
:10081000988798B1809589238F838F818C83898570
:1008200087FF02C088858C8358856F8149853C810C
:100830002B8189819A81D70158B9262F38B900C0F8
:1008400046FD252F68B900C058B9362F28B900C019
:1008500045FD352F68B900C058B9262F38B900C0FA
:1008600044FD252F68B900C058B9362F28B900C0FB
:1008700043FD352F68B900C058B9262F38B900C0DC
:1008800042FD252F68B900C058B9362F28B900C0DD
:1008900041FD352F68B900C058B9262F38B900C0BE
:1008A00040FD252F68B9019758B9362F28B94D91C9
:1008B00047FD352F68B901F65BC0D19709F08CC0B0
:1008C00091B3F8018489982B988791B380958923F7
:1008D0008F838F818C83898587FF02C088858C8375
:1008E00058856F8149853C812B8189819A81D70107
:1008F00051BB262F31BB00C046FD252F61BB00C078
:1009000051BB362F21BB00C045FD352F61BB00C058
:1009100051BB262F31BB00C044FD252F61BB00C059
:1009200051BB362F21BB00C043FD352F61BB00C03A
:1009300051BB262F31BB00C042FD252F61BB00C03B
:1009400051BB362F21BB00C041FD352F61BB00C01C
:1009500051BB262F31BB00C040FD252F61BB019745
:1009600051BB362F21BB4D9147FD352F61BB01F6A1
:1009700049873C832B832EC09C91F8018489982B56
:1009800098879C91809589238F838F818E8388E0BF
:100990008D8358856F8149853D812E8189819A811A
:1009A000F7015C9347FD252F2C93262F3A9531F0C4
:1009B000441F6C9300C000C000C0F3CF6C930000D4
:1009C00038E04191019769F7F801B38BA28B498711
:1009D0003D832E839A83898378940E944501D801B0
:1009E0001E966D937D938D939C93519729960FB688
:1009F000F894DEBF0FBECDBFDF91CF911F910F9155
:100A0000FF90EF90DF90CF9008958091A601811123
:100A10000DC082E08093A20184E08093A301109234
:100A2000A5011092A40181E08093A60182EA91E0E1
:100A300008954091A0015091A10120919E01309113
:100A40009F0142175307B4F49091E8009570E1F3C9
:100A50009091E80092FD19C08093F1008091A0016F
:100A60009091A10101968F739927892B19F48EEF2C
:100A70008093E8008091A0019091A101019690934C
:100A8000A1018093A00181E0089580E00895CF92B4
:100A9000DF92EF92FF920F931F93CF93DF931F92FA
:100AA000CDB7DEB7182F062FE42E862F880F8E5F66
:100AB00099830E94190583E00E941905F12EC12E29
:100AC0009981D92E8C2D8F19801798F4F601E7FEA5
:100AD00002C0849101C080810E941905182F80E016
:100AE0000E9419058123FFEFCF1ADF0A8111EACF97
:100AF00001C081E00F90DF91CF911F910F91FF9086
:100B0000EF90DF90CF900895DF92EF92FF920F93D6
:100B10001F93CF93DF93D82E8A017B01E40EF51E3D
:100B2000EB01CE15DF0571F0D7FE03C0FE01849105
:100B300001C088810E94190521968111F2CF8FEFA3
:100B40009FEF01C0C801DF91CF911F910F91FF90DE
:100B5000EF90DF9008950F931F93CF93DF931F9231
:100B6000CDB7DEB782E0898342E450E068ED70E003
:100B700080E80E9484050E940505DC0112960D9113
:100B80001C9113970115110569F0D801ED91FC91A5
:100B90000280F381E02DBE016F5F7F4FC801099590
:100BA00097FF07C089810F90DF91CF911F910F911F
:100BB0000895F80100851185E5CF615030F020914E
:100BC000F100FC0120830196F8CF289A84E68093F7
:100BD000AE010895CF92DF92EF92FF920F931F9391
:100BE000CF93DF936C017A018B01C0E0D0E0CE158A
:100BF000DF0589F0D8016D918D01D601ED91FC9151
:100C00000190F081E02DC6010995892B11F47E0138
:100C100002C02196ECCFC701DF91CF911F910F91B8
:100C2000FF90EF90DF90CF9008950E94FB102F92DD
:100C30003F924F925F926F927F928F929F92AF926C
:100C4000BF92CF92DF92EF92FF920F931F93CF93B9
:100C5000DF9300D000D0CDB7DEB70E94AF02009185
:100C60001C0210911D0220911E0230911F02DC0116
:100C7000CB01801B910BA20BB30B009118021091BA
:100C8000190220911A0230911B02081719072A072E
:100C90003B0708F06EC20E94AF0260931C02709383
:100CA0001D0280931E0290931F0280911402909166
:100CB00015028330910509F4D3C064F481309105A5
:100CC00009F461C0029709F054C2E12CF12C03E051
:100CD00010E0B5C08430910509F4D1C0059709F042
:100CE00048C240912002F0902102509122022091AE
:100CF000280230912902E0912A02F0912B02590139
:100D0000AE1ABF0A10912402E090250280912602BB
:100D10008E9FB0018F9F700D11245A9DC0015B9D65
:100D2000900D1124860F971FB9010E94B40F062F52
:100D3000EE9EB001EF9E700D1124FA9CC001FB9C49
:100D4000900D1124860F971FB9010E94B40FC62E73
:100D5000D12CE12CF12CFE2CED2CDC2CCC24E02A27
:100D60001E9FB0011F9F700D11244A9DC0014B9D15
:100D7000900D1124860F971FB9010E94B40FC62A47
:100D800000E010E0C7C100E010E0E12CF12C609120
:100D9000010270910202E616F70608F0CEC1C80102
:100DA0000E94B40F40912A02640F6095653558F493
:100DB000462F440F640F862F8095462F50E060E049
:100DC00070E0682B1BC06A3A58F46555962F990F4E
:100DD000960F492F409550E060E070E0592B0EC00F
:100DE0006A5A462F440F640F862F8095462F50E095
:100DF00060E070E0BA0155274427582BC7010E94D4
:100E00004F0C2FEFE21AF20A1395C1CF80912A02FC
:100E100090912B028E0D9F1DB8010E94B40F892B5B
:100E2000B1F4409120025091210260912202709110
:100E30002302C7010E944F0C3FEFE31AF30A80918F
:100E4000010290910202E816F90600F376C1409182
:100E50002402509125026091260270912702E9CF69
:100E60004091200250912102609122027091230250
:100E700080912A0290912B020E944F0C5EC1C12CDE
:100E8000D12CE12CF12C00E010E080910102909136
:100E900002020817190708F050C120912A02309168
:100EA0002B020217130749F0809128029091290222
:100EB000821B930B0817190749F4409120025091A7
:100EC0002102609122027091230218C120910C022C
:100ED000209009024091070250910802809006027A
:100EE000822F90E0A0910A02A983B0910B02BA83ED
:100EF000221160C01A012C0C3D1C882009F442C04C
:100F0000912CA12CB12CF101E80FF91F608170E048
:100F1000762F6627072E000C880B990BA5019401EC
:100F20000E940011390155244424F1012981E20F66
:100F3000F11D608170E0762F6627072E000C880B6C
:100F4000990BA50194010E940011B42FA32F922F99
:100F50008827482A592A6A2A7B2AD1013A81A30F75
:100F6000B11D6C9170E0762F6627072E000C880B60
:100F7000990BA50194010E940011422A532A642A68
:100F8000752A96C0F101E80FF91F8081F10199815E
:100F9000E90FF11D4080512C612C712C762C652CB1
:100FA000542C4424682AD101EA81AE0FB11D8C91E2
:100FB000482A7EC09A012E0D3F1D3C832B83312C85
:100FC000882009F45CC0912CA12CB12CF901E80F08
:100FD000F91F608170E0762F6627072E000C880BC2
:100FE000990BA50194010E940011722E66245524CC
:100FF0004424EB81FC81E20DF31D608170E0762FCB
:101000006627072E000C880B990BA50194010E94FE
:101010000011D90199278827482A592A6A2A7B2A48
:10102000EB81FC813A81E30FF11D608170E0762F46
:101030006627072E000C880B990BA50194010E94CE
:101040000011422A532A642A752AAB81BC81898106
:10105000A80FB11D6C9170E0762F6627072E000C4B
:10106000880B990BA50194010E940011B42FA32FA6
:10107000922F8827482A592A6A2A7B2A19C0EB818D
:10108000FC81E20DF31D4080512C612C712C32014A
:1010900055244424EB81FC819A81E90FF11D808164
:1010A000482AAB81BC81E981AE0FB11D8C91582AD1
:1010B000462D50E055954795052E000C660B770B95
:1010C000BA0155274427852D90E095958795092EDF
:1010D000000CAA0BBB0BBA2FA92F982F8827482BDF
:1010E000592B6A2B7B2B512C55944794052C000CC3
:1010F000660877084429552966297729C8010E947E
:101100004F0C0F5F1F4FF4E0EF0EF11C23E0C20EF7
:10111000D11CBBCE809101029091020208171907E1
:1011200040F4B701A601C8010E944F0C0F5F1F4F8A
:10113000F1CF8FEF91E00E9405038FEF91E00E94C5
:1011400005030F900F900F900F90DF91CF911F919B
:101150000F91FF90EF90DF90CF90BF90AF909F9056
:101160008F907F906F905F904F903F902F900C9456
:101170001C0C0F900F900F900F90DF91CF911F914B
:101180000F91FF90EF90DF90CF90BF90AF909F9026
:101190008F907F906F905F904F903F902F90089529
:1011A000FC0180919C01811103C08FEF9FEF089596
:1011B0009FB7F89482E08093E9002091F20030E03C
:1011C0001216130614F421E030E02115310559F010
:1011D000289A84E68093AE018091F100808380910B
:1011E000F200882319F09FBFC90108958BE6809310
:1011F000E800F9CF1F920F920FB60F9211248F9330
:101200009F938091E1009091E100937F9093E100A2
:1012100083FF0FC01092E90091E09093EB001092D1
:10122000EC0092E39093ED0010929C0198E0909373
:10123000F00082FF20C093E09093E9009091F200CB
:10124000992319F09AE39093E80090919B019923D8
:1012500039F090919B01915090939B01992389F1D2
:101260009091AE01992339F09091AE0191509093F5
:10127000AE01992341F184FF10C08091E2008E7E7F
:1012800081608093E2008091E1008F7E8093E10095
:1012900080919A018E7E806111C080FF16C080917E
:1012A000E2008E7E80618093E2008091E1008E7E7C
:1012B0008093E10080919A018E7E816080939A01F3
:1012C00004C05D98CDCF2898D6CF9F918F910F9075
:1012D0000FBE0F901F9018951F920F920FB60F928E
:1012E0001124CF92DF92EF92FF920F931F932F93CF
:1012F0003F934F935F936F937F938F939F93AF939E
:10130000BF93EF93FF93CF93DF93CDB7DEB76C9787
:10131000DEBFCDBF1092E9008091E80083FFFAC1E3
:1013200068E0CE0145960E94DD0582EF8093E800DB
:101330008D8987FF05C09091E80090FFFCCF03C026
:101340009EEF9093E800982F907609F0C6C09E8992
:101350002F89188D91110CC0803829F48091990142
:101360008093F10002C01092F1001092F10047C189
:10137000422F50E0512B913051F4811140C1413046
:10138000510509F03CC1809199018D7F0BC09330CC
:1013900061F4811134C14130510509F030C18091AF
:1013A00099018260809399012AC1953041F480911E
:1013B000E80080FFFCCF20682093E30020C1963036
:1013C00009F05FC0EB8CFC8C1092E9001092A10137
:1013D0001092A001123091F510929F0110929E017F
:1013E0000E94AB0599E0BE016F5F7F4FDB01E92FE3
:1013F0001D92EA95E9F799831A8391E09E8390EA1A
:1014000098879AEF99872091A0013091A101275FD9
:101410003F4F3C832B838D831092E9001092A101F2
:101420001092A001F0929F01E0929E0149E050E0ED
:1014300080E00E9484050E94AB05E1C0F0929F010C
:10144000E0929E010E940505DC011296ED90FC9051
:101450001397E114F10409F4C0C0D701ED91FC9198
:101460000480F581E02DBE016B5E7F4FC7010995B9
:10147000009719F00CF0C3C0C6C0F701E084F184F6
:10148000E8CF973009F4BFC0983021F481E0809311
:10149000F100B5C0993009F0B2C0837009F0B3C053
:1014A000E3E1F1E081E021E036E39081992361F00E
:1014B0008093E9002093EB0091919093EC0030939E
:1014C000ED008F5F873089F78EE78093EA001092F6
:1014D000EA008F8980939C0192C08B8D9C8D109225
:1014E000E9001092A1011092A00190939F018093B6
:1014F0009E01898D811156C08E899D89913A59F43A
:10150000813209F080C047E050E064E071E080E0A3
:101510000E94840574C0913209F075C0833289F449
:10152000888D90E0982F88272F89822BA0E0B0E04B
:101530008093000190930101A0930201B0930301F5
:101540005EC0803269F48091E80082FFFCCF67E0E2
:1015500084E091E00E94DD058BEF8093E80006C0F7
:10156000823209F04CC08F8980930B0180919801E1
:10157000882319F0EEEFFAE002C0E0E0F8E0809195
:10158000040190910501A0910601B0910701803BF3
:101590009440A105B10509F088C080910B0180FF3E
:1015A000A0C083C00E940505DC0112960D911C911C
:1015B00013970115110539F1D801ED91FC910190B6
:1015C000F081E02DBE016B5E7F4FC801099581114E
:1015D00016C0F80100851185ECCF1130C1F0133031
:1015E00091F48F89882309F455C08230E9F440E8EA
:1015F00065E087E291E00E944705882321F08EEFA5
:101600008093E80087C081E28093EB0083C08B8DDC
:101610009C8D089711F410939D0180919D0181117B
:1016200036C06DE271E038C0813029F440E868E0EE
:101630008EE191E0E0CF833031F70E940505DC01B7
:101640001296ED90FC9013978E010F5F1F4F68016B
:10165000E114F10479F0D701ED91FC910680F78156
:10166000E02DB801C7010995080F111DF701E084AD
:10167000F184EECFD8011C92F60101900020E9F729
:101680003197BF016C197D0940E0C601B4CF6FE30B
:1016900071E002C06AE171E06115710509F4B3CF30
:1016A000FB01449150E080E833CF0FB6F894A89541
:1016B00080916000886180936000109260000FBE8E
:1016C000A895EE3F2AE0F20739F08091FE0A90914A
:1016D000FF0A9183808393CF1092FF0A1092FE0A33
:1016E0008ECFEE3F8AE0F80731F0808191819093B0
:1016F000FF0A8093FE0A87E797E7918380839BE048
:1017000088E10FB6F894A895809360000FBE90937F
:10171000600075CF6C960FB6F894DEBF0FBECDBFDC
:10172000DF91CF91FF91EF91BF91AF919F918F91F9
:101730007F916F915F914F913F912F911F910F91E9
:10174000FF90EF90DF90CF900F900FBE0F901F9003
:1017500018956115710579F0FB0101900020E9F7FA
:101760003197AF01461B570BDC01ED91FC910280D4
:10177000F381E02D099480E090E0089590E0FC0171
:10178000EF5AFE4F4491FC01E059FE4F2491FC01B9
:10179000E356FE4F8491882309F44DC04423E1F1C0
:1017A00050E0FA013197EF30F105B0F5EA5AFF4FFA
:1017B0000C94C80F909180009F7707C09091800093
:1017C0009F7D03C090918000977F9093800024C0FC
:1017D00094B59F7702C094B59F7D94BD1DC0909134
:1017E00090009F7707C0909190009F7D03C09091DB
:1017F0009000977F909390000FC09091C0009F77CA
:1018000003C09091C0009F7D9093C00005C090914F
:10181000C200977F9093C200E82FF0E0EE0FFF1F09
:10182000E157FE4FA591B4918FB7F894EC912095B4
:101830002E232C938FBF089520911602309117020A
:1018400080912A0290912B02232B89F40196909388
:101850002B0280932A0220912802309129028217BC
:101860009307E0F010922B0210922A0210C0019709
:1018700090932B0280932A02892B81F48091280275
:1018800090912902019790932B0280932A02E09174
:101890002C02F0912D02309709F0099408958F924F
:1018A0009F92AF92BF92CF92DF92EF92FF922091E0
:1018B0000102309102028217930708F052C04B01D7
:1018C000AA24BB24E82DC52ED62EE72EFF24FC2DFE
:1018D000342F20910602222361F0829E40011124C0
:1018E000E92DC29E60011124FD2D429FD0011124DB
:1018F0003B2FF0900C02E0900902A0910702B091FA
:101900000802FE1008C0AC01440F551F840F951F3C
:101910008A0F9B1F14C0880F991F880F991F8A0F69
:101920009B1F472F552766277727DC01AF0DB11D79
:10193000222321F0429FA0011124452F4C93209196
:101940000902DC01A20FB11DEC9320910A02DC0117
:10195000A20FB11DFC9320910B02FC01E20FF11DBF
:101960003083FF90EF90DF90CF90BF90AF909F902B
:101970008F900895CF93DF93CDB7DEB7A5970FB6BD
:10198000F894DEBF0FBECDBF789484B5826084BD6D
:1019900084B5816084BD85B5826085BD85B5816073
:1019A00085BD80916E00816080936E0010928100F1
:1019B00080918100826080938100809181008160AC
:1019C000809381008091800081608093800080916D
:1019D000910082608093910080919100816080935A
:1019E0009100809190008160809390008091C1006F
:1019F00084608093C1008091C10082608093C100A7
:101A00008091C10081608093C1008091C30081609A
:101A10008093C3008091C00082608093C000809159
:101A2000C20081608093C20080917A0084608093BC
:101A30007A0080917A00826080937A0080917A00A7
:101A40008E7F80937A0080917A00806880937A00FC
:101A500010929C011092990110929A018091D700E6
:101A600081608093D70080EA8093D80089B58F7E0B
:101A700089BD89B5826089BD09B400FEFDCF61E0F2
:101A800070E080E090E00E946A018091D8008F7C35
:101A900080618093D8008091E000807F8093E00097
:101AA0008091E1008E7E8093E1008DE08093E200E2
:101AB000559A209AEEEFFFE7859194918B3F9C4DCC
:101AC00019F481E08093980110928C0110928D019D
:101AD00010928E0110928F0110925A0110925B01A8
:101AE00010925C0110925D0160ED77E080E090E083
:101AF0000E946A018FEA91E090938B0180938A01A2
:101B00000BE110E0F0900B016AE070E080E090E003
:101B10000E946A01F1100AC00150110939F064E60F
:101B200070E080E090E00E946A01ECCFE0918A01D1
:101B3000F0918B018FEF9FEF958784870E94AF0212
:101B400000915A0110915B0120915C0130915D017F
:101B5000DC01CB01801B910BA20BB30BC297A1053B
:101B6000B10538F463E070E080E090E00E946A0123
:101B7000E5CF0E94AF0260935A0170935B0180939E
:101B80005C0190935D016BE271E080918A0190911C
:101B90008B010E94A90B6AE070E080E090E00E9457
:101BA0006A018091050287FD07C061E00E9473020F
:101BB000809105020E94BE0B81E0809300028FEFAE
:101BC00091E00E94050334EFC32EDD24D394E12C71
:101BD000F12C412C512C32014A9420E0222E20E09D
:101BE000322E0E94AF02672B682B692B09F0D8C0F8
:101BF0000E94AF02623071058105910508F0D0C0E6
:101C000049C00E94AF0260935A0170935B018093B8
:101C10005C0190935D016DE371E080918A01909188
:101C20008B010E94A90B65E471E080918A0190917B
:101C30008B010E94A90B0E94AF029B01AC01A090F6
:101C40008A01B0908B0119A28E010F5D1F4FCA014E
:101C5000B9012AE030E040E050E00E940011605DF0
:101C6000D8016E938D01211531054105510579F794
:101C7000BD01C5010E94A90B67E471E080918A0152
:101C800090918B010E94A90B65E070E080E090E0EC
:101C90000E946A01E3E0F0E0F0931502E093140281
:101CA000C0921802D0921902E0921A02F0921B021E
:101CB0008091010290910202909329028093280260
:101CC000812C912C5401AA9480922002909221029E
:101CD000A0922202B092230210922B0210922A02AA
:101CE00010921702109216020E94170693E0A92E76
:101CF000B12CB0921502A0921402C0921802D09298
:101D00001902E0921A02F0921B0280910102909156
:101D10000202909329028093280220E03FEF40E0E6
:101D200050E02093200230932102409322025093EE
:101D3000230210922B0210922A0210921702109284
:101D400016020E941706B0921502A0921402C092C9
:101D50001802D0921902E0921A02F0921B028091AE
:101D600001029091020290932902809328024092EE
:101D7000200250922102609222027092230210925D
:101D80002B0210922A0210921702109216020E9441
:101D900017062114310409F424CF0E9400001DCF3E
:101DA0000E94AF0260939401709395018093960115
:101DB00090939701009190011091910120919201CF
:101DC00030919301601771078207930740F4609385
:101DD0009001709391018093920190939301809070
:101DE000900190909101A0909201B09093019B017D
:101DF000AC01281939094A095B092A3F3105410517
:101E0000510508F447CF609390017093910180933E
:101E10009201909393010E94AF0200915A01109198
:101E20005B0120915C0130915D01DC01CB01801BE5
:101E3000910BA20BB30BC297A105B10508F0E1CE3F
:101E400063E070E080E090E00E946A01E4CF80915E
:101E5000070290910802009711F00E946310809190
:101E6000050287FD03C060E00C9473020895109290
:101E7000B2011092B10188EE93E0A0E0B0E080934F
:101E8000B3019093B401A093B501B093B6018DE175
:101E900091E09093B0018093AF018FEF9FEF90930B
:101EA000BC018093BB0110920002109206021092B6
:101EB0000D0210920E0210920F021092100281E099
:101EC00080930C028093090210920A0292E0909390
:101ED0000B028093FF0183E090E0909304028093D3
:101EE00003020E94CE0F909308028093070200978E
:101EF00059F0FC0110821182128281E090E09093EF
:101F000002028093010208C01092040210920302A0
:101F1000109202021092010288E0809305028091E3
:101F20000002882339F061E088E00E94730288E0B3
:101F30000E94BE0BE5EAF1E0E491F0E0EE0FFF1F36
:101F4000E157FE4F85919491909312028093110274
:101F5000E8E7F1E0E491E093130280E392E09093EC
:101F60002D0280932C020895AA1BBB1B51E107C0D0
:101F7000AA1FBB1FA617B70710F0A61BB70B881F19
:101F8000991F5A95A9F780959095BC01CD010895A8
:101F9000EE0FFF1F0590F491E02D0994CF93DF938E
:101FA0008230910510F482E090E0E0913002F091EF
:101FB000310220E030E0C0E0D0E0309711F1408104
:101FC000518148175907C0F04817590761F48281B9
:101FD0009381209719F09B838A832BC090933102C1
:101FE0008093300226C02115310519F0421753079E
:101FF00018F49A01BE01DF01EF010280F381E02DA8
:10200000DCCF2115310509F1281B390B24303105AE
:1020100090F412968D919C9113976115710521F0A2
:10202000FB019383828304C090933102809330023A
:10203000FD01329644C0FD01E20FF31F819391939D
:10204000225031092D933C933AC020912E023091B9
:102050002F02232B41F420910E0130910F01309378
:102060002F0220932E0220910C0130910D01211599
:10207000310541F42DB73EB7409110015091110147
:10208000241B350BE0912E02F0912F02E217F3078B
:10209000A0F42E1B3F0B2817390778F0AC014E5FD8
:1020A0005F4F2417350748F04E0F5F1F50932F02E4
:1020B00040932E028193919302C0E0E0F0E0CF01C3
:1020C000DF91CF9108950F931F93CF93DF930097E4
:1020D00009F48CC0FC013297138212820091300205
:1020E000109131020115110581F420813181820F97
:1020F000931F20912E0230912F022817390779F56E
:10210000F0932F02E0932E0271C0D80140E050E01E
:10211000AE17BF0750F412962D913C911397AD0165
:102120002115310509F1D901F3CF9D01DA0133837E
:10213000228360817181860F971F8217930769F44C
:10214000EC0128813981260F371F2E5F3F4F3183E5
:1021500020838A819B8193838283452B29F4F0938A
:102160003102E093300242C01396FC93EE93129733
:10217000ED01499159919E01240F351FE217F30794
:1021800071F480819181840F951F029611969C9322
:102190008E938281938113969C938E931297E0E0A5
:1021A000F0E0D80112968D919C911397009719F049
:1021B000F8018C01F6CF8D919C9198012E5F3F4FD5
:1021C000820F931F20912E0230912F02281739077A
:1021D00069F4309729F4109231021092300202C053
:1021E0001382128210932F0200932E02DF91CF915F
:1021F0001F910F91089581E090E0F8940C942211C2
:10220000A1E21A2EAA1BBB1BFD010DC0AA1FBB1FFA
:10221000EE1FFF1FA217B307E407F50720F0A21B6C
:10222000B30BE40BF50B661F771F881F991F1A94D9
:1022300069F760957095809590959B01AC01BD0103
:10224000CF01089510E0CFEDD0E004C0FE010E9460
:0E225000C80F2196C03ED107C9F7F894FFCF02
:10225E00FFFFFFFF00E1000000000000000032025F
:10226E00800000C18081000000000000000A01A46F
:10227E00012B0131024F0220010800564D445056E9
:10228E005F317C305F564D4450560D0A00564D441A
:10229E0050455F31007C005F564D4450450D0A009D
:00000001FF
