:100000000C94E0000C9408010C9408010C94080175
:100010000C9408010C9408010C9408010C9408013C
:100020000C9408010C9408010C9471090C94E309D8
:100030000C9408010C9408010C9408010C9408011C
:100040000C9408010C9408010C9408010C9408010C
:100050000C9408010C9408010C9408010C94DC0425
:100060000C9408010C9408010C9408010C940801EC
:100070000C9408010C9408010C9408010C940801DC
:100080000C9408010C9408010C9408010C940801CC
:100090000C9426050C9408010C9408010C9408019A
:1000A0000C9408010C9408010C94080168046B047A
:1000B0005A045E0462048C048C048C046F04730480
:1000C00077047D0481048C04870400000000240070
:1000D00027002A002D0030000000000200090F0058
:1000E00000030401000C00000000000000000000FC
:1000F00000000000000000040802011040804010D1
:10010000204080408008020401804020100201103D
:1001100080102040402000000000250028002B0017
:100120002E00310004040404040304050202020248
:100130000403020202020606060606060404020280
:10014000020404080B00020202010009040000017D
:10015000020200000524001001052401010104240D
:10016000020605240600010705810310004009046A
:100170000100020A00000007050202400000070516
:1001800083024000000403090441646166727569DA
:100190007400466C6F7261001201000200000040A2
:1001A0009A23048000010102030112010002EF0200
:1001B00001409A230480000101020301210E110E67
:1001C00011241FBECFEFDAE0DEBFCDBF12E0A0E00A
:1001D000B1E0EEE7F5E202C005900D92A436B1075A
:1001E000D9F723E0A4E6B2E001C01D92A43DB20716
:1001F000E1F710E0CFEDD0E004C02197FE010E94AE
:100200002F0FCE3DD107C9F70E94200C0C94B212DB
:100210000C940000CF93DF931F92CDB7DEB76983B4
:10022000DC01ED91FC910280F381E02D41E050E092
:10023000BE016F5F7F4F09950F90DF91CF910895B9
:1002400083E08093E9008091F200882319F08AE32B
:100250008093E8000895FC018485958597FD0BC087
:100260009FB7F89482E08093E9008091F2009FBFED
:1002700090E0019608959FB7F89482E08093E9009A
:100280008091F2009FBF90E008953FB7F89480916D
:10029000B0029091B102A091B202B091B30226B522
:1002A000A89B05C02F3F19F00196A11DB11D3FBFAE
:1002B000BA2FA92F982F8827820F911DA11DB11D3C
:1002C000BC01CD0143E0660F771F881F991F4A9537
:1002D000D1F708958F929F92AF92BF92CF92DF9203
:1002E000EF92FF926B017C010E9445014B015C0182
:1002F000C114D104E104F104F1F00E944501DC01D4
:10030000CB0188199909AA09BB09883E9340A10528
:10031000B10570F321E0C21AD108E108F10888EEB6
:10032000880E83E0981EA11CB11CC114D104E10405
:10033000F10419F7DDCFFF90EF90DF90CF90BF90E1
:10034000AF909F908F9008958F929F92AF92BF929F
:10035000CF92DF92EF92FF920F931F93CF93DF9391
:100360005C016B018A0180910B01882309F45EC056
:100370008091B702882309F459C08091C90380FF96
:1003800005C08091E00082608093E000E8018AEF80
:10039000F82E93E0E92E2FE3822E3AE3932E209756
:1003A00009F43DC08FB7F894E092E9009091E8001D
:1003B00095FF06C09091F200282D291B922F01C0B5
:1003C00090E08FBF91110AC0FA94FF2079F161E0AB
:1003D00070E080E090E00E946A01E1CF292F30E0D8
:1003E000C217D3070CF49C2F8FB7F894E092E90062
:1003F0002091E80025FF11C0292F30E0C21BD30B4C
:10040000F601915020F041914093F100FACFC20ED5
:10041000D31E9091E80095FF13C08FBFC0CF5D9AA7
:1004200084E68093CA031016110644F081E090E040
:10043000F5019383828380E090E005C0C80103C08A
:100440009092E800EACFDF91CF911F910F91FF903A
:10045000EF90DF90CF90BF90AF909F908F900895D6
:1004600085ED8093BC008091BC0084FDFCCF109290
:10047000FE0208950895E091B5028091B402E81754
:1004800030F4F0E0E854FD4F808190E008958FEF64
:100490009FEF08959091B5028091B402981750F49F
:1004A000E92FF0E0E854FD4F208130E09F5F90930A
:1004B000B50202C02FEF3FEFC90108958091B40249
:1004C00090E02091B502821B91090895CF92DF92AE
:1004D000EF92FF920F931F93CF93DF937C018A01DA
:1004E0008091FF02882389F0EB016B01C40ED51EB9
:1004F000CC15DD05F1F06991D701ED91FC910190EA
:10050000F081E02DC7010995F3CF842F413288F4A3
:100510009091FE02943069F440938602FB0124E638
:1005200032E0D9019A2F921B981718F491919D935C
:10053000F9CFC801DF91CF911F910F91FF90EF90FC
:10054000DF90CF9008952091FF022223C9F02091DF
:100550002203203240F021E030E0FC01338322838B
:1005600080E090E0089580910003E82FF0E0EF5FD5
:10057000FC4F60838F5F809300038093220309C048
:100580008091FE02843029F481E08093860260939A
:10059000640281E090E00895089508950F931F93F9
:1005A000CF93DF931F92CDB7DEB78C01FC0184851A
:1005B000958597FF0EC0CE0101960E9474080197A1
:1005C00019F4298130E002C02FEF3FEFF8013587A1
:1005D0002487F801848595850F90DF91CF911F9135
:1005E0000F910895CF93DF931F92CDB7DEB7FC0133
:1005F0008485958597FD05C02FEF3FEF35872487CC
:100600000BC0CE0101960E947408019719F48981EC
:1006100090E002C08FEF9FEF0F90DF91CF91089590
:100620000E949E120F931F93CF93DF938C01EB01D7
:1006300088E2FB0111928A95E9F74BE050E067E50B
:1006400071E0CE010E94A3121B8641E050E060E001
:1006500070E04C875D876E877F87F8018185928582
:10066000A385B485888B998BAA8BBB8B4C8B5D8BB8
:100670006E8B7F8B1CA21DA21EA21FA2188E198E2C
:100680001A8E1B8E1C8E1D8E1E8E1F8E18A219A2F6
:100690001AA21BA2DF91CF911F910F9108957F9213
:1006A0008F929F92AF92BF92CF92DF92EF92FF9282
:1006B0000F931F93CF93DF938C01EB0184E2FB0137
:1006C00011928A95E9F781E08093FF0289E1809396
:1006D0002103109200031092220368EA83E793E05B
:1006E0000E94A3020E94D30786E00E942C08109269
:1006F000B5028093B40290E086309105ECF383E775
:1007000093E00E944A02882E83E793E00E944A0207
:10071000782E83E793E00E944A02A82E83E793E0B5
:100720000E944A02982E83E793E00E944A02B82E64
:1007300083E793E00E944A02D72CC12CC82824E00A
:10074000D594C7942A95E1F7F801D482C382F92C95
:10075000E12CEA2834E0F594E7943A95E1F7F68243
:10076000E582982F88278B2954E0959587955A958F
:10077000E1F79087878384E290E0A0E0B0E088838F
:100780009983AA83BB8381859285A385B4858C8355
:100790009D83AE83BF8381E090E0A0E0B0E08887D6
:1007A0009987AA87BB872FB7F8948091AC02909164
:1007B000AD02A091AE02B091AF022FBF888B998B92
:1007C000AA8BBB8B63817481072E000C880B990B5D
:1007D0000E944A102FE632E143E85AE30E94FF10DC
:1007E0002AE038EE4CE151E40E94FF106C8B7D8BC7
:1007F0008E8B9F8BF80165817681072E000C880B0C
:10080000990B0E944A102FE632E143E85AE30E9416
:10081000FF102AE038EE4CE151E40E94FF10688F8F
:10082000798F8A8F9B8FF80167817085072E000C66
:10083000880B990B0E944A102FE632E143E85AE3F5
:100840000E94FF102AE038EE4CE151E40E94FF10B4
:100850006C8F7D8F8E8F9F8F81E0DF91CF911F9165
:100860000F91FF90EF90DF90CF90BF90AF909F904F
:100870008F907F9008950C940612362F90E0FC0123
:10088000E852FF4F4491FC01E950FF4F2491FC01D5
:10089000EC5DFE4F8491882309F451C04423E1F1BB
:1008A00050E0FA013197EF30F105B0F5EA5AFF4F09
:1008B0000C942F0F909180009F7707C0909180003B
:1008C0009F7D03C090918000977F9093800024C00B
:1008D00094B59F7702C094B59F7D94BD1DC0909143
:1008E00090009F7707C0909190009F7D03C09091EA
:1008F0009000977F909390000FC09091C0009F77D9
:1009000003C09091C0009F7D9093C00005C090915E
:10091000C200977F9093C200E82FF0E0EE0FFF1F18
:10092000EA5EFE4FA591B4918FB7F894EC91311126
:1009300003C020952E2301C02E2B2C938FBF08952A
:10094000CF93DF9390E0FC01E950FF4F2491FC012D
:10095000EC5DFE4F8491882361F190E0880F991F30
:10096000FC01E653FF4FC591D491FC01EA5EFE4FB6
:10097000A591B491611109C09FB7F8948881209521
:1009800082238883EC912E230BC0623061F49FB7E1
:10099000F8943881822F809583238883EC912E2BC5
:1009A0002C939FBF06C08FB7F894E8812E2B288325
:1009B0008FBFDF91CF9108951F920F920FB60F92C4
:1009C00011242F933F938F939F93AF93BF93809165
:1009D000AC029091AD02A091AE02B091AF02309105
:1009E000AB0226E0230F2D3720F40296A11DB11D86
:1009F00005C029E8230F0396A11DB11D2093AB026A
:100A00008093AC029093AD02A093AE02B093AF027C
:100A10008091B0029091B102A091B202B091B30264
:100A20000196A11DB11D8093B0029093B102A093D5
:100A3000B202B093B302BF91AF919F918F913F915A
:100A40002F910F900FBE0F901F9018951F920F922D
:100A50000FB60F9211242F933F934F935F936F9391
:100A60007F938F939F93AF93BF93EF93FF93809167
:100A7000B900887F803609F49CC068F5883209F493
:100A80005BC090F4803109F454C038F4882309F431
:100A9000F3C0883009F44DC0F3C0883109F44CC06C
:100AA000803209F45DC0ECC0803409F468C048F4B9
:100AB000803309F455C0883309F0E2C08093FC020A
:100AC000D5C0803509F44FC0883509F45DC088343D
:100AD00009F0D6C0D3C0883909F4C4C0A8F4883757
:100AE00009F467C038F4883609F463C0803709F424
:100AF00060C0C6C0883809F4B5C0803909F45FC049
:100B0000803809F0BDC05BC0803B09F483C038F475
:100B1000803A09F466C0883A09F47CC0B1C0803CD0
:100B200009F4A4C0883C09F4A1C0883B09F487C03B
:100B3000A7C08091D90210C09091FB028091FA0267
:100B4000981770F5E091FB0281E08E0F8093FB0215
:100B5000F0E0E652FD4F80818093BB0085EC83C0BE
:100B60008093FC028BC0E091FB0281E08E0F8093AA
:100B7000FB028091BB00F0E0E652FD4F8083909134
:100B8000FB028091FA026BC0E091FB0281E08E0FC4
:100B90008093FB028091BB00F0E0E652FD4F808322
:100BA0008091FD0281116AC081E08093D80284EABD
:100BB0005EC083E08093FE021092AA02CFCF8091A4
:100BC000AA02803208F04EC0E091AA0281E08E0FA6
:100BD0008093AA028091BB00F0E0E657FD4F80832E
:100BE000BDCF8091AA02803230F4E091AA02F0E0F9
:100BF000E657FD4F10820E9430026091AA0270E019
:100C0000E0918802F09189028AE892E009951092B9
:100C1000AA022CC084E08093FE02109287021092F8
:100C20008602E0918402F091850209958091860206
:100C3000811105C081E08093860210926402E091E8
:100C4000870281E08E0F80938702F0E0EC59FD4F20
:100C500080818093BB0090918702809186029817D3
:100C600008F47CCF85E88093BC000AC085EC8093B3
:100C7000BC001092FE0204C01092FC020E943002DE
:100C8000FF91EF91BF91AF919F918F917F916F9164
:100C90005F914F913F912F910F900FBE0F901F903A
:100CA00018950895BC01009791F0FC010190002077
:100CB000E9F73197AF01481B590BE0912303F091FD
:100CC00024030280F381E02D83E293E0099480E025
:100CD00090E008958F929F92AF92BF920F931F93CF
:100CE000CF93DF93CDB7DEB7A1970FB6F894DEBFF1
:100CF0000FBECDBF19A2423008F44AE08E010F5D4D
:100D00001F4F842E912CA12CB12CA50194010E947F
:100D10000D0FE62FB901CA0101501109EA3014F490
:100D2000E05D01C0E95CD801EC93232B242B252B3B
:100D300061F7C8010E945206A1960FB6F894DEBF73
:100D40000FBECDBFDF91CF911F910F91BF90AF909C
:100D50009F908F900895CF92DF92EF92FF92CF9362
:100D6000DF936B017C01E0912303F0912403019058
:100D7000F081E02D6DE283E293E00995EC016627B6
:100D80007727CB016C197D098E099F094AE00E94E3
:100D90006A068C0F9D1FDF91CF91FF90EF90DF903F
:100DA000CF900895CF93DF930E945206EC0183E524
:100DB00092E00E9452068C0F9D1FDF91CF91089503
:100DC0004F925F926F927F928F929F92AF92BF925B
:100DD000CF92DF92EF92FF926B017C01B42E9B01C8
:100DE000AC010E946C11882319F086E592E027C0BF
:100DF00026013701E89477F82FEF3FEF4FE75FE7E1
:100E0000C301B2010E946C1181110DC02FEF3FEFA1
:100E10004FE75FE7C301B2010E94A20F18161CF44E
:100E20008AE592E00CC02FEF3FEF4FE75FE4C70188
:100E3000B6010E94FA10181684F48EE592E0FF9035
:100E4000EF90DF90CF90BF90AF909F908F907F906A
:100E50006F905F904F900C9452062FEF3FEF4FE74B
:100E60005FECC701B6010E94A20F87FDE6CF20E02C
:100E700030E0A901C701B6010E94A20F87FF11C08F
:100E8000E0912303F09124030190F081E02D6DE2C5
:100E900083E293E009954C01F7FAF094F7F8F094A7
:100EA00002C0812C912CA12C60E070E080E09FE3D7
:100EB000AB1441F020E030E040E251E40E94A70F83
:100EC000A394F6CF9B01AC01C701B6010E94360F77
:100ED0002B013C010E9419106B017C010E944810FB
:100EE0009B01AC01C301B2010E94350F2B013C01F3
:100EF0004AE0C701B6010E946A067C01E80CF91CB1
:100F0000BB2031F082E692E00E945206E80EF91E04
:100F1000DB2CDD2021F120E030E040E251E4C30190
:100F2000B2010E94FF102B013C010E9419104B01DD
:100F3000A12CB12C4AE0C501B4010E946A06E80E5A
:100F4000F91EC501B4010E9448109B01AC01C30108
:100F5000B2010E94350F2B013C01DA94DACFC701B0
:100F6000FF90EF90DF90CF90BF90AF909F908F90C9
:100F70007F906F905F904F9008950C945206CF939E
:100F8000DF9397FF03C00E94AB0603C04AE00E94B4
:100F90006A06EC0183E592E00E9452068C0F9D1FC9
:100FA000DF91CF9108952091220390912103213266
:100FB00008F046C08091FE028111FCCF32E03093F0
:100FC000FE0231E03093FD023FEF3093FC021092BD
:100FD000FB022093FA02A1E0B3E04AED52E0FA01ED
:100FE0003E2F341B321718F43D913193F9CF1092F4
:100FF000D9022091D902990F922B9093D902909106
:10100000D802913041F41092D8029091D902909375
:10101000BB0095EC01C095EE9093BC009091FE0250
:101020009230E1F39091FC029F3F79F08091FC02B5
:10103000803241F08091FC02803331F084E005C0C1
:1010400081E003C082E001C083E0109200031092AF
:1010500022031092FF0208959091FE029111FCCF9D
:1010600091E09093FE029093FD022FEF2093FC02FB
:101070001092FB02280F2093FA029093D9029091CC
:10108000D90292639093D9029091D802913041F4A1
:101090001092D8029091D9029093BB0095EC01C0B8
:1010A00095EE9093BC009091FE029130E1F3909107
:1010B000FB02981710F48091FB02AAEDB2E028EB36
:1010C00032E0F9019E2F921B981718F49D9191938D
:1010D000F9CF0895BC01990F880B990B97FD0C94DB
:1010E000AB064AE00C946A06FC018091B7028111BC
:1010F00003C08FEF9FEF08959FB7F89482E080932D
:10110000E9002091F20030E01216130614F421E0F9
:1011100030E02115310559F0289A84E68093B60213
:101120008091F10080838091F200882319F09FBFA5
:10113000C90108958BE68093E800F9CF8091BF0341
:1011400081110DC082E08093BB0384E08093BC03D7
:101150001092BE031092BD0381E08093BF038BEB1E
:1011600093E008954091CE035091CF032091CC039A
:101170003091CD0342175307B4F49091E800957075
:10118000E1F39091E80092FD19C08093F100809105
:10119000CE039091CF0301968F739927892B19F471
:1011A0008EEF8093E8008091CE039091CF0301965B
:1011B0009093CF038093CE0381E0089580E008955B
:1011C000DF92EF92FF920F931F93CF93DF93D82E6E
:1011D0008A017B01E40EF51EEB01CE15DF0571F0EF
:1011E000D7FE03C0FE01849101C088810E94B2082D
:1011F00021968111F2CF8FEF9FEF01C0C801DF91DF
:10120000CF911F910F91FF90EF90DF900895615063
:1012100030F02091F100FC0120830196F8CF289A4C
:1012200084E68093B6020895CF92DF92EF92FF9208
:101230000F931F93CF93DF936C017A018B01C0E072
:10124000D0E0CE15DF0589F0D8016D918D01D60172
:10125000ED91FC910190F081E02DC6010995892B5B
:1012600011F47E0102C02196ECCFC701DF91CF912E
:101270001F910F91FF90EF90DF90CF9008950F9303
:101280001F93CF93DF931F92CDB7DEB782E08983A0
:1012900042E450E063E471E080E80E94E0080E94CC
:1012A0009E08DC0112960D911C91139701151105F2
:1012B00069F0D801ED91FC910280F381E02DBE012F
:1012C0006F5F7F4FC801099597FF07C089810F9015
:1012D000DF91CF911F910F910895F801008511853D
:1012E000E5CF1F920F920FB60F9211248F939F9309
:1012F0008091E1009091E100937F9093E10083FF62
:101300000FC01092E90091E09093EB001092EC0076
:1013100092E39093ED001092B70298E09093F00062
:1013200082FF20C093E09093E9009091F20099230E
:1013300019F09AE39093E8009091CA03992339F049
:101340009091CA0391509093CA03992389F1909187
:10135000B602992339F09091B60291509093B6025B
:10136000992341F184FF10C08091E2008E7E81605C
:101370008093E2008091E1008F7E8093E100809174
:10138000C9038E7E806111C080FF16C08091E2008B
:101390008E7E80618093E2008091E1008E7E80935A
:1013A000E1008091C9038E7E81608093C90304C0EF
:1013B0005D98CDCF2898D6CF9F918F910F900FBE7B
:1013C0000F901F9018951F920F920FB60F92112435
:1013D000CF92DF92EF92FF920F931F932F933F9341
:1013E0004F935F936F937F938F939F93AF93BF932D
:1013F000EF93FF93CF93DF93CDB7DEB76C97DEBF4C
:10140000CDBF1092E9008091E80083FFFAC168E047
:10141000CE0145960E94070982EF8093E8008D89EE
:1014200087FF05C09091E80090FFFCCF03C09EEFBE
:101430009093E800982F907609F0C6C09E892F8976
:10144000188D91110CC0803829F48091C8038093C5
:10145000F10002C01092F1001092F10047C1422F3A
:1014600050E0512B913051F4811140C14130510570
:1014700009F03CC18091C8038D7F0BC0933061F4AB
:10148000811134C14130510509F030C18091C80348
:1014900082608093C8032AC1953041F48091E800AE
:1014A00080FFFCCF20682093E30020C1963009F034
:1014B0005FC0EB8CFC8C1092E9001092CF0310926D
:1014C000CE03123091F51092CD031092CC030E94FE
:1014D0003F0999E0BE016F5F7F4FDB01E92F1D924D
:1014E000EA95E9F799831A8391E09E8390EA9887B9
:1014F0009AEF99872091CE033091CF03275F3F4F1A
:101500003C832B838D831092E9001092CF031092BD
:10151000CE03F092CD03E092CC0349E050E080E0AE
:101520000E94E0080E943F09E1C0F092CD03E092E2
:10153000CC030E949E08DC011296ED90FC9013975C
:10154000E114F10409F4C0C0D701ED91FC910480CD
:10155000F581E02DBE016B5E7F4FC70109950097B5
:1015600019F00CF0C3C0C6C0F701E084F184E8CFE5
:10157000973009F4BFC0983021F481E08093F100E6
:10158000B5C0993009F0B2C0837009F0B3C0E1E58D
:10159000F1E081E021E036E39081992361F08093CE
:1015A000E9002093EB0091919093EC003093ED00D3
:1015B0008F5F873089F78EE78093EA001092EA0008
:1015C0008F898093B70292C08B8D9C8D1092E90019
:1015D0001092CF031092CE039093CD038093CC034F
:1015E000898D811156C08E899D89913A59F4813235
:1015F00009F080C047E050E064E071E080E00E94C4
:10160000E00874C0913209F075C0833289F4888D86
:1016100090E0982F88272F89822BA0E0B0E080935C
:10162000000190930101A0930201B09303015EC0F9
:10163000803269F48091E80082FFFCCF67E084E0AB
:1016400091E00E9407098BEF8093E80006C0823288
:1016500009F04CC08F8980930B018091C7038823C8
:1016600019F0EEEFFAE002C0E0E0F8E0809104014A
:1016700090910501A0910601B0910701803B944033
:10168000A105B10509F088C080910B0180FFA0C0C1
:1016900083C00E949E08DC0112960D911C91139745
:1016A0000115110539F1D801ED91FC910190F081FE
:1016B000E02DBE016B5E7F4FC8010995811116C0F8
:1016C000F80100851185ECCF1130C1F0133091F491
:1016D0008F89882309F455C08230E9F440E865E039
:1016E00082E991E00E94D00E882321F08EEF809352
:1016F000E80087C081E28093EB0083C08B8D9C8DD6
:10170000089711F41093CB038091CB03811136C05D
:1017100068E971E038C0813029F440E868E089E880
:1017200091E0E0CF833031F70E949E08DC011296F1
:10173000ED90FC9013978E010F5F1F4F6801E1142D
:10174000F10479F0D701ED91FC910680F781E02D4D
:10175000B801C7010995080F111DF701E084F18454
:10176000EECFD8011C92F60101900020E9F73197E5
:10177000BF016C197D0940E0C601B4CF6AEA71E08F
:1017800002C065E871E06115710509F4B3CFFB0192
:10179000449150E080E833CF0FB6F894A89580913B
:1017A0006000886180936000109260000FBEA89571
:1017B000EE3F2AE0F20739F08091FE0A9091FF0A8D
:1017C0009183808393CF1092FF0A1092FE0A8ECFEE
:1017D000EE3F8AE0F80731F0808191819093FF0A13
:1017E0008093FE0A87E797E7918380839BE088E1F7
:1017F0000FB6F894A895809360000FBE9093600098
:1018000075CF6C960FB6F894DEBF0FBECDBFDF91DB
:10181000CF91FF91EF91BF91AF919F918F917F9168
:101820006F915F914F913F912F911F910F91FF9079
:10183000EF90DF90CF900F900FBE0F901F901895F4
:10184000CF93DF93CDB7DEB7A8970FB6F894DEBF7E
:101850000FBECDBF789484B5826084BD84B58160AD
:1018600084BD85B5826085BD85B5816085BD80916B
:101870006E00816080936E001092810080918100E3
:1018800082608093810080918100816080938100DB
:1018900080918000816080938000809191008260BF
:1018A000809391008091910081608093910080915C
:1018B00090008160809390008091C100846080934B
:1018C000C1008091C10082608093C1008091C100FD
:1018D00081608093C1008091C30081608093C300C8
:1018E0008091C00082608093C0008091C2008160BE
:1018F0008093C20080917A00846080937A00809106
:101900007A00826080937A0080917A008E7F809343
:101910007A0080917A00806880937A001092B702F2
:101920001092C8031092C9038091D7008160809300
:10193000D70080EA8093D80089B58F7E89BD89B5AC
:10194000826089BD09B400FEFDCF61E070E080E0F7
:1019500090E00E946A018091D8008F7C8061809322
:10196000D8008091E000807F8093E0008091E100CA
:101970008E7E8093E1008DE08093E200559A209A5C
:10198000EEEFFFE7859194918B3F9C4D19F481E038
:101990008093C7038FEF9FEF9093300380932F03C3
:1019A0008EE591E00E94D20685E592E00E94D20683
:1019B0001092B5021092B40210920003109222030A
:1019C0001092FE0211E01093FD021092D80261E025
:1019D00082E00E943D0461E083E00E943D0480912A
:1019E000B9008E7F8093B9008091B9008D7F80937C
:1019F000B90080E28093B80085E48093BC00109326
:101A0000FF0209E1009321031092000310922203C8
:101A100060E283E793E00E94A30267E583E793E037
:101A20000E94A3020E94D3071093FF020093210398
:101A3000109200031092220360E283E793E00E9479
:101A4000A3020E94D30781E00E942C081092B502E5
:101A50008093B40283E793E00E944A02182F0E9409
:101A6000D307173529F08CE991E00E94D206FFCF09
:101A7000BE016F5F7F4F8EEA93E00E9412038DECF0
:101A800091E00E94D20682EF91E00E94BD07CE0154
:101A900001960E94D20681E092E00E94BD076D850A
:101AA0007E858F8598890E94BF0780E192E00E9421
:101AB000BD0769897A898B899C890E94BF078FE15C
:101AC00092E00E94BD07698D7A8D8B8D9C8D42E0DE
:101AD0000E94E0068EE292E00E94D20685E392E048
:101AE0000E94BD076D8D7E8D8F8D98A142E00E9472
:101AF000E0068EE292E00E94D20684E492E00E9428
:101B0000BD0769A17AA18BA19CA142E00E94E006D9
:101B10008EE292E00E94D2068DEC91E00E94D20605
:101B200085E592E00E94D20664EF71E080E090E0EB
:101B30000E946A0160ED77E080E090E00E946A0117
:101B400000E010E0BE016F5F7F4F8EEA93E00E94DD
:101B50004F0381E791E00E94BD076D897E898F89DF
:101B6000988D42E00E94E0068EEF91E00E94BD0752
:101B700085E791E00E94BD07698D7A8D8B8D9C8DE4
:101B800042E00E94E0068EEF91E00E94BD0789E7E7
:101B900091E00E94BD076D8D7E8D8F8D98A142E0F2
:101BA0000E94E0068EEF91E00E94BD078DE791E074
:101BB0000E94D20684E891E00E94BD078091B103A3
:101BC0009091B2030E946A088EEF91E00E94BD07D7
:101BD0008CE891E00E94BD078091B3039091B4031B
:101BE0000E946A088EEF91E00E94BD0784E991E0AF
:101BF0000E94BD078091B5039091B6030E946A08C8
:101C000085E592E00E94D20664EF71E080E090E00A
:101C10000E946A010115110509F494CF0E94000089
:101C200091CF8091870390918803009711F00E94D3
:101C300006128091850387FD03C060E00C94A00428
:101C40000895109226031092250388EE93E0A0E0F9
:101C5000B0E08093270390932803A0932903B093C7
:101C60002A0326E131E030932403209323032FEF4E
:101C70003FEF3093300320932F031092760310929E
:101C800075038093770390937803A0937903B093BF
:101C90007A0386E291E0909374038093730386E362
:101CA00091E09093AF038093AE0381E394EDA0E0C5
:101CB000B0E08093B7039093B803A093B903B093B7
:101CC000BA031092B2031092B1031092B4031092AF
:101CD000B3031092B6031092B503109280031092D2
:101CE000860310928D0310928E0310928F03109230
:101CF000900381E080938C038093890310928A0380
:101D000092E090938B0380937F0388E190E090931F
:101D10008403809383030E947111909388038093BE
:101D20008703009761F028E1FC0111922A95E9F7F9
:101D300088E090E0909382038093810308C0109222
:101D4000840310928303109282031092810386E031
:101D50008093850380918003882341F061E086E0D1
:101D60000E94A00460E086E00E943D04EAE2F1E007
:101D7000E491F0E0EE0FFF1FEA5EFE4F8591949133
:101D80009093920380939103EDEFF0E0E491E09360
:101D900093038CEC92E09093AD038093AC03089591
:101DA000CF92DF92EF92FF920F931F93CF93DF9327
:101DB0001F92CDB7DEB7182F062FE42E862F880F7F
:101DC0008E5F99830E94B20883E00E94B208F12ED0
:101DD000C12E9981D92E8C2D8F19801798F4F60178
:101DE000E7FE02C0849101C080810E94B208182FD2
:101DF00080E00E94B2088123FFEFCF1ADF0A811131
:101E0000EACF01C081E00F90DF91CF911F910F9138
:101E1000FF90EF90DF90CF900895A1E21A2EAA1BB9
:101E2000BB1BFD010DC0AA1FBB1FEE1FFF1FA2178A
:101E3000B307E407F50720F0A21BB30BE40BF50B87
:101E4000661F771F881F991F1A9469F76095709510
:101E5000809590959B01AC01BD01CF010895EE0FD7
:101E6000FF1F0590F491E02D09945058BB27AA2735
:101E70000E944D0F0C94C0100E94B21038F00E94C6
:101E8000B91020F039F49F3F19F426F40C94AF10E8
:101E90000EF4E095E7FB0C94A910E92F0E94D110F5
:101EA00058F3BA17620773078407950720F079F48F
:101EB000A6F50C94F3100EF4E0950B2EBA2FA02D7E
:101EC0000B01B90190010C01CA01A0011124FF27E7
:101ED000591B99F0593F50F4503E68F11A16F040E2
:101EE000A22F232F342F4427585FF3CF46953795E1
:101EF0002795A795F0405395C9F77EF41F16BA0BA6
:101F0000620B730B840BBAF09150A1F0FF0FBB1F53
:101F1000661F771F881FC2F70EC0BA0F621F731F9C
:101F2000841F48F4879577956795B795F7959E3FF9
:101F300008F0B0CF9395880F08F09927EE0F97958A
:101F4000879508950E94851008F481E008950E9405
:101F5000BB0F0C94C0100E94B91058F00E94B21030
:101F600040F029F45F3F29F00C94A91051110C9412
:101F7000F4100C94AF100E94D11068F39923B1F3C0
:101F8000552391F3951B550BBB27AA27621773079F
:101F9000840738F09F5F5F4F220F331F441FAA1F33
:101FA000A9F335D00E2E3AF0E0E832D091505040EF
:101FB000E695001CCAF72BD0FE2F29D0660F771F9D
:101FC000881FBB1F261737074807AB07B0E809F083
:101FD000BB0B802DBF01FF2793585F4F3AF09E3F08
:101FE000510578F00C94A9100C94F4105F3FE4F3C1
:101FF000983ED4F3869577956795B795F7959F5F4B
:10200000C9F7880F911D9695879597F90895E1E096
:10201000660F771F881FBB1F621773078407BA07F5
:1020200020F0621B730B840BBA0BEE1F88F7E09550
:1020300008950E94D91088F09F5798F0B92F9927DA
:10204000B751B0F0E1F0660F771F881F991F1AF0A3
:10205000BA95C9F714C0B13091F00E94F310B1E005
:1020600008950C94F310672F782F8827B85F39F004
:10207000B93FCCF3869577956795B395D9F73EF43C
:1020800090958095709561957F4F8F4F9F4F0895E4
:10209000E89409C097FB3EF4909580957095619502
:1020A0007F4F8F4F9F4F9923A9F0F92F96E9BB27B8
:1020B0009395F695879577956795B795F111F8CF34
:1020C000FAF4BB0F11F460FF1BC06F5F7F4F8F4F9F
:1020D0009F4F16C0882311F096E911C0772321F095
:1020E0009EE8872F762F05C0662371F096E8862F2D
:1020F00070E060E02AF09A95660F771F881FDAF784
:10210000880F9695879597F90895990F0008550FB0
:10211000AA0BE0E8FEEF16161706E807F907C0F06D
:1021200012161306E407F50798F0621B730B840B75
:10213000950B39F40A2661F0232B242B252B21F44F
:1021400008950A2609F4A140A6958FEF811D811DEF
:10215000089597F99F6780E870E060E008959FEF29
:1021600080EC089500240A9416161706180609062E
:10217000089500240A9412161306140605060895FD
:10218000092E0394000C11F4882352F0BB0F40F485
:10219000BF2B11F460FF04C06F5F7F4F8F4F9F4FC5
:1021A000089557FD9058440F551F59F05F3F71F047
:1021B0004795880F97FB991F61F09F3F79F08795AE
:1021C0000895121613061406551FF2CF4695F1DF37
:1021D00008C0161617061806991FF1CF86957105C7
:1021E000610508940895E894BB2766277727CB01FB
:1021F00097F908950E94851008F48FEF08950E94C2
:1022000012110C94C0100E94B21038F00E94B91044
:1022100020F0952311F00C94A9100C94AF10112408
:102220000C94F4100E94D11070F3959FC1F3950F98
:1022300050E0551F629FF001729FBB27F00DB11D4A
:10224000639FAA27F00DB11DAA1F649F6627B00DDA
:10225000A11D661F829F2227B00DA11D621F739FC3
:10226000B00DA11D621F839FA00D611D221F749FD1
:102270003327A00D611D231F849F600D211D822F18
:10228000762F6A2F11249F5750409AF0F1F088233F
:102290004AF0EE0FFF1FBB1F661F771F881F91506C
:1022A0005040A9F79E3F510580F00C94A9100C9462
:1022B000F4105F3FE4F3983ED4F3869577956795E5
:1022C000B795F795E7959F5FC1F7FE2B880F911D96
:1022D0009695879597F908950E948510880B990B1C
:1022E0000895CF93DF938230910510F482E090E05F
:1022F000E091D203F091D30320E030E0C0E0D0E0E1
:10230000309711F14081518148175907C0F04817A3
:10231000590761F482819381209719F09B838A8306
:102320002BC09093D3038093D20326C0211531058F
:1023300019F04217530718F49A01BE01DF01EF01AB
:102340000280F381E02DDCCF2115310509F1281B36
:10235000390B2430310590F412968D919C9113978E
:102360006115710521F0FB019383828304C0909372
:10237000D3038093D203FD01329644C0FD01E20FE6
:10238000F31F81939193225031092D933C933AC0CE
:102390002091D0033091D103232B41F420910E01E1
:1023A00030910F013093D1032093D00320910C0181
:1023B00030910D012115310541F42DB73EB7409103
:1023C000100150911101241B350BE091D003F091C5
:1023D000D103E217F307A0F42E1B3F0B2817390790
:1023E00078F0AC014E5F5F4F2417350748F04E0F71
:1023F0005F1F5093D1034093D0038193919302C008
:10240000E0E0F0E0CF01DF91CF9108950F931F93AB
:10241000CF93DF93009709F48CC0FC0132971382AD
:1024200012820091D2031091D3030115110581F49A
:1024300020813181820F931F2091D0033091D103ED
:102440002817390779F5F093D103E093D00371C0D1
:10245000D80140E050E0AE17BF0750F412962D911E
:102460003C911397AD012115310509F1D901F3CF45
:102470009D01DA013383228360817181860F971F6A
:102480008217930769F4EC0128813981260F371FE1
:102490002E5F3F4F318320838A819B819383828388
:1024A000452B29F4F093D303E093D20342C0139653
:1024B000FC93EE931297ED01499159919E01240FDF
:1024C000351FE217F30771F480819181840F951F06
:1024D000029611969C938E938281938113969C937E
:1024E0008E931297E0E0F0E0D80112968D919C91C6
:1024F0001397009719F0F8018C01F6CF8D919C91FC
:1025000098012E5F3F4F820F931F2091D00330918F
:10251000D1032817390769F4309729F41092D303AF
:102520001092D20302C0138212821093D10300933F
:10253000D003DF91CF911F910F91089581E090E03A
:10254000F8940C94B212FB01DC014150504048F069
:1025500001900D920020C9F701C01D9241505040DA
:10256000E0F7089510E0CFEDD0E004C0FE010E9436
:0E2570002F0F2196C03ED107C9F7F894FFCF78
:10257E00FFFFFFFF00E10000000000000000D40399
:10258E008000000000000A01A4012B01F202CE021D
:10259E00200100000000A30266025E024A023B0216
:1025AE003A020000000051063B04CD024F03120315
:1025BE000000000000000000CD0210031003060012
:1025CE0000C180810000004C534D33303300416315
:1025DE0063656C65726F6D65746572205465737496
:1025EE0000583A2000593A20005A3A20006D2F73B5
:1025FE005E32200058205261773A200059205261F5
:10260E00773A20005A205261773A20004F6F6F7050
:10261E00732C206E6F204C534D3330332064657411
:10262E006563746564202E2E2E20436865636B20CF
:10263E00796F757220776972696E6721002D2D2D65
:10264E002D2D2D2D2D2D2D2D2D2D2D2D2D2D2D2DAC
:10265E002D2D2D2D2D2D2D2D2D2D2D2D2D2D2D2D9C
:10266E002D0053656E736F723A202020202020209B
:10267E0000447269766572205665723A20202000F9
:10268E00556E697175652049443A20202020004D11
:10269E0061782056616C75653A2020202000206DEF
:1026AE002F735E32004D696E2056616C75653A204F
:1026BE00202020005265736F6C7574696F6E3A201E
:1026CE002020000D0A006E616E00696E66006F7646
:0426DE0066002E0064
:00000001FF
