:100000000C94E0000C9408010C9408010C94080175
:100010000C9408010C9408010C9408010C9408013C
:100020000C9408010C9408010C94D80B0C944A0C05
:100030000C9408010C9408010C9408010C9408011C
:100040000C9408010C9408010C9408010C9408010C
:100050000C9408010C9408010C9408010C94D10331
:100060000C9408010C9408010C9408010C940801EC
:100070000C9408010C9408010C9408010C940801DC
:100080000C9408010C9408010C9408010C940801CC
:100090000C941B040C9408010C9408010C940801A6
:1000A0000C9408010C9408010C9408012303260306
:1000B000150319031D034703470347032A032E03B0
:1000C000320338033C0347034203000000002400CE
:1000D00027002A002D0030000000000200090F0058
:1000E00000030401000C00000000000000000000FC
:1000F00000000000000000040802011040804010D1
:10010000204080408008020401804020100201103D
:1001100080102040402000000000250028002B0017
:100120002E00310004040404040304050202020248
:100130000403020202020606060606060404020280
:10014000020404080B00020202010009040000017D
:10015000020200000524001001052401010104240D
:10016000020605240600010705810310004009046A
:100170000100020A00000007050202400000070516
:1001800083024000000403090441646166727569DA
:100190007400466C6F7261001201000200000040A2
:1001A0009A23048000010102030112010002EF0200
:1001B00001409A230480000101020301EE10870E22
:1001C00011241FBECFEFDAE0DEBFCDBF23E0A0E5F4
:1001D000B2E001C01D92A03CB207E1F712E0A0E03E
:1001E000B1E0EAE8FBE202C005900D92A035B1074C
:1001F000D9F710E0CFEDD0E004C02197FE010E94B6
:10020000DA11CE3DD107C9F70E94970E0C94B815AC
:100210000C9400003FB7F89480919C0290919D024D
:10022000A0919E02B0919F0226B5A89B05C02F3FCA
:1002300019F00196A11DB11D3FBFBA2FA92F982F0C
:100240008827820F911DA11DB11DBC01CD0143E086
:10025000660F771F881F991F4A95D1F7089585ED7E
:100260008093BC008091BC0084FDFCCF1092EA0218
:1002700008950895E091A1028091A002E81730F45A
:10028000F0E0EC55FD4F808190E008958FEF9FEFF7
:1002900008959091A1028091A002981750F4E92F3F
:1002A000F0E0EC55FD4F208130E09F5F9093A1027C
:1002B00002C02FEF3FEFC90108958091A00290E0A6
:1002C0002091A102821B91090895CF92DF92EF92B3
:1002D000FF920F931F93CF93DF937C018A0180914C
:1002E000EB02882389F0EB016B01C40ED51ECC15FF
:1002F000DD05F1F06991D701ED91FC910190F0815C
:10030000E02DC7010995F3CF842F413288F49091F5
:10031000EA02943069F440937202FB0120E532E076
:10032000D9019A2F921B981718F491919D93F9CFA8
:10033000C801DF91CF911F910F91FF90EF90DF9057
:10034000CF9008952091EB022223C9F020910E0353
:10035000203240F021E030E0FC013383228380E052
:1003600090E008958091EC02E82FF0E0E351FD4F1A
:1003700060838F5F8093EC0280930E0309C08091AD
:10038000EA02843029F481E0809372026093500283
:1003900081E090E00895089508950F931F93CF93FF
:1003A000DF938C01EB0188E2FB0111928A95E9F75A
:1003B0004BE050E06BE571E0CE010E944E151B86CC
:1003C00041E050E060E070E04C875D876E877F879A
:1003D000F80181859285A385B485888B998BAA8B3A
:1003E000BB8B4C8B5D8B6E8B7F8B1CA21DA21EA2C8
:1003F0001FA2188E198E1A8E1B8E1C8E1D8E1E8E9D
:100400001F8E18A219A21AA21BA2DF91CF911F91D1
:100410000F9108957F928F929F92AF92BF92CF9249
:10042000DF92EF92FF920F931F93CF93DF938C0194
:10043000EB0184E2FB0111928A95E9F781E0809358
:10044000EB0289E180930D031092EC0210920E03EF
:1004500068EA8FE593E00E94A2010E94440A86E0C8
:100460000E949D0A1092A1028093A00290E0863023
:100470009105ECF38FE593E00E944901882E8FE50A
:1004800093E00E944901782E8FE593E00E94490194
:10049000A82E8FE593E00E944901982E8FE593E006
:1004A0000E944901B82E8FE593E00E944901D72CA4
:1004B000C12CC82824E0D594C7942A95E1F7F80107
:1004C000D482C382F92CE12CEA2834E0F594E79435
:1004D0003A95E1F7F682E582982F88278B2954E038
:1004E000959587955A95E1F79087878384E290E008
:1004F000A0E0B0E088839983AA83BB83818592853D
:10050000A385B4858C839D83AE83BF8381E090E017
:10051000A0E0B0E088879987AA87BB872FB7F894B7
:100520008091980290919902A0919A02B0919B02B9
:100530002FBF888B998BAA8BBB8B63817481072E0D
:10054000000C880B990B0E94F5122FE632E143E86C
:100550005AE30E94AA132AE038EE4CE151E40E94CB
:10056000AA136C8B7D8B8E8B9F8BF80165817681B6
:10057000072E000C880B990B0E94F5122FE632E132
:1005800043E85AE30E94AA132AE038EE4CE151E412
:100590000E94AA13688F798F8A8F9B8FF8016781D9
:1005A0007085072E000C880B990B0E94F5122FE620
:1005B00032E143E85AE30E94AA132AE038EE4CE104
:1005C00051E40E94AA136C8F7D8F8E8F9F8F81E0E4
:1005D000DF91CF911F910F91FF90EF90DF90CF901F
:1005E000BF90AF909F908F907F9008950C94B1141E
:1005F000362F90E0FC01E852FF4F4491FC01E95096
:10060000FF4F2491FC01EC5DFE4F8491882309F497
:1006100051C04423E1F150E0FA013197EF30F10588
:10062000B0F5EA5AFF4F0C94DA11909180009F7751
:1006300007C0909180009F7D03C090918000977FBC
:100640009093800024C094B59F7702C094B59F7D9D
:1006500094BD1DC0909190009F7707C0909190002D
:100660009F7D03C090919000977F909390000FC062
:100670009091C0009F7703C09091C0009F7D9093A0
:10068000C00005C09091C200977F9093C200E82FF0
:10069000F0E0EE0FFF1FEA5EFE4FA591B4918FB719
:1006A000F894EC91311103C020952E2301C02E2B1C
:1006B0002C938FBF0895CF93DF9390E0FC01E95016
:1006C000FF4F2491FC01EC5DFE4F8491882361F182
:1006D00090E0880F991FFC01E653FF4FC591D4911C
:1006E000FC01EA5EFE4FA591B491611109C09FB76C
:1006F000F8948881209582238883EC912E230BC067
:10070000623061F49FB7F8943881822F80958323FB
:100710008883EC912E2B2C939FBF06C08FB7F89443
:10072000E8812E2B28838FBFDF91CF9108958F9280
:100730009F92AF92BF92CF92DF92EF92FF926B01A6
:100740007C010E940A014B015C01C114D104E10447
:10075000F104F1F00E940A01DC01CB01881999092A
:10076000AA09BB09883E9340A105B10570F321E0B9
:10077000C21AD108E108F10888EE880E83E0981EBD
:10078000A11CB11CC114D104E104F10419F7DDCF9F
:10079000FF90EF90DF90CF90BF90AF909F908F90A1
:1007A00008951F920F920FB60F9211242F933F932B
:1007B0008F939F93AF93BF938091980290919902EA
:1007C000A0919A02B0919B023091970226E0230FEC
:1007D0002D3720F40296A11DB11D05C029E8230F75
:1007E0000396A11DB11D20939702809398029093C8
:1007F0009902A0939A02B0939B0280919C029091DF
:100800009D02A0919E02B0919F020196A11DB11D73
:1008100080939C0290939D02A0939E02B0939F02AE
:10082000BF91AF919F918F913F912F910F900FBEEC
:100830000F901F9018951F920F920FB60F921124D0
:100840002F933F934F935F936F937F938F939F93D8
:10085000AF93BF93EF93FF938091B900887F803669
:1008600009F49CC068F5883209F45BC090F48031CB
:1008700009F454C038F4882309F4F3C0883009F42B
:100880004DC0F3C0883109F44CC0803209F45DC01A
:10089000ECC0803409F468C048F4803309F455C0D2
:1008A000883309F0E2C08093E802D5C0803509F4AE
:1008B0004FC0883509F45DC0883409F0D6C0D3C074
:1008C000883909F4C4C0A8F4883709F467C038F43B
:1008D000883609F463C0803709F460C0C6C0883820
:1008E00009F4B5C0803909F45FC0803809F0BDC093
:1008F0005BC0803B09F483C038F4803A09F466C0D9
:10090000883A09F47CC0B1C0803C09F4A4C0883C9A
:1009100009F4A1C0883B09F487C0A7C08091C50233
:1009200010C09091E7028091E602981770F5E0916F
:10093000E70281E08E0F8093E702F0E0EA53FD4F7B
:1009400080818093BB0085EC83C08093E8028BC0DC
:10095000E091E70281E08E0F8093E7028091BB0077
:10096000F0E0EA53FD4F80839091E7028091E60228
:100970006BC0E091E70281E08E0F8093E7028091E7
:10098000BB00F0E0EA53FD4F80838091E9028111C2
:100990006AC081E08093C40284EA5EC083E08093F1
:1009A000EA0210929602CFCF80919602803208F030
:1009B0004EC0E091960281E08E0F80939602809166
:1009C000BB00F0E0EA58FD4F8083BDCF80919602D6
:1009D000803230F4E0919602F0E0EA58FD4F108248
:1009E0000E942F016091960270E0E0917402F091F4
:1009F000750286E792E00995109296022CC084E079
:100A00008093EA021092730210927202E0917002D7
:100A1000F0917102099580917202811105C081E007
:100A20008093720210925002E091730281E08E0F67
:100A300080937302F0E0E05BFD4F80818093BB0008
:100A40009091730280917202981708F47CCF85E828
:100A50008093BC000AC085EC8093BC001092EA022F
:100A600004C01092E8020E942F01FF91EF91BF9104
:100A7000AF919F918F917F916F915F914F913F9136
:100A80002F910F900FBE0F901F901895CF92DF926D
:100A9000EF92FF920F931F93CF93DF93CDB7DEB703
:100AA00029970FB6F894DEBF0FBECDBF8C010E9410
:100AB0000A01D8011E96CD90DD90ED90FC905197E3
:100AC000DC01CB018C199D09AE09BF09C297A105B4
:100AD000B10568F3F894F801848195819A8389833C
:100AE000A085B1857D01FFEFEF1AFF0A8C918B8302
:100AF000D8018C9152960D90BC91A02D882309F4B9
:100B000077C11F82AB32B10509F059C09BB1F80122
:100B10008489982B9C839BB1809589238D838D81BB
:100B20008E838B8187FF02C08C818E835C816D8177
:100B30004B813E812F8189819A81D7015BB9262F14
:100B40003BB900C046FD252F6BB900C05BB9362FFD
:100B50002BB900C045FD352F6BB900C05BB9262FFE
:100B60003BB900C044FD252F6BB900C05BB9362FDF
:100B70002BB900C043FD352F6BB900C05BB9262FE0
:100B80003BB900C042FD252F6BB900C05BB9362FC1
:100B90002BB900C041FD352F6BB900C05BB9262FC2
:100BA0003BB900C040FD252F6BB901975BB9362FCB
:100BB0002BB94D9147FD352F6BB901F615C1A53203
:100BC000B10509F059C095B1F8018489982B9C832F
:100BD00095B1809589238D838D818E838B8187FF4D
:100BE00002C08C818E835C816D814B813E812F811F
:100BF00089819A81D70155B9262F35B900C046FDA4
:100C0000252F65B900C055B9362F25B900C045FD5F
:100C1000352F65B900C055B9262F35B900C044FD40
:100C2000252F65B900C055B9362F25B900C043FD41
:100C3000352F65B900C055B9262F35B900C042FD22
:100C4000252F65B900C055B9362F25B900C041FD23
:100C5000352F65B900C055B9262F35B900C040FD04
:100C6000252F65B9019755B9362F25B94D9147FD07
:100C7000352F65B901F6B8C0A832B10509F059C0E1
:100C800098B1F8018489982B9C8398B18095892329
:100C90008D838D818E838B8187FF02C08C818E83B3
:100CA0005C816D814B813E812F8189819A81D70141
:100CB00058B9262F38B900C046FD252F68B900C0A5
:100CC00058B9362F28B900C045FD352F68B900C086
:100CD00058B9262F38B900C044FD252F68B900C087
:100CE00058B9362F28B900C043FD352F68B900C068
:100CF00058B9262F38B900C042FD252F68B900C069
:100D000058B9362F28B900C041FD352F68B900C049
:100D100058B9262F38B900C040FD252F68B9019772
:100D200058B9362F28B94D9147FD352F68B901F6CE
:100D30005BC0D19709F08CC091B3F8018489982BDE
:100D40009C8391B3809589238D838D818E838B8144
:100D500087FF02C08C818E835C816D814B813E81D7
:100D60002F8189819A81D70151BB262F31BB00C0C9
:100D700046FD252F61BB00C051BB362F21BB00C0F3
:100D800045FD352F61BB00C051BB262F31BB00C0D4
:100D900044FD252F61BB00C051BB362F21BB00C0D5
:100DA00043FD352F61BB00C051BB262F31BB00C0B6
:100DB00042FD252F61BB00C051BB362F21BB00C0B7
:100DC00041FD352F61BB00C051BB262F31BB00C098
:100DD00040FD252F61BB019751BB362F21BB4D91A3
:100DE00047FD352F61BB01F64B833E832F832EC019
:100DF0009C91F8018489982B9C839C9180958923F0
:100E00008D838D81888788E089875C816D814B81A6
:100E10003985288589819A81F7015C9347FD252FC3
:100E20002C93262F3A9531F0441F6C9300C000C0DC
:100E300000C0F3CF6C93000038E04191019769F74F
:100E4000F801B38BA28B4B83398728879A838983D8
:100E500078940E940A01D8011E966D937D938D931C
:100E60009C93519729960FB6F894DEBF0FBECDBF65
:100E7000DF91CF911F910F91FF90EF90DF90CF9076
:100E800008950895CF93DF931F92CDB7DEB769839E
:100E9000DC01ED91FC910280F381E02D41E050E016
:100EA000BE016F5F7F4F09950F90DF91CF9108953D
:100EB00083E08093E9008091F200882319F08AE3AF
:100EC0008093E8000895FC018485958597FD0BC00B
:100ED0009FB7F89482E08093E9008091F2009FBF71
:100EE00090E0019608959FB7F89482E08093E9001E
:100EF0008091F2009FBF90E008958F929F92AF92F1
:100F0000BF92CF92DF92EF92FF920F931F93CF93F6
:100F1000DF935C016B018A0180910B01882309F446
:100F20005EC08091A302882309F459C08091B50363
:100F300080FF05C08091E00082608093E000E801BE
:100F40008AEFF82E93E0E92E2FE3822E3AE3932ED8
:100F5000209709F43DC08FB7F894E092E900909192
:100F6000E80095FF06C09091F200282D291B922FD2
:100F700001C090E08FBF91110AC0FA94FF2079F16F
:100F800061E070E080E090E00E949703E1CF292FBC
:100F900030E0C217D3070CF49C2F8FB7F894E0927F
:100FA000E9002091E80025FF11C0292F30E0C21B85
:100FB000D30BF601915020F041914093F100FACF0C
:100FC000C20ED31E9091E80095FF13C08FBFC0CF13
:100FD0005D9A84E68093B6031016110644F081E012
:100FE00090E0F5019383828380E090E005C0C80122
:100FF00003C09092E800EACFDF91CF911F910F914B
:10100000FF90EF90DF90CF90BF90AF909F908F9028
:101010000895CF93DF931F92CDB7DEB7FC0184858F
:10102000958597FD05C02FEF3FEF358724870BC0CF
:10103000CE0101960E94DB0A019719F4898190E0A4
:1010400002C08FEF9FEF0F90DF91CF9108950F9324
:101050001F93CF93DF931F92CDB7DEB78C01FC01B6
:101060008485958597FF0EC0CE0101960E94DB0A0C
:10107000019719F4298130E002C02FEF3FEFF8010A
:1010800035872487F801848595850F90DF91CF916E
:101090001F910F9108950E944915BC01009791F08E
:1010A000FC0101900020E9F73197AF01481B590B73
:1010B000E0910F03F09110030280F381E02D8FE0A7
:1010C00093E0099480E090E00895CF93DF930E942D
:1010D0004D08EC0187E891E00E944D088C0F9D1FA0
:1010E000DF91CF9108958F929F92AF92BF920F930D
:1010F0001F93CF93DF93CDB7DEB7A1970FB6F894C8
:10110000DEBF0FBECDBF19A2423008F44AE08E0107
:101110000F5D1F4F842E912CA12CB12CA5019401A1
:101120000E948715E62FB901CA0101501109EA3062
:1011300014F4E05D01C0E95CD801EC93232B242B6F
:10114000252B61F7C8010E944D08A1960FB6F894AF
:10115000DEBF0FBECDBFDF91CF911F910F91BF902A
:10116000AF909F908F9008954F925F926F927F9271
:101170008F929F92AF92BF92CF92DF92EF92FF92A7
:101180006B017C01B42E9B01AC010E9417148823D3
:1011900019F081E492E027C026013701E89477F83E
:1011A0002FEF3FEF4FE75FE7C301B2010E94171433
:1011B00081110DC02FEF3FEF4FE75FE7C301B20191
:1011C0000E944D1218161CF485E492E00CC02FEF1B
:1011D0003FEF4FE75FE4C701B6010E94A513181661
:1011E00084F489E492E0FF90EF90DF90CF90BF907D
:1011F000AF909F908F907F906F905F904F900C94E6
:101200004D082FEF3FEF4FE75FECC701B6010E949B
:101210004D1287FDE6CF20E030E0A901C701B601FD
:101220000E944D1287FF11C0E0910F03F09110034F
:101230000190F081E02D6DE28FE093E009954C0183
:10124000F7FAF094F7F8F09402C0812C912CA12CBD
:1012500060E070E080E09FE3AB1441F020E030E01C
:1012600040E251E40E945212A394F6CF9B01AC01DC
:10127000C701B6010E94E1112B013C010E94C4127A
:101280006B017C010E94F3129B01AC01C301B2010E
:101290000E94E0112B013C014AE0C701B6010E9407
:1012A00073087C01E80CF91CBB2031F08DE492E05E
:1012B0000E944D08E80EF91EDB2CDD2021F120E014
:1012C00030E040E251E4C301B2010E94AA132B01B5
:1012D0003C010E94C4124B01A12CB12C4AE0C50173
:1012E000B4010E947308E80EF91EC501B4010E9402
:1012F000F3129B01AC01C301B2010E94E0112B016A
:101300003C01DA94DACFC701FF90EF90DF90CF90E5
:10131000BF90AF909F908F907F906F905F904F9015
:1013200008950C944D08CF92DF92EF92FF92CF93E5
:10133000DF936B017C0197FF1AC0E0910F03F091DE
:1013400010030190F081E02D6DE28FE093E00995AC
:10135000EC0166277727CB016C197D098E099F095F
:101360004AE00E9473087C01EC0EFD1E04C04AE0B6
:101370000E9473087C0187E891E00E944D088E0D61
:101380009F1DDF91CF91FF90EF90DF90CF90089558
:10139000AF92BF92CF92DF92EF92FF920F931F9383
:1013A000CF93DF93A0E0B0E0C0E0D0E0A12CB12C5F
:1013B000C62E40916D0350916E03209173033091BE
:1013C0007403A416B50608F044C01C2D40917203A6
:1013D000442369F0849F80011124D12E749F8001E1
:1013E0001124012F649F700111241F2D02C0072FAB
:1013F000D82E50917803F09075035F1103C02C0F25
:101400003D1F0FC02A0F3B1F7901E50EF11C44233D
:1014100029F0949FA0011124452F01C0492FF70105
:10142000408340917503F901E40FF11DD082409192
:101430007603F901E40FF11D008340917703240F37
:10144000311DF9011083FFEFAF1ABF0A23961496DE
:10145000B0CF232B71F08BE693E0DF91CF911F91FA
:101460000F91FF90EF90DF90CF90BF90AF900C94D2
:101470004605DF91CF911F910F91FF90EF90DF9084
:10148000CF90BF90AF90089520910E0390910D03DF
:10149000213208F046C08091EA028111FCCF32E08F
:1014A0003093EA0231E03093E9023FEF3093E802F3
:1014B0001092E7022093E602ADEEB2E046EC52E075
:1014C000FA013E2F341B321718F43D913193F9CFB6
:1014D0001092C5022091C502990F922B9093C502DC
:1014E0009091C402913041F41092C4029091C502CF
:1014F0009093BB0095EC01C095EE9093BC00909149
:10150000EA029230E1F39091E8029F3F79F08091F6
:10151000E802803241F08091E802803331F084E0CB
:1015200005C081E003C082E001C083E01092EC02BC
:1015300010920E031092EB0208959091EA0291111D
:10154000FCCF91E09093EA029093E9022FEF209371
:10155000E8021092E702280F2093E6029093C5025A
:101560009091C50292639093C5029091C40291300C
:1015700041F41092C4029091C5029093BB0095EC87
:1015800001C095EE9093BC009091EA029130E1F396
:101590009091E702981710F48091E702A6ECB2E070
:1015A00024EA32E0F9019E2F921B981718F49D91BE
:1015B0009193F9CF0895FC018091A302811103C09A
:1015C0008FEF9FEF08959FB7F89482E08093E90032
:1015D0002091F20030E01216130614F421E030E0FE
:1015E0002115310559F0289A84E68093A202809152
:1015F000F10080838091F200882319F09FBFC90118
:1016000008958BE68093E800F9CF8091AB038111B8
:101610000DC082E08093A70384E08093A80310921A
:10162000AA031092A90381E08093AB0387EA93E0B9
:1016300008954091BA035091BB032091B8033091B3
:10164000B90342175307B4F49091E8009570E1F3A1
:101650009091E80092FD19C08093F1008091BA0347
:101660009091BB0301968F739927892B19F48EEF04
:101670008093E8008091BA039091BB030196909308
:10168000BB038093BA0381E0089580E00895DF9260
:10169000EF92FF920F931F93CF93DF93D82E8A017F
:1016A0007B01E40EF51EEB01CE15DF0571F0D7FED0
:1016B00003C0FE01849101C088810E94190B21960C
:1016C0008111F2CF8FEF9FEF01C0C801DF91CF9161
:1016D0001F910F91FF90EF90DF900895615030F0CF
:1016E0002091F100FC0120830196F8CF289A84E62E
:1016F0008093A2020895CF92DF92EF92FF920F9310
:101700001F93CF93DF936C017A018B01C0E0D0E08F
:10171000CE15DF0589F0D8016D918D01D601ED91CF
:10172000FC910190F081E02DC6010995892B11F4FF
:101730007E0102C02196ECCFC701DF91CF911F91AE
:101740000F91FF90EF90DF90CF9008950F931F932C
:10175000CF93DF931F92CDB7DEB782E0898342E457
:1017600050E063E471E080E80E94470B0E94050BA3
:10177000DC0112960D911C9113970115110569F06A
:10178000D801ED91FC910280F381E02DBE016F5FE5
:101790007F4FC801099597FF07C089810F90DF919E
:1017A000CF911F910F910895F80100851185E5CF24
:1017B0001F920F920FB60F9211248F939F938091D7
:1017C000E1009091E100937F9093E10083FF0FC0CF
:1017D0001092E90091E09093EB001092EC0092E3FC
:1017E0009093ED001092A30298E09093F00082FF96
:1017F00020C093E09093E9009091F200992319F0B2
:101800009AE39093E8009091B603992339F0909170
:10181000B60391509093B603992389F19091A20257
:10182000992339F09091A20291509093A2029923AA
:1018300041F184FF10C08091E2008E7E8160809330
:10184000E2008091E1008F7E8093E1008091B503FA
:101850008E7E806111C080FF16C08091E2008E7E76
:1018600080618093E2008091E1008E7E8093E100B0
:101870008091B5038E7E81608093B50304C05D982E
:10188000CDCF2898D6CF9F918F910F900FBE0F90FC
:101890001F9018951F920F920FB60F921124CF929E
:1018A000DF92EF92FF920F931F932F933F934F93EB
:1018B0005F936F937F938F939F93AF93BF93EF93B8
:1018C000FF93CF93DF93CDB7DEB76C97DEBFCDBF6D
:1018D0001092E9008091E80083FFFAC168E0CE0130
:1018E00045960E946E0B82EF8093E8008D8987FFFA
:1018F00005C09091E80090FFFCCF03C09EEF90934D
:10190000E800982F907609F0C6C09E892F89188D1F
:1019100091110CC0803829F48091B4038093F100B8
:1019200002C01092F1001092F10047C1422F50E026
:10193000512B913051F4811140C14130510509F0D2
:101940003CC18091B4038D7F0BC0933061F4811151
:1019500034C14130510509F030C18091B403826037
:101960008093B4032AC1953041F48091E80080FF50
:10197000FCCF20682093E30020C1963009F05FC0BF
:10198000EB8CFC8C1092E9001092BB031092BA030E
:10199000123091F51092B9031092B8030E94A60B71
:1019A00099E0BE016F5F7F4FDB01E92F1D92EA9541
:1019B000E9F799831A8391E09E8390EA98879AEFDA
:1019C00099872091BA033091BB03275F3F4F3C8337
:1019D0002B838D831092E9001092BB031092BA03FF
:1019E000F092B903E092B80349E050E080E00E9431
:1019F000470B0E94A60BE1C0F092B903E092B80336
:101A00000E94050BDC011296ED90FC901397E114F7
:101A1000F10409F4C0C0D701ED91FC910480F58177
:101A2000E02DBE016B5E7F4FC7010995009719F04D
:101A30000CF0C3C0C6C0F701E084F184E8CF973052
:101A400009F4BFC0983021F481E08093F100B5C063
:101A5000993009F0B2C0837009F0B3C0E5E5F1E058
:101A600081E021E036E39081992361F08093E900E1
:101A70002093EB0091919093EC003093ED008F5FF9
:101A8000873089F78EE78093EA001092EA008F8909
:101A90008093A30292C08B8D9C8D1092E9001092CE
:101AA000BB031092BA039093B9038093B803898D56
:101AB000811156C08E899D89913A59F4813209F07D
:101AC00080C047E050E064E071E080E00E94470B96
:101AD00074C0913209F075C0833289F4888D90E02A
:101AE000982F88272F89822BA0E0B0E080930001F7
:101AF00090930101A0930201B09303015EC0803274
:101B000069F48091E80082FFFCCF67E084E091E017
:101B10000E946E0B8BEF8093E80006C0823209F0C2
:101B20004CC08F8980930B018091B303882319F0F7
:101B3000EEEFFAE002C0E0E0F8E08091040190915D
:101B40000501A0910601B0910701803B9440A105D9
:101B5000B10509F088C080910B0180FFA0C083C04F
:101B60000E94050BDC0112960D911C911397011533
:101B7000110539F1D801ED91FC910190F081E02D32
:101B8000BE016B5E7F4FC8010995811116C0F80137
:101B900000851185ECCF1130C1F0133091F48F899D
:101BA000882309F455C08230E9F440E865E082E911
:101BB00091E00E949D11882321F08EEF8093E80030
:101BC00087C081E28093EB0083C08B8D9C8D08974A
:101BD00011F41093B7038091B703811136C068E9FF
:101BE00071E038C0813029F440E868E089E891E08C
:101BF000E0CF833031F70E94050BDC011296ED90A7
:101C0000FC9013978E010F5F1F4F6801E114F104E0
:101C100079F0D701ED91FC910680F781E02DB801B4
:101C2000C7010995080F111DF701E084F184EECF7B
:101C3000D8011C92F60101900020E9F73197BF010D
:101C40006C197D0940E0C601B4CF6AEA71E002C0B8
:101C500065E871E06115710509F4B3CFFB014491AA
:101C600050E080E833CF0FB6F894A89580916000DB
:101C7000886180936000109260000FBEA895EE3FCF
:101C80002AE0F20739F08091FE0A9091FF0A9183D1
:101C9000808393CF1092FF0A1092FE0A8ECFEE3F00
:101CA0008AE0F80731F0808191819093FF0A809358
:101CB000FE0A87E797E7918380839BE088E10FB670
:101CC000F894A895809360000FBE9093600075CF44
:101CD0006C960FB6F894DEBF0FBECDBFDF91CF91EB
:101CE000FF91EF91BF91AF919F918F917F916F91F4
:101CF0005F914F913F912F911F910F91FF90EF9026
:101D0000DF90CF900F900FBE0F901F90189580918D
:101D1000730390917403009711F00E94B1148091A5
:101D2000710387FD03C060E00C945B030895CF93BB
:101D3000DF93CDB7DEB7AC970FB6F894DEBF0FBE1A
:101D4000CDBF789484B5826084BD84B5816084BD44
:101D500085B5826085BD85B5816085BD80916E0049
:101D6000816080936E00109281008091810082607A
:101D700080938100809181008160809381008091B7
:101D800080008160809380008091910082608093C8
:101D900091008091910081608093910080919000EA
:101DA0008160809390008091C10084608093C10025
:101DB0008091C10082608093C1008091C1008160E8
:101DC0008093C1008091C30081608093C3008091A3
:101DD000C00082608093C0008091C20081608093C7
:101DE000C20080917A00846080937A0080917A00AA
:101DF000826080937A0080917A008E7F80937A004F
:101E000080917A00806880937A001092A3021092E9
:101E1000B4031092B5038091D70081608093D700FE
:101E200080EA8093D80089B58F7E89BD89B58260AC
:101E300089BD09B400FEFDCF61E070E080E090E074
:101E40000E9497038091D8008F7C80618093D80096
:101E50008091E000807F8093E0008091E1008E7EA1
:101E60008093E1008DE08093E200559A209AEEEF96
:101E7000FFE7859194918B3F9C4D19F481E080930D
:101E8000B3038091710387FD08C061E00E945B038A
:101E900060E0809171030E94F80281E080936C03FE
:101EA0008091730390917403892B21F08BE693E06A
:101EB0000E9446058FEF9FEF90931C0380931B03B6
:101EC00082E691E00E94650889E891E00E94650839
:101ED0001092A1021092A0021092EC0210920E0336
:101EE0001092EA0211E01093E9021092C40261E03C
:101EF00082E00E94F80261E083E00E94F802809193
:101F0000B9008E7F8093B9008091B9008D7F809356
:101F1000B90080E28093B80085E48093BC00109300
:101F2000EB0209E100930D031092EC0210920E03F4
:101F300060E28FE593E00E94A20167E58FE593E000
:101F40000E94A2010E94440A1093EB0200930D0329
:101F50001092EC0210920E0360E28FE593E00E9473
:101F6000A2010E94440A81E00E949D0A1092A102EF
:101F70008093A0028FE593E00E944901182F0E94F0
:101F8000440A173509F025C160E070E08FEF90E05A
:101F90000E94C809BE016F5F7F4F8AE993E00E94EB
:101FA000CD018AE891E00E9465088FEA91E00E94E5
:101FB0009109CE0101960E9465088EEB91E00E9486
:101FC00091096D857E858F8598890E9493098DEC96
:101FD00091E00E94910969897A898B899C890E9484
:101FE00093098CED91E00E949109698D7A8D8B8D1A
:101FF0009C8D42E00E94B4088BEE91E00E9465083F
:1020000082EF91E00E9491096D8D7E8D8F8D98A158
:1020100042E00E94B4088BEE91E00E94650881E0E6
:1020200092E00E94910969A17AA18BA19CA142E052
:102030000E94B4088BEE91E00E9465088AE891E066
:102040000E94650889E891E00E94650864EF71E0EC
:1020500080E090E00E94970360ED77E080E090E000
:102060000E94970384E3482E88E0582E612C712C3F
:1020700000E010E0BE016F5F7F4F8AE993E00E94AD
:102080000A0220919D0330919E03C901330FAA0BD0
:10209000BB0B9C01AD01265E3B4F4F4F5F4FAFEF37
:1020A000B0E00E947C15A30192010E945D156901B8
:1020B0007A0120919F033091A003C901330FAA0B2D
:1020C000BB0B9C01AD01265E3B4F4F4F5F4FAFEF07
:1020D000B0E00E947C15A30192010E945D154901A8
:1020E0005A012091A1033091A203C901330FAA0B19
:1020F000BB0B9C01AD01265E3B4F4F4F5F4FAFEFD7
:10210000B0E00E947C15A30192010E945D1529A7F1
:102110003AA74BA75CA785E791E00E949109992413
:10212000AA24BB244AE0C501B4010E9473088CEBC9
:1021300091E00E9491098AE791E00E94910929A506
:102140003AA54BA55CA533274427552729A73AA7CD
:102150004BA75CA74AE069A57AA58BA59CA50E9420
:1021600073088CEB91E00E94910981E891E00E9454
:102170009109DD24EE24FF244AE0C701B6010E9444
:10218000730887E891E00E944D085401992488243F
:1021900029A53AA54BA55CA5B42FA32F922F88277C
:1021A000882A992AAA2ABB2AC501B4016C297D294B
:1021B0008E299F290E94C80964EF71E080E090E0B9
:1021C0000E9497030115110509F454CF0E940000E5
:1021D00051CF80E192E00E946508FFCF1092120378
:1021E0001092110388EE93E0A0E0B0E08093130317
:1021F00090931403A0931503B09316032AE131E0E2
:102200003093100320930F032FEF3FEF30931C0305
:1022100020931B0310926203109261038093630367
:1022200090936403A0936503B09366038AE291E000
:102230009093600380935F038AE391E090939B0304
:1022400080939A0381E394EDA0E0B0E08093A30330
:102250009093A403A093A503B093A60310929E03AA
:1022600010929D031092A00310929F031092A2035C
:102270001092A10310926C031092720310927903D2
:1022800010927A0310927B0310927C0381E080937A
:102290007803809375031092760392E0909377030E
:1022A00080936B0388E190E09093700380936F03B9
:1022B0000E941C149093740380937303009761F041
:1022C00028E1FC0111922A95E9F788E090E09093CB
:1022D0006E0380936D0308C01092700310926F0319
:1022E00010926E0310926D0386E0809371038091CB
:1022F0006C03882341F061E086E00E945B0360E0AC
:1023000086E00E94F802EAE2F1E0E491F0E0EE0FEC
:10231000FF1FEA5EFE4F8591949190937E03809318
:102320007D03EDEFF0E0E491E0937F038BEC91E02F
:1023300090939903809398030895CF92DF92EF9240
:10234000FF920F931F93CF93DF931F92CDB7DEB70A
:10235000182F062FE42E862F880F8E5F99830E94F8
:10236000190B83E00E94190BF12EC12E9981D92EF1
:102370008C2D8F19801798F4F601E7FE02C0849126
:1023800001C080810E94190B182F80E00E94190B58
:102390008123FFEFCF1ADF0A8111EACF01C081E06C
:1023A0000F90DF91CF911F910F91FF90EF90DF90F1
:1023B000CF900895EE0FFF1F0590F491E02D099442
:1023C0005058BB27AA270E94F8110C946B130E9447
:1023D0005D1338F00E94641320F039F49F3F19F424
:1023E00026F40C945A130EF4E095E7FB0C94541366
:1023F000E92F0E947C1358F3BA176207730784070A
:10240000950720F079F4A6F50C949E130EF4E09550
:102410000B2EBA2FA02D0B01B90190010C01CA019E
:10242000A0011124FF27591B99F0593F50F4503E49
:1024300068F11A16F040A22F232F342F4427585F3B
:10244000F3CF469537952795A795F0405395C9F753
:102450007EF41F16BA0B620B730B840BBAF091500B
:10246000A1F0FF0FBB1F661F771F881FC2F70EC0AA
:10247000BA0F621F731F841F48F48795779567957D
:10248000B795F7959E3F08F0B0CF9395880F08F069
:102490009927EE0F9795879508950E94301308F4B9
:1024A00081E008950E9466120C946B130E946413DD
:1024B00058F00E945D1340F029F45F3F29F00C941E
:1024C000541351110C949F130C945A130E947C13B3
:1024D00068F39923B1F3552391F3951B550BBB2753
:1024E000AA2762177307840738F09F5F5F4F220F98
:1024F000331F441FAA1FA9F335D00E2E3AF0E0E88F
:1025000032D091505040E695001CCAF72BD0FE2FD8
:1025100029D0660F771F881FBB1F2617370748076C
:10252000AB07B0E809F0BB0B802DBF01FF27935824
:102530005F4F3AF09E3F510578F00C9454130C9481
:102540009F135F3FE4F3983ED4F3869577956795A4
:10255000B795F7959F5FC9F7880F911D9695879559
:1025600097F90895E1E0660F771F881FBB1F621778
:1025700073078407BA0720F0621B730B840BBA0B36
:10258000EE1F88F7E09508950E94841388F09F5706
:1025900098F0B92F9927B751B0F0E1F0660F771F87
:1025A000881F991F1AF0BA95C9F714C0B13091F07D
:1025B0000E949E13B1E008950C949E13672F782F0C
:1025C0008827B85F39F0B93FCCF386957795679542
:1025D000B395D9F73EF490958095709561957F4FAE
:1025E0008F4F9F4F0895E89409C097FB3EF4909554
:1025F0008095709561957F4F8F4F9F4F9923A9F0DC
:10260000F92F96E9BB279395F6958795779567956A
:10261000B795F111F8CFFAF4BB0F11F460FF1BC0AE
:102620006F5F7F4F8F4F9F4F16C0882311F096E941
:1026300011C0772321F09EE8872F762F05C06623EF
:1026400071F096E8862F70E060E02AF09A95660FA8
:10265000771F881FDAF7880F9695879597F9089561
:10266000990F0008550FAA0BE0E8FEEF16161706A3
:10267000E807F907C0F012161306E407F50798F00B
:10268000621B730B840B950B39F40A2661F0232B24
:10269000242B252B21F408950A2609F4A140A695A0
:1026A0008FEF811D811D089597F99F6780E870E085
:1026B00060E008959FEF80EC089500240A941616B8
:1026C000170618060906089500240A941216130620
:1026D000140605060895092E0394000C11F48823AE
:1026E00052F0BB0F40F4BF2B11F460FF04C06F5FCA
:1026F0007F4F8F4F9F4F089557FD9058440F551FA0
:1027000059F05F3F71F04795880F97FB991F61F073
:102710009F3F79F087950895121613061406551FEA
:10272000F2CF4695F1DF08C0161617061806991F56
:10273000F1CF86957105610508940895E894BB274B
:1027400066277727CB0197F908950E94301308F484
:102750008FEF08950E94BD130C946B130E945D13BC
:1027600038F00E94641320F0952311F00C94541358
:102770000C945A1311240C949F130E947C1370F331
:10278000959FC1F3950F50E0551F629FF001729F16
:10279000BB27F00DB11D639FAA27F00DB11DAA1F25
:1027A000649F6627B00DA11D661F829F2227B00D72
:1027B000A11D621F739FB00DA11D621F839FA00DFD
:1027C000611D221F749F3327A00D611D231F849F4D
:1027D000600D211D822F762F6A2F11249F575040A4
:1027E0009AF0F1F088234AF0EE0FFF1FBB1F661F1F
:1027F000771F881F91505040A9F79E3F510580F0E8
:102800000C9454130C949F135F3FE4F3983ED4F35D
:10281000869577956795B795F795E7959F5FC1F78B
:10282000FE2B880F911D9695879597F908950E9424
:102830003013880B990B0895CF93DF938230910565
:1028400010F482E090E0E091BE03F091BF0320E03D
:1028500030E0C0E0D0E0309711F14081518148175D
:102860005907C0F04817590761F482819381209776
:1028700019F09B838A832BC09093BF038093BE0380
:1028800026C02115310519F04217530718F49A0193
:10289000BE01DF01EF010280F381E02DDCCF2115C5
:1028A000310509F1281B390B2430310590F41296BB
:1028B0008D919C9113976115710521F0FB01938314
:1028C000828304C09093BF038093BE03FD013296C0
:1028D00044C0FD01E20FF31F81939193225031090F
:1028E0002D933C933AC02091BC033091BD03232B20
:1028F00041F420910E0130910F013093BD032093DC
:10290000BC0320910C0130910D012115310541F4DA
:102910002DB73EB74091100150911101241B350B8A
:10292000E091BC03F091BD03E217F307A0F42E1B66
:102930003F0B2817390778F0AC014E5F5F4F241723
:10294000350748F04E0F5F1F5093BD034093BC0303
:102950008193919302C0E0E0F0E0CF01DF91CF914D
:1029600008950F931F93CF93DF93009709F48CC0C2
:10297000FC013297138212820091BE031091BF03B3
:102980000115110581F420813181820F931F20915F
:10299000BC033091BD032817390779F5F093BD03C7
:1029A000E093BC0371C0D80140E050E0AE17BF0710
:1029B00050F412962D913C911397AD0121153105DC
:1029C00009F1D901F3CF9D01DA01338322836081BC
:1029D0007181860F971F8217930769F4EC01288194
:1029E0003981260F371F2E5F3F4F318320838A8125
:1029F0009B8193838283452B29F4F093BF03E0935B
:102A0000BE0342C01396FC93EE931297ED014991D9
:102A100059919E01240F351FE217F30771F480814D
:102A20009181840F951F029611969C938E938281BB
:102A3000938113969C938E931297E0E0F0E0D80177
:102A400012968D919C911397009719F0F8018C01C3
:102A5000F6CF8D919C9198012E5F3F4F820F931F6F
:102A60002091BC033091BD032817390769F43097D2
:102A700029F41092BF031092BE0302C01382128287
:102A80001093BD030093BC03DF91CF911F910F9171
:102A9000089581E090E0F8940C94B815FB01DC01F6
:102AA0004150504048F001900D920020C9F701C0FC
:102AB0001D9241505040E0F70895052E97FB1EF4FB
:102AC00000940E94741557FD07D00E94871507FCDB
:102AD00003D04EF40C947415509540953095219583
:102AE0003F4F4F4F5F4F089590958095709561953A
:102AF0007F4F8F4F9F4F08950E94A915A59F900D5E
:102B0000B49F900DA49F800D911D11240895A1E202
:102B10001A2EAA1BBB1BFD010DC0AA1FBB1FEE1F57
:102B2000FF1FA217B307E407F50720F0A21BB30BA2
:102B3000E40BF50B661F771F881F991F1A9469F71E
:102B400060957095809590959B01AC01BD01CF017A
:102B50000895A29FB001B39FC001A39F700D811D76
:102B60001124911DB29F700D811D1124911D089596
:102B700010E0CFEDD0E004C0FE010E94DA112196F2
:0A2B8000C03ED107C9F7F894FFCF5B
:102B8A00FFFFFFFF00E10000000000000000C0039B
:102B9A008000010000000000000042077D07630773
:102BAA0009082708580700000000A20165015D0115
:102BBA0049013A013901000000004107F602CC013F
:102BCA000A02CD010000000000000000CC014B0801
:102BDA004B08060000C180810000004C534D333081
:102BEA003300416363656C65726F6D65746572204D
:102BFA0054657374005265643D00477265656E3DA5
:102C0A0000426C75653D000D0A002D2D2D2D2D2DD0
:102C1A002D2D2D2D2D2D2D2D2D2D2D2D2D2D2D2DDA
:102C2A002D2D2D2D2D2D2D2D2D2D2D2D2D2D0053D1
:102C3A00656E736F723A2020202020202000447293
:102C4A0069766572205665723A20202000556E69B1
:102C5A007175652049443A20202020004D61782072
:102C6A0056616C75653A2020202000206D2F735E16
:102C7A0032004D696E2056616C75653A202020201D
:102C8A00005265736F6C7574696F6E3A202020006C
:102C9A004F6F6F70732C206E6F204C534D3330334F
:102CAA00206465746563746564202E2E2E20436843
:102CBA0065636B20796F757220776972696E672117
:102CCA00006E616E00696E66006F7666002E000007
:00000001FF
