:100000000C94E0000C9408010C9408010C94080175
:100010000C9408010C9408010C9408010C9408013C
:100020000C9408010C9408010C947A090C94F505C1
:100030000C9408010C9408010C9408010C9408011C
:100040000C9408010C9408010C9408010C9408010C
:100050000C9408010C9408010C9408010C94AF0452
:100060000C9408010C9408010C9408010C940801EC
:100070000C9408010C9408010C9408010C940801DC
:100080000C9408010C9408010C9408010C940801CC
:100090000C9408010C9408010C9408010C940801BC
:1000A0000C9408010C9408010C9408015E08610886
:1000B00050085408580882088208820865086908B0
:1000C0006D087308770882087D080000000024008E
:1000D00027002A002D003000080B00020202010058
:1000E000090400000102020000052400100105249B
:1000F000010101042402060524060001070581030D
:1001000010004009040100020A0000000705020275
:100110004000000705830240000004030904416415
:1001200061667275697400466C6F7261001201003D
:1001300002000000409A2304800001010203011222
:10014000010002EF0201409A230480000101020332
:10015000010000000200090F0000030401000C0070
:10016000000000000000000000000000000000008F
:1001700004080201104080401020408040800802A6
:100180000401804020100201108010204040200017
:10019000000000250028002B002E0031000404047C
:1001A000040403040502020202040302020202061E
:1001B000060606060604040202020404BB0DAB0D8B
:1001C00011241FBECFEFDAE0DEBFCDBF11E0A0E00B
:1001D000B1E0E8E6FFE102C005900D92AE33B10751
:1001E000D9F721E0AEE3B1E001C01D92A13EB20714
:1001F000E1F710E0CFEDD0E004C02197FE010E94AE
:100200006F0ECE3DD107C9F70E94EC090C94A70FE1
:100210000C940000CF93DF931F92CDB7DEB76983B4
:10022000DC01ED91FC910280F381E02D41E050E092
:10023000BE016F5F7F4F09950F90DF91CF910895B9
:1002400083E08093E9008091F200882319F08AE32B
:100250008093E8000895FC018485958597FD0BC087
:100260009FB7F89482E08093E9008091F2009FBFED
:1002700090E0019608959FB7F89482E08093E9009A
:100280008091F2009FBF90E008953FB7F89480916D
:100290003F0190914001A0914101B091420126B5EA
:1002A000A89B05C02F3F19F00196A11DB11D3FBFAE
:1002B000BA2FA92F982F8827820F911DA11DB11D3C
:1002C000BC01CD0143E0660F771F881F991F4A9537
:1002D000D1F708958F929F92AF92BF92CF92DF9203
:1002E000EF92FF926B017C010E9445014B015C0182
:1002F000C114D104E104F104F1F00E944501DC01D4
:10030000CB0188199909AA09BB09883E9340A10528
:10031000B10570F321E0C21AD108E108F10888EEB6
:10032000880E83E0981EA11CB11CC114D104E10405
:10033000F10419F7DDCFFF90EF90DF90CF90BF90E1
:10034000AF909F908F9008958F929F92AF92BF929F
:10035000CF92DF92EF92FF920F931F93CF93DF9391
:100360005C016B018A0180910B01882309F45EC056
:1003700080915101882309F459C080914E0180FF7A
:1003800005C08091E00082608093E000E8018AEF80
:10039000F82E93E0E92E2FE3822E3AE3932E209756
:1003A00009F43DC08FB7F894E092E9009091E8001D
:1003B00095FF06C09091F200282D291B922F01C0B5
:1003C00090E08FBF91110AC0FA94FF2079F161E0AB
:1003D00070E080E090E00E946A01E1CF292F30E0D8
:1003E000C217D3070CF49C2F8FB7F894E092E90062
:1003F0002091E80025FF11C0292F30E0C21BD30B4C
:10040000F601915020F041914093F100FACFC20ED5
:10041000D31E9091E80095FF13C08FBFC0CF5D9AA7
:1004200084E680934F011016110644F081E090E0BD
:10043000F5019383828380E090E005C0C80103C08A
:100440009092E800EACFDF91CF911F910F91FF903A
:10045000EF90DF90CF90BF90AF909F908F900895D6
:10046000CF92DF92EF92FF920F931F93CF93DF9380
:10047000CDB7DEB729970FB6F894DEBF0FBECDBF5C
:100480008C01DC0118968D919C911997892B09F4A8
:10049000D8C10E944501F801C684D784E088F1885C
:1004A000DC01CB018C199D09AE09BF09C297A105DA
:1004B000B10578F3F894848195819A838983A08526
:1004C000B1857D01EFEFEE1AFE0A8C918987D80184
:1004D0008C9152960D90BC91A02D882309F477C180
:1004E0001B82AB32B10509F059C09BB1F801848978
:1004F000982B98879BB1809589238F838F818C83DC
:10050000898587FF02C088858C8358856F814985DE
:100510003C812B8189819A81D7015BB9262F3BB918
:1005200000C046FD252F6BB900C05BB9362F2BB933
:1005300000C045FD352F6BB900C05BB9262F3BB914
:1005400000C044FD252F6BB900C05BB9362F2BB915
:1005500000C043FD352F6BB900C05BB9262F3BB9F6
:1005600000C042FD252F6BB900C05BB9362F2BB9F7
:1005700000C041FD352F6BB900C05BB9262F3BB9D8
:1005800000C040FD252F6BB901975BB9362F2BB901
:100590004D9147FD352F6BB901F615C1A532B10557
:1005A00009F059C095B1F8018489982B988795B1C5
:1005B000809589238F838F818C83898587FF02C0F3
:1005C00088858C8358856F8149853C812B81898101
:1005D0009A81D70155B9262F35B900C046FD252F80
:1005E00065B900C055B9362F25B900C045FD352F76
:1005F00065B900C055B9262F35B900C044FD252F77
:1006000065B900C055B9362F25B900C043FD352F57
:1006100065B900C055B9262F35B900C042FD252F58
:1006200065B900C055B9362F25B900C041FD352F39
:1006300065B900C055B9262F35B900C040FD252F3A
:1006400065B9019755B9362F25B94D9147FD352F1D
:1006500065B901F6B8C0A832B10509F059C098B122
:10066000F8018489982B988798B1809589238F8386
:100670008F818C83898587FF02C088858C8358850C
:100680006F8149853C812B8189819A81D70158B935
:10069000262F38B900C046FD252F68B900C058B9CB
:1006A000362F28B900C045FD352F68B900C058B9AC
:1006B000262F38B900C044FD252F68B900C058B9AD
:1006C000362F28B900C043FD352F68B900C058B98E
:1006D000262F38B900C042FD252F68B900C058B98F
:1006E000362F28B900C041FD352F68B900C058B970
:1006F000262F38B900C040FD252F68B9019758B999
:10070000362F28B94D9147FD352F68B901F65BC0EA
:10071000D19709F08CC091B3F8018489982B988700
:1007200091B3809589238F838F818C83898587FFFF
:1007300002C088858C8358856F8149853C812B81D7
:1007400089819A81D70151BB262F31BB00C046FD5C
:10075000252F61BB00C051BB362F21BB00C045FD1A
:10076000352F61BB00C051BB262F31BB00C044FDFB
:10077000252F61BB00C051BB362F21BB00C043FDFC
:10078000352F61BB00C051BB262F31BB00C042FDDD
:10079000252F61BB00C051BB362F21BB00C041FDDE
:1007A000352F61BB00C051BB262F31BB00C040FDBF
:1007B000252F61BB019751BB362F21BB4D9147FDC2
:1007C000352F61BB01F649873C832B832EC09C915A
:1007D000F8018489982B98879C91809589238F8331
:1007E0008F818E8388E08D8358856F8149853D8117
:1007F0002E8189819A81F7015C9347FD252F2C93E7
:10080000262F3A9531F0441F6C9300C000C000C001
:10081000F3CF6C93000038E04191019769F7F8013C
:10082000B38BA28B49873D832E839A8389837894E7
:100830000E944501D8011E966D937D938D939C93E4
:10084000519729960FB6F894DEBF0FBECDBFDF914A
:10085000CF911F910F91FF90EF90DF90CF9008956F
:100860000895CF93DF931F92CDB7DEB7FC01848547
:10087000958597FD05C02FEF3FEF358724870BC087
:10088000CE0101960E943C09019719F4898190E0FC
:1008900002C08FEF9FEF0F90DF91CF9108950F93DC
:1008A0001F93CF93DF931F92CDB7DEB78C01FC016E
:1008B0008485958597FF0EC0CE0101960E943C0964
:1008C000019719F4298130E002C02FEF3FEFF801C2
:1008D00035872487F801848595850F90DF91CF9126
:1008E0001F910F910895CF93DF9390E0FC01E059A1
:1008F000FE4F2491FC01E356FE4F8491882361F161
:1009000090E0880F991FFC01E653FF4FC591D491E9
:10091000FC01E157FE4FA591B491611109C09FB749
:10092000F8948881209582238883EC912E230BC034
:10093000623061F49FB7F8943881822F80958323C9
:100940008883EC912E2B2C939FBF06C08FB7F89411
:10095000E8812E2B28838FBFDF91CF9108951F92BE
:100960000F920FB60F9211242F933F938F939F9363
:10097000AF93BF938091430190914401A0914501B1
:10098000B091460130913E0126E0230F2D3720F42F
:100990000296A11DB11D05C029E8230F0396A11DD4
:1009A000B11D20933E018093430190934401A09395
:1009B0004501B093460180913F0190914001A09183
:1009C0004101B09142010196A11DB11D80933F01EB
:1009D00090934001A0934101B0934201BF91AF9128
:1009E0009F918F913F912F910F900FBE0F901F906D
:1009F000189540914C0150914D0120914A01309140
:100A00004B0142175307B4F49091E8009570E1F35D
:100A10009091E80092FD19C08093F10080914C0103
:100A200090914D0101968F739927892B19F48EEFC0
:100A30008093E80080914C0190914D010196909334
:100A40004D0180934C0181E0089580E00895CF929C
:100A5000DF92EF92FF920F931F93CF93DF931F923A
:100A6000CDB7DEB7182F062FE42E862F880F8E5FA6
:100A700099830E94F90483E00E94F904F12EC12EAB
:100A80009981D92E8C2D8F19801798F4F601E7FEE5
:100A900002C0849101C080810E94F904182F80E077
:100AA0000E94F9048123FFEFCF1ADF0A8111EACFF8
:100AB00001C081E00F90DF91CF911F910F91FF90C6
:100AC000EF90DF90CF900895DF92EF92FF920F9317
:100AD0001F93CF93DF93D82E8A017B01E40EF51E7E
:100AE000EB01CE15DF0571F0D7FE03C0FE01849146
:100AF00001C088810E94F90421968111F2CF8FEF05
:100B00009FEF01C0C801DF91CF911F910F91FF901E
:100B1000EF90DF900895615030F02091F100FC01DA
:100B200020830196F8CF289A84E680935001089597
:100B3000CF92DF92EF92FF920F931F93CF93DF93A9
:100B40006C017A018B01C0E0D0E0CE15DF0589F0A1
:100B5000D8016D918D01D601ED91FC910190F0814C
:100B6000E02DC6010995892B11F47E0102C0219662
:100B7000ECCFC701DF91CF911F910F91FF90EF90C4
:100B8000DF90CF9008950F931F93CF93DF931F9221
:100B9000CDB7DEB782E0898342E450E068ED70E0D3
:100BA00080E80E9464050E946609DC0112960D919E
:100BB0001C9113970115110569F0D801ED91FC9175
:100BC0000280F381E02DBE016F5F7F4FC801099560
:100BD00097FF07C089810F90DF91CF911F910F91EF
:100BE0000895F80100851185E5CF1F920F920FB689
:100BF0000F921124CF92DF92EF92FF920F931F93E7
:100C00002F933F934F935F936F937F938F939F9314
:100C1000AF93BF93EF93FF93CF93DF93CDB7DEB73F
:100C20006C97DEBFCDBF1092E9008091E80083FF92
:100C3000FAC168E0CE0145960E948B0582EF809351
:100C4000E8008D8987FF05C09091E80090FFFCCFF8
:100C500003C09EEF9093E800982F907609F0C6C0ED
:100C60009E892F89188D91110CC0803829F48091AC
:100C700048018093F10002C01092F1001092F1003F
:100C800047C1422F50E0512B913051F4811140C1A6
:100C90004130510509F03CC1809148018D7F0BC066
:100CA000933061F4811134C14130510509F030C1F4
:100CB000809148018260809348012AC1953041F4B7
:100CC0008091E80080FFFCCF20682093E30020C1E2
:100CD000963009F05FC0EB8CFC8C1092E90010920A
:100CE0004D0110924C01123091F510924B0110926F
:100CF0004A010E94C30599E0BE016F5F7F4FDB018F
:100D0000E92F1D92EA95E9F799831A8391E09E8372
:100D100090EA98879AEF998720914C0130914D0184
:100D2000275F3F4F3C832B838D831092E900109205
:100D30004D0110924C01F0924B01E0924A0149E0C2
:100D400050E080E00E9464050E94C305E1C0F0927B
:100D50004B01E0924A010E946609DC011296ED9077
:100D6000FC901397E114F10409F4C0C0D701ED9190
:100D7000FC910480F581E02DBE016B5E7F4FC701C1
:100D80000995009719F00CF0C3C0C6C0F701E084C4
:100D9000F184E8CF973009F4BFC0983021F481E0A6
:100DA0008093F100B5C0993009F0B2C0837009F0AA
:100DB000B3C0E3E1F1E081E021E036E390819923E3
:100DC00061F08093E9002093EB0091919093EC0007
:100DD0003093ED008F5F873089F78EE78093EA00CC
:100DE0001092EA008F898093510192C08B8D9C8D67
:100DF0001092E90010924D0110924C0190934B011A
:100E000080934A01898D811156C08E899D89913ABE
:100E100059F4813209F080C047E050E064E071E0AD
:100E200080E00E94640574C0913209F075C083327D
:100E300089F4888D90E0982F88272F89822BA0E055
:100E4000B0E08093000190930101A0930201B09360
:100E500003015EC0803269F48091E80082FFFCCF1C
:100E600067E084E091E00E948B058BEF8093E800BF
:100E700006C0823209F04CC08F8980930B018091AB
:100E80004701882319F0EEEFFAE002C0E0E0F8E055
:100E90008091040190910501A0910601B091070194
:100EA000803B9440A105B10509F088C080910B01F9
:100EB00080FFA0C083C00E946609DC0112960D91DC
:100EC0001C9113970115110539F1D801ED91FC9191
:100ED0000190F081E02DBE016B5E7F4FC801099546
:100EE000811116C0F80100851185ECCF1130C1F0D9
:100EF000133091F48F89882309F455C08230E9F4C6
:100F000040E865E087E291E00E942705882321F010
:100F10008EEF8093E80087C081E28093EB0083C06E
:100F20008B8D9C8D089711F4109349018091490194
:100F3000811136C06DE271E038C0813029F440E89B
:100F400068E08EE191E0E0CF833031F70E946609DE
:100F5000DC011296ED90FC9013978E010F5F1F4FEE
:100F60006801E114F10479F0D701ED91FC9106805C
:100F7000F781E02DB801C7010995080F111DF70190
:100F8000E084F184EECFD8011C92F601019000209C
:100F9000E9F73197BF016C197D0940E0C601B4CF74
:100FA0006FE371E002C06AE171E06115710509F457
:100FB000B3CFFB01449150E080E833CF0FB6F894F3
:100FC000A895809160008861809360001092600015
:100FD0000FBEA895EE3F2AE0F20739F08091FE0A95
:100FE0009091FF0A9183808393CF1092FF0A109211
:100FF000FE0A8ECFEE3F8AE0F80731F080819181C2
:101000009093FF0A8093FE0A87E797E79183808396
:101010009BE088E10FB6F894A895809360000FBE1E
:101020009093600075CF6C960FB6F894DEBF0FBE3C
:10103000CDBFDF91CF91FF91EF91BF91AF919F9184
:101040008F917F916F915F914F913F912F911F9160
:101050000F91FF90EF90DF90CF900F900FBE0F9009
:101060001F9018950E94A20F90E0FC01EF5AFE4FCE
:101070004491FC01E059FE4F2491FC01E356FE4FE0
:101080008491882309F44DC04423E1F150E0FA0132
:101090003197EF30F105B0F5EA5AFF4F0C946F0E1F
:1010A000909180009F7707C0909180009F7D03C042
:1010B00090918000977F9093800024C094B59F7793
:1010C00002C094B59F7D94BD1DC0909190009F7704
:1010D00007C0909190009F7D03C090919000977FF2
:1010E000909390000FC09091C0009F7703C09091A3
:1010F000C0009F7D9093C00005C09091C200977F73
:101100009093C200E82FF0E0EE0FFF1FE157FE4F73
:10111000A591B4918FB7F894EC9120952E232C9340
:101120008FBF0895BC01009791F0FC010190002051
:10113000E9F73197AF01481B590BE0915201F0914B
:1011400053010280F381E02D82E591E0099480E073
:1011500090E008952091B9013091BA018091CD01BC
:101160009091CE01232BB9F401969093CE018093F8
:10117000CD012091CB013091CC012817390780F4A3
:101180001092CE011092CD01E091CF01F091D001EB
:10119000309731F0099401979093CE018093CD015F
:1011A00008958F929F92AF92BF92CF92DF92EF926B
:1011B000FF922091A4013091A5018217930708F0B6
:1011C00052C04B01AA24BB24E82DC52ED62EE72EF3
:1011D000FF24FC2D342F2091A901222361F0829E4F
:1011E00040011124E92DC29E60011124FD2D429F72
:1011F000D00111243B2FF090AF01E090AC01A09101
:10120000AA01B091AB01FE1008C0AC01440F551FFC
:10121000840F951F8A0F9B1F14C0880F991F880F7A
:10122000991F8A0F9B1F472F552766277727DC01B9
:10123000AF0DB11D222321F0429FA0011124452FA3
:101240004C932091AC01DC01A20FB11DEC932091D5
:10125000AD01DC01A20FB11DFC932091AE01FC0198
:10126000E20FF11D3083FF90EF90DF90CF90BF90A1
:10127000AF909F908F900895FC0180915101811152
:1012800003C08FEF9FEF08959FB7F89482E080939B
:10129000E9002091F20030E01216130614F421E068
:1012A00030E02115310559F0289A84E680935001E9
:1012B0008091F10080838091F200882319F09FBF14
:1012C000C90108958BE68093E800F9CF8091D5019C
:1012D00081110DC082E08093D10184E08093D2011E
:1012E0001092D4011092D30181E08093D50181ED59
:1012F00091E008951F920F920FB60F9211248F93D1
:101300009F938091E1009091E100937F9093E100A1
:1013100083FF0FC01092E90091E09093EB001092D0
:10132000EC0092E39093ED001092510198E09093BD
:10133000F00082FF20C093E09093E9009091F200CA
:10134000992319F09AE39093E80090914F01992323
:1013500039F090914F01915090934F01992389F169
:1013600090915001992339F09091500191509093B0
:101370005001992341F184FF10C08091E2008E7EDC
:1013800081608093E2008091E1008F7E8093E10094
:1013900080914E018E7E806111C080FF16C08091C9
:1013A000E2008E7E80618093E2008091E1008E7E7B
:1013B0008093E10080914E018E7E816080934E018A
:1013C00004C05D98CDCF2898D6CF9F918F910F9074
:1013D0000FBE0F901F901895CF93DF93CDB7DEB758
:1013E000A5970FB6F894DEBF0FBECDBF789484B535
:1013F000826084BD84B5816084BD85B5826085BD11
:1014000085B5816085BD80916E00816080936E009E
:101410001092810080918100826080938100809190
:101420008100816080938100809180008160809341
:101430008000809191008260809391008091910062
:1014400081608093910080919000816080939000F2
:101450008091C10084608093C1008091C10082604E
:101460008093C1008091C10081608093C100809110
:10147000C30081608093C3008091C000826080932C
:10148000C0008091C20081608093C20080917A0088
:10149000846080937A0080917A00826080937A00E1
:1014A00080917A008E7F80937A0080917A008068A4
:1014B00080937A00109251011092480110924E01CF
:1014C0008091D70081608093D70080EA8093D80014
:1014D00089B58F7E89BD89B5826089BD09B400FE5A
:1014E000FDCF61E070E080E090E00E946A018091B1
:1014F000D8008F7C80618093D8008091E000807F4D
:101500008093E0008091E1008E7E8093E1008DE089
:101510008093E200559A209AEEEFFFE7859194912F
:101520008B3F9C4D19F481E0809347018FEF9FEF33
:1015300090935F0180935E018091A80187FD07C0B1
:1015400061E00E9473048091A8010E94340881E048
:101550008093A30182EA91E00E94300283E090E050
:101560009093B8018093B70114EF612E77247394A0
:10157000812C912C6092BB017092BC018092BD01C4
:101580009092BE018091A4019091A5019093CC010D
:101590008093CB0180E890E0DC018093C3019093BD
:1015A000C401A093C501B093C6011092CE01109260
:1015B000CD011092BA011092B9012091CD01309164
:1015C000CE018091CB019091CC012817390708F00A
:1015D0008DC22FB7F8948091430190914401A0915E
:1015E0004501B09146012FBF4091BF015091C0010C
:1015F0006091C1017091C201841B950BA60BB70BC2
:101600004091BB015091BC016091BD017091BE0140
:1016100084179507A607B707E0F22FB7F8948091D3
:10162000430190914401A0914501B09146012FBF23
:101630008093BF019093C001A093C101B093C201F8
:101640008091B7019091B8018330910509F4D3C01E
:1016500054F48130910509F463C0029709F043C244
:1016600000E010E0B7C08430910509F4D3C00597BD
:1016700009F039C2B090C301F090C4015091C50186
:101680002091CB013091CC01E091CD01F091CE01C0
:1016900089010E1B1F0B4091C701E090C80180918A
:1016A000C9018E9FB0018F9F700D1124509FC00102
:1016B000519F900D1124860F971FB9010E94390E7A
:1016C000D62EEE9ED001EF9EB00D1124F09EC001EB
:1016D000F19E900D11248A0F9B1FB9010E94390EB3
:1016E000862F90E0A0E0B0E0BA2FA92F982F88278E
:1016F0003C014D018D28740163014E9FC0014F9F35
:10170000900D1124B09EA001B19E500D1124840FA4
:10171000951FB9010E94390EC62A00E010E0CCC125
:10172000E12CF12C00E010E06091A4017091A50182
:101730000617170708F0D3C1C7010E94390E409160
:10174000CD01640F6095653558F4462F440F640F42
:10175000862F8095462F50E060E070E0682B1AC01D
:101760006A3A50F46555862F880F860F482F4095AA
:1017700050E060E070E00DC06A5A462F440F640FDD
:10178000862F8095462F50E060E070E0BA01552723
:101790004427582BC8010E94D1080F5F1F4FF394B4
:1017A000C3CF8091CD019091CE01800F911F63E056
:1017B00070E00E94390E892BA9F44091C301509129
:1017C000C4016091C5017091C601C8010E94D10891
:1017D0000F5F1F4F8091A4019091A5010817190771
:1017E00000F37DC14091C7015091C8016091C901CA
:1017F0007091CA01EACF4091C3015091C401609138
:10180000C5017091C6018091CD019091CE010E94D9
:10181000D10865C11DA21CA21BA21AA2812C912C69
:101820008091A4019091A5018816990608F057C1EE
:101830002091CD013091CE018216930649F080911E
:10184000CB019091CC01821B930B8816990649F429
:101850004091C3015091C4016091C5017091C601CE
:1018600019C12091AF01A090AC010091AA01109183
:10187000AB01C090A901822F90E07090AD01609003
:10188000AE012A1162C0ACA1BDA10A0F1B1FCC2062
:1018900009F442C0D12CE12CF12CF801E80FF91F1A
:1018A000608170E0762F6627072E000C880B990B5D
:1018B000A70196010E944D0E290133242224F8012C
:1018C000E70DF11D608170E0762F6627072E000C72
:1018D000880B990BA70196010E944D0EB42FA32FE0
:1018E000922F8827282A392A4A2A5B2AF801E60DEE
:1018F000F11D608170E0762F6627072E000C880BA3
:10190000990BA70196010E944D0E89019A010229A7
:1019100013292429352996C0F801E80FF91F808181
:10192000F801E70DF11D2080422D50E060E070E0ED
:10193000762F652F542F4427682BF801E60DF11DF3
:1019400080818A019B01082B7DC0EAA1FBA10E0FBB
:101950001F1FB12CCC2009F459C0D12CE12CF12C43
:10196000F801E80FF91F608170E0762F6627072ED7
:10197000000C880B990BA70196010E944D0E522E68
:10198000442433242224F801EA0DFB1D608170E019
:10199000762F6627072E000C880B990BA70196015E
:1019A0000E944D0ED90199278827282A392A4A2AC8
:1019B0005B2AF801E60DF11D608170E0762F662745
:1019C000072E000C880B990BA70196010E944D0E63
:1019D000222A332A442A552AF801E70DF11D608195
:1019E00070E0762F6627072E000C880B990BA70155
:1019F00096010E944D0EB42FA32F922F882792019B
:101A00008101082B192B2A2B3B2B1CC0F801E80F56
:101A1000F91F8081F801EA0DFB1D2080422D50E066
:101A200060E070E0BA0155274427782BF801E60DF5
:101A3000F11D8081482BF801E70DF11D80818A019D
:101A40009B01182B422F50E055954795052E000C11
:101A5000660B770BBA0155274427812F90E09595A7
:101A60008795092E000CAA0BBB0BBA2FA92F982F14
:101A70008827842B952BA62BB72B202E312CA10148
:101A800055954795052E000C660B770B482B592B67
:101A90006A2B7B2BC4010E94D108FFEF8F1A9F0A8B
:101AA0002AA13BA12C5F3F4F3BA32AA38CA19DA160
:101AB00003969DA38CA3B4CE8091A4019091A5011F
:101AC0000817190740F4B701A601C8010E94D10800
:101AD0000F5F1F4FF1CF82EA91E00E94300282EA4D
:101AE00091E00E9430020E94AA0867CD0E94AA08D5
:101AF0008BE291E00E9492082091CD013091CE01BD
:101B000040E050E019A28E010F5D1F4FCA01B901DC
:101B10002AE030E040E050E00E944D0E605DD801C8
:101B20006E938D01211531054105510579F7CD01E0
:101B30000E9492088BE391E00E94920868EE73E0A5
:101B400080E090E00E946A01E0E0F0E0309709F464
:101B500005CD099503CD8091AA019091AB01009725
:101B600011F00E940A0F8091A80187FD03C060E078
:101B70000C9473040895109255011092540188EE4C
:101B800093E0A0E0B0E08093560190935701A093BA
:101B90005801B09359018DE191E0909353018093E6
:101BA00052018FEF9FEF90935F0180935E0110923F
:101BB000A3011092A9011092B0011092B1011092EC
:101BC000B2011092B30181E08093AF018093AC0128
:101BD0001092AD0192E09093AE018093A20188E152
:101BE00090E09093A7018093A6010E94750E9093B8
:101BF000AB018093AA01009761F028E1FC011192EA
:101C00002A95E9F788E090E09093A5018093A401DC
:101C100008C01092A7011092A6011092A50110927F
:101C2000A40186E08093A8018091A301882339F064
:101C300061E086E00E94730486E00E943408E3EAD3
:101C4000F1E0E491F0E0EE0FFF1FE157FE4F8591C8
:101C500094919093B5018093B401E6E7F1E0E491AB
:101C6000E093B60180E394E09093D0018093CF019C
:101C70000895AA1BBB1B51E107C0AA1FBB1FA617D3
:101C8000B70710F0A61BB70B881F991F5A95A9F725
:101C900080959095BC01CD010895A1E21A2EAA1B52
:101CA000BB1BFD010DC0AA1FBB1FEE1FFF1FA2170C
:101CB000B307E407F50720F0A21BB30BE40BF50B09
:101CC000661F771F881F991F1A9469F76095709592
:101CD000809590959B01AC01BD01CF010895EE0F59
:101CE000FF1F0590F491E02D0994CF93DF9382308C
:101CF000910510F482E090E0E091DF01F091E001C5
:101D000020E030E0C0E0D0E0309711F14081518117
:101D100048175907C0F04817590761F48281938129
:101D2000209719F09B838A832BC09093E0018093C6
:101D3000DF0126C02115310519F04217530718F4A9
:101D40009A01BE01DF01EF010280F381E02DDCCFBB
:101D50002115310509F1281B390B2430310590F488
:101D600012968D919C9113976115710521F0FB01DD
:101D70009383828304C09093E0018093DF01FD018F
:101D8000329644C0FD01E20FF31F819391932250DC
:101D900031092D933C933AC02091DD013091DE0151
:101DA000232B41F420910E0130910F013093DE017D
:101DB0002093DD0120910C0130910D012115310599
:101DC00041F42DB73EB74091100150911101241BF1
:101DD000350BE091DD01F091DE01E217F307A0F48D
:101DE0002E1B3F0B2817390778F0AC014E5F5F4F71
:101DF0002417350748F04E0F5F1F5093DE014093C4
:101E0000DD018193919302C0E0E0F0E0CF01DF912A
:101E1000CF9108950F931F93CF93DF93009709F409
:101E20008CC0FC013297138212820091DF01109165
:101E3000E0010115110581F420813181820F931F8A
:101E40002091DD013091DE012817390779F5F093F3
:101E5000DE01E093DD0171C0D80140E050E0AE1733
:101E6000BF0750F412962D913C911397AD012115A7
:101E7000310509F1D901F3CF9D01DA0133832283C2
:101E800060817181860F971F8217930769F4EC01B7
:101E900028813981260F371F2E5F3F4F31832083E2
:101EA0008A819B8193838283452B29F4F093E001FF
:101EB000E093DF0142C01396FC93EE931297ED017D
:101EC000499159919E01240F351FE217F30771F4D0
:101ED00080819181840F951F029611969C938E9319
:101EE0008281938113969C938E931297E0E0F0E0A9
:101EF000D80112968D919C911397009719F0F801D3
:101F00008C01F6CF8D919C9198012E5F3F4F820FEF
:101F1000931F2091DD013091DE012817390769F404
:101F2000309729F41092E0011092DF0102C0138271
:101F300012821093DE010093DD01DF91CF911F919A
:101F40000F91089581E090E0F8940C94A70F10E0B1
:101F5000CFEDD0E004C0FE010E946F0E2196C03E7E
:081F6000D107C9F7F894FFCF87
:101F6800FFFFFFFF00E10000000000000000E101AA
:101F7800800000C18081000000000000000A01A468
:101F8800012B0131044F0420010600496E6372657C
:0E1F98006D656E74656420746F20000D0A0084
:00000001FF
