:100000000C94E0000C9408010C9408010C94080175
:100010000C9408010C9408010C9408010C9408013C
:100020000C9408010C9408010C9453070C94C50718
:100030000C9408010C9408010C9408010C9408011C
:100040000C9408010C9408010C9408010C9408010C
:100050000C9408010C9408010C9408010C941503ED
:100060000C9408010C9408010C9408010C940801EC
:100070000C9408010C9408010C9408010C940801DC
:100080000C9408010C9408010C9408010C940801CC
:100090000C9408010C9408010C9408010C940801BC
:1000A0000C9408010C9408010C94080135063806DC
:1000B00027062B062F065906590659063C06400608
:1000C00044064A064E065906540600000000240065
:1000D00027002A002D003000080B00020202010058
:1000E000090400000102020000052400100105249B
:1000F000010101042402060524060001070581030D
:1001000010004009040100020A0000000705020275
:100110004000000705830240000004030904416415
:1001200061667275697400466C6F7261001201003D
:1001300002000000409A2304800001010203011222
:10014000010002EF0201409A230480000101020332
:10015000010000000200090F0000030401000C0070
:10016000000000000000000000000000000000008F
:1001700004080201104080401020408040800802A6
:100180000401804020100201108010204040200017
:10019000000000250028002B002E0031000404047C
:1001A000040403040502020202040302020202061E
:1001B000060606060604040202020404920D820DDD
:1001C00011241FBECFEFDAE0DEBFCDBF11E0A0E00B
:1001D000B1E0E6E1FFE102C005900D92AC32B1075B
:1001E000D9F721E0ACE2B1E001C01D92AF3CB2070B
:1001F000E1F710E0CFEDD0E004C02197FE010E94AE
:10020000460ECE3DD107C9F70E94020A0C947E0F1C
:100210000C940000CF92DF92EF92FF920F931F9306
:10022000CF93DF936C017A018B01C0E0D0E0CE1553
:10023000DF0589F0D8016D918D01D601ED91FC911A
:100240000190F081E02DC6010995892B11F47E0102
:1002500002C02196ECCFC701DF91CF911F910F9182
:10026000FF90EF90DF90CF900895CF93DF931F9290
:10027000CDB7DEB76983DC01ED91FC910280F3819B
:10028000E02D41E050E0BE016F5F7F4F09950F9078
:10029000DF91CF91089583E08093E9008091F2008F
:1002A000882319F08AE38093E8000895FC0184858F
:1002B000958597FD0BC09FB7F89482E08093E90085
:1002C0008091F2009FBF90E0019608959FB7F89447
:1002D00082E08093E9008091F2009FBF90E0089552
:1002E0003FB7F89480912D0190912E01A0912F019C
:1002F000B091300126B5A89B05C02F3F19F001969B
:10030000A11DB11D3FBFBA2FA92F982F8827820F9B
:10031000911DA11DB11DBC01CD0143E0660F771FEA
:10032000881F991F4A95D1F708958F929F92AF9297
:10033000BF92CF92DF92EF92FF926B017C010E94FD
:1003400070014B015C01C114D104E104F104F1F02E
:100350000E947001DC01CB0188199909AA09BB0927
:10036000883E9340A105B10570F321E0C21AD1087F
:10037000E108F10888EE880E83E0981EA11CB11CEC
:10038000C114D104E104F10419F7DDCFFF90EF901F
:10039000DF90CF90BF90AF909F908F9008958F92F5
:1003A0009F92AF92BF92CF92DF92EF92FF920F9304
:1003B0001F93CF93DF935C016B018A0180910B0146
:1003C000882309F45EC080913E01882309F459C056
:1003D00080913B0180FF05C08091E00082608093A6
:1003E000E000E8018AEFF82E93E0E92E2FE3822E59
:1003F0003AE3932E209709F43DC08FB7F894E0922A
:10040000E9009091E80095FF06C09091F200282D38
:10041000291B922F01C090E08FBF91110AC0FA945E
:10042000FF2079F161E070E080E090E00E949501AA
:10043000E1CF292F30E0C217D3070CF49C2F8FB7E0
:10044000F894E092E9002091E80025FF11C0292FDF
:1004500030E0C21BD30BF601915020F04191409344
:10046000F100FACFC20ED31E9091E80095FF13C0A1
:100470008FBFC0CF5D9A84E680933C0110161106B1
:1004800044F081E090E0F5019383828380E090E086
:1004900005C0C80103C09092E800EACFDF91CF9178
:1004A0001F910F91FF90EF90DF90CF90BF90AF9092
:1004B0009F908F90089508950F931F93CF93DF938C
:1004C0001F92CDB7DEB78C01FC018485958597FF1F
:1004D0000EC0CE0101960E942907019719F42981C7
:1004E00030E002C02FEF3FEFF80135872487F80195
:1004F000848595850F90DF91CF911F910F9108957D
:10050000CF93DF931F92CDB7DEB7FC01848595852D
:1005100097FD05C02FEF3FEF358724870BC0CE0135
:1005200001960E942907019719F4898190E002C081
:100530008FEF9FEF0F90DF91CF910895409137019A
:1005400050913801209135013091360142175307FF
:10055000B4F49091E8009570E1F39091E80092FD79
:1005600019C08093F1008091370190913801019674
:100570008F739927892B19F48EEF8093E80080916F
:10058000370190913801019690933801809337019B
:1005900081E0089580E00895615030F02091F100ED
:1005A000FC0120830196F8CF289A84E680933D01D0
:1005B0000895CF93DF9390E0FC01E059FE4F249122
:1005C000FC01E356FE4F8491882361F190E0880F8F
:1005D000991FFC01E653FF4FC591D491FC01E157EF
:1005E000FE4FA591B491611109C09FB7F89488811D
:1005F000209582238883EC912E230BC0623061F416
:100600009FB7F8943881822F809583238883EC915B
:100610002E2B2C939FBF06C08FB7F894E8812E2B0A
:1006200028838FBFDF91CF9108951F920F920FB64D
:100630000F9211242F933F938F939F93AF93BF9368
:100640008091310190913201A0913301B091340138
:1006500030912C0126E0230F2D3720F40296A11DA6
:10066000B11D05C029E8230F0396A11DB11D2093DC
:100670002C018093310190933201A0933301B09308
:10068000340180912D0190912E01A0912F01B09104
:1006900030010196A11DB11D80932D0190932E0173
:1006A000A0932F01B0933001BF91AF919F918F9193
:1006B0003F912F910F900FBE0F901F901895CF92E2
:1006C000DF92EF92FF920F931F93CF93DF93CDB7FB
:1006D000DEB729970FB6F894DEBF0FBECDBF8C01F1
:1006E000DC0118968D919C911997892B09F4D8C13A
:1006F0000E947001F801C684D784E088F188DC018B
:10070000CB018C199D09AE09BF09C297A105B1059E
:1007100078F3F894848195819A838983A085B18543
:100720007D01EFEFEE1AFE0A8C918987D8018C913A
:1007300052960D90BC91A02D882309F477C11B829D
:10074000AB32B10509F059C09BB1F8018489982BEF
:1007500098879BB1809589238F838F818C8389852E
:1007600087FF02C088858C8358856F8149853C81CD
:100770002B8189819A81D7015BB9262F3BB900C0B3
:1007800046FD252F6BB900C05BB9362F2BB900C0D1
:1007900045FD352F6BB900C05BB9262F3BB900C0B2
:1007A00044FD252F6BB900C05BB9362F2BB900C0B3
:1007B00043FD352F6BB900C05BB9262F3BB900C094
:1007C00042FD252F6BB900C05BB9362F2BB900C095
:1007D00041FD352F6BB900C05BB9262F3BB900C076
:1007E00040FD252F6BB901975BB9362F2BB94D9181
:1007F00047FD352F6BB901F615C1A532B10509F0DA
:1008000059C095B1F8018489982B988795B1809546
:1008100089238F838F818C83898587FF02C0888598
:100820008C8358856F8149853C812B8189819A8190
:10083000D70155B9262F35B900C046FD252F65B91A
:1008400000C055B9362F25B900C045FD352F65B913
:1008500000C055B9262F35B900C044FD252F65B914
:1008600000C055B9362F25B900C043FD352F65B9F5
:1008700000C055B9262F35B900C042FD252F65B9F6
:1008800000C055B9362F25B900C041FD352F65B9D7
:1008900000C055B9262F35B900C040FD252F65B9D8
:1008A000019755B9362F25B94D9147FD352F65B9BB
:1008B00001F6B8C0A832B10509F059C098B1F801E5
:1008C0008489982B988798B1809589238F838F810D
:1008D0008C83898587FF02C088858C8358856F81CA
:1008E00049853C812B8189819A81D70158B9262F6E
:1008F00038B900C046FD252F68B900C058B9362F59
:1009000028B900C045FD352F68B900C058B9262F59
:1009100038B900C044FD252F68B900C058B9362F3A
:1009200028B900C043FD352F68B900C058B9262F3B
:1009300038B900C042FD252F68B900C058B9362F1C
:1009400028B900C041FD352F68B900C058B9262F1D
:1009500038B900C040FD252F68B9019758B9362F26
:1009600028B94D9147FD352F68B901F65BC0D19785
:1009700009F08CC091B3F8018489982B988791B3C2
:10098000809589238F838F818C83898587FF02C01F
:1009900088858C8358856F8149853C812B8189812D
:1009A0009A81D70151BB262F31BB00C046FD252FB0
:1009B00061BB00C051BB362F21BB00C045FD352FA8
:1009C00061BB00C051BB262F31BB00C044FD252FA9
:1009D00061BB00C051BB362F21BB00C043FD352F8A
:1009E00061BB00C051BB262F31BB00C042FD252F8B
:1009F00061BB00C051BB362F21BB00C041FD352F6C
:100A000061BB00C051BB262F31BB00C040FD252F6C
:100A100061BB019751BB362F21BB4D9147FD352F4F
:100A200061BB01F649873C832B832EC09C91F80162
:100A30008489982B98879C91809589238F838F81B7
:100A40008E8388E08D8358856F8149853D812E8115
:100A500089819A81F7015C9347FD252F2C93262FDE
:100A60003A9531F0441F6C9300C000C000C0F3CF32
:100A70006C93000038E04191019769F7F801B38B5E
:100A8000A28B49873D832E839A83898378940E9421
:100A90007001D8011E966D937D938D939C93519711
:100AA00029960FB6F894DEBF0FBECDBFDF91CF9170
:100AB0001F910F91FF90EF90DF90CF90089580915C
:100AC000C30181110DC082E08093BF0184E0809357
:100AD000C0011092C2011092C10181E08093C30154
:100AE0008FEB91E008950E94790FCF92DF92EF9201
:100AF000FF920F931F93CF93DF931F92CDB7DEB773
:100B0000182F062FE42E862F880F8E5F99830E9460
:100B10009E0283E00E949E02F12EC12E9981D92E61
:100B20008C2D8F19801798F4F601E7FE02C084918E
:100B300001C080810E949E02182F80E00E949E02C8
:100B40008123FFEFCF1ADF0A8111EACF01C081E0D4
:100B50000F90DF91CF911F910F91FF90EF90DF9059
:100B6000CF900895DF92EF92FF920F931F93CF9350
:100B7000DF93D82E8A017B01E40EF51EEB01CE1522
:100B8000DF0571F0D7FE03C0FE01849101C08881AA
:100B90000E949E0221968111F2CF8FEF9FEF01C03C
:100BA000C801DF91CF911F910F91FF90EF90DF90DF
:100BB00008950F931F93CF93DF931F92CDB7DEB7A6
:100BC00082E0898342E450E068ED70E080E80E94B2
:100BD000B2050E945F05DC0112960D911C911397DE
:100BE0000115110569F0D801ED91FC910280F381A6
:100BF000E02DBE016F5F7F4FC801099597FF07C0C9
:100C000089810F90DF91CF911F910F910895F80185
:100C100000851185E5CF90E0FC01EF5AFE4F44912D
:100C2000FC01E059FE4F2491FC01E356FE4F8491F4
:100C3000882309F44DC04423E1F150E0FA013197D3
:100C4000EF30F105B0F5EA5AFF4F0C94460E909143
:100C500080009F7707C0909180009F7D03C0909196
:100C60008000977F9093800024C094B59F7702C046
:100C700094B59F7D94BD1DC0909190009F7707C053
:100C8000909190009F7D03C090919000977F9093EA
:100C900090000FC09091C0009F7703C09091C0005A
:100CA0009F7D9093C00005C09091C200977F909364
:100CB000C200E82FF0E0EE0FFF1FE157FE4FA591B5
:100CC000B4918FB7F894EC9120952E232C938FBF7D
:100CD00008952091A6013091A7018091BA019091C9
:100CE000BB01232B89F401969093BB018093BA0139
:100CF0002091B8013091B90182179307E0F010926A
:100D0000BB011092BA0110C001979093BB01809370
:100D1000BA01892B81F48091B8019091B9010197B2
:100D20009093BB018093BA01E091BC01F091BD01A9
:100D3000309709F0099408958F929F92AF92BF92D5
:100D4000CF92DF92EF92FF92209191013091920128
:100D50008217930708F052C04B01AA24BB24E82D48
:100D6000C52ED62EE72EFF24FC2D342F2091960180
:100D7000222361F0829E40011124E92DC29E600170
:100D80001124FD2D429FD00111243B2FF0909C0196
:100D9000E0909901A0919701B0919801FE1008C0D0
:100DA000AC01440F551F840F951F8A0F9B1F14C061
:100DB000880F991F880F991F8A0F9B1F472F552750
:100DC00066277727DC01AF0DB11D222321F0429F5A
:100DD000A0011124452F4C9320919901DC01A20F11
:100DE000B11DEC9320919A01DC01A20FB11DFC937F
:100DF00020919B01FC01E20FF11D3083FF90EF90E9
:100E0000DF90CF90BF90AF909F908F900895CF923A
:100E1000DF92EF92FF92CF93DF936B017C01C0E0F2
:100E2000D0E08091910190919201C817D90738F4D0
:100E3000B701A601CE010E949C062196F2CF8FE851
:100E400091E0DF91CF91FF90EF90DF90CF900C94E5
:100E50005F03FC0180913E01811103C08FEF9FEF82
:100E600008959FB7F89482E08093E9002091F20002
:100E700030E01216130614F421E030E0211531059C
:100E800059F0289A84E680933D018091F100808397
:100E90008091F200882319F09FBFC90108958BE665
:100EA0008093E800F9CF1F920F920FB60F92112492
:100EB0008F939F938091E1009091E100937F9093B5
:100EC000E10083FF0FC01092E90091E09093EB00E6
:100ED0001092EC0092E39093ED0010923E0198E0A6
:100EE0009093F00082FF20C093E09093E9009091EE
:100EF000F200992319F09AE39093E80090913C0155
:100F0000992339F090913C01915090933C019923A1
:100F100089F190913D01992339F090913D019150D3
:100F200090933D01992341F184FF10C08091E2002C
:100F30008E7E81608093E2008091E1008F7E8093BD
:100F4000E10080913B018E7E806111C080FF16C060
:100F50008091E2008E7E80618093E2008091E100CA
:100F60008E7E8093E10080913B018E7E8160809334
:100F70003B0104C05D98CDCF2898D6CF9F918F912B
:100F80000F900FBE0F901F9018951F920F920FB6E3
:100F90000F921124CF92DF92EF92FF920F931F9343
:100FA0002F933F934F935F936F937F938F939F9371
:100FB000AF93BF93EF93FF93CF93DF93CDB7DEB79C
:100FC0006C97DEBFCDBF1092E9008091E80083FFEF
:100FD000FAC168E0CE0145960E94CC0282EF809370
:100FE000E8008D8987FF05C09091E80090FFFCCF55
:100FF00003C09EEF9093E800982F907609F0C6C04A
:101000009E892F89188D91110CC0803829F4809108
:101010003A018093F10002C01092F1001092F100A9
:1010200047C1422F50E0512B913051F4811140C102
:101030004130510509F03CC180913A018D7F0BC0D0
:10104000933061F4811134C14130510509F030C150
:1010500080913A01826080933A012AC1953041F42F
:101060008091E80080FFFCCF20682093E30020C13E
:10107000963009F05FC0EB8CFC8C1092E900109266
:10108000380110923701123091F51092360110920A
:1010900035010E94D90599E0BE016F5F7F4FDB01EA
:1010A000E92F1D92EA95E9F799831A8391E09E83CF
:1010B00090EA98879AEF998720913701309138010B
:1010C000275F3F4F3C832B838D831092E900109262
:1010D000380110923701F0923601E092350149E073
:1010E00050E080E00E94B2050E94D905E1C0F09274
:1010F0003601E09235010E945F05DC011296ED9009
:10110000FC901397E114F10409F4C0C0D701ED91EC
:10111000FC910480F581E02DBE016B5E7F4FC7011D
:101120000995009719F00CF0C3C0C6C0F701E08420
:10113000F184E8CF973009F4BFC0983021F481E002
:101140008093F100B5C0993009F0B2C0837009F006
:10115000B3C0E3E1F1E081E021E036E3908199233F
:1011600061F08093E9002093EB0091919093EC0063
:101170003093ED008F5F873089F78EE78093EA0028
:101180001092EA008F8980933E0192C08B8D9C8DD6
:101190001092E900109238011092370190933601B5
:1011A00080933501898D811156C08E899D89913A30
:1011B00059F4813209F080C047E050E064E071E00A
:1011C00080E00E94B20574C0913209F075C083328C
:1011D00089F4888D90E0982F88272F89822BA0E0B2
:1011E000B0E08093000190930101A0930201B093BD
:1011F00003015EC0803269F48091E80082FFFCCF79
:1012000067E084E091E00E94CC028BEF8093E800DD
:1012100006C0823209F04CC08F8980930B01809107
:101220003901882319F0EEEFFAE002C0E0E0F8E0BF
:101230008091040190910501A0910601B0910701F0
:10124000803B9440A105B10509F088C080910B0155
:1012500080FFA0C083C00E945F05DC0112960D9143
:101260001C9113970115110539F1D801ED91FC91ED
:101270000190F081E02DBE016B5E7F4FC8010995A2
:10128000811116C0F80100851185ECCF1130C1F035
:10129000133091F48F89882309F455C08230E9F422
:1012A00040E865E087E291E00E947505882321F01F
:1012B0008EEF8093E80087C081E28093EB0083C0CB
:1012C0008B8D9C8D089711F41093BE018091BE0107
:1012D000811136C06DE271E038C0813029F440E8F8
:1012E00068E08EE191E0E0CF833031F70E945F0546
:1012F000DC011296ED90FC9013978E010F5F1F4F4B
:101300006801E114F10479F0D701ED91FC910680B8
:10131000F781E02DB801C7010995080F111DF701EC
:10132000E084F184EECFD8011C92F60101900020F8
:10133000E9F73197BF016C197D0940E0C601B4CFD0
:101340006FE371E002C06AE171E06115710509F4B3
:10135000B3CFFB01449150E080E833CF0FB6F8944F
:10136000A895809160008861809360001092600071
:101370000FBEA895EE3F2AE0F20739F08091FE0AF1
:101380009091FF0A9183808393CF1092FF0A10926D
:10139000FE0A8ECFEE3F8AE0F80731F0808191811E
:1013A0009093FF0A8093FE0A87E797E791838083F3
:1013B0009BE088E10FB6F894A895809360000FBE7B
:1013C0009093600075CF6C960FB6F894DEBF0FBE99
:1013D000CDBFDF91CF91FF91EF91BF91AF919F91E1
:1013E0008F917F916F915F914F913F912F911F91BD
:1013F0000F91FF90EF90DF90CF900F900FBE0F9066
:101400001F901895CF93DF9300D000D0CDB7DEB7F3
:10141000789484B5826084BD84B5816084BD85B5CF
:10142000826085BD85B5816085BD80916E008160DB
:1014300080936E0010928100809181008260809381
:101440008100809181008160809381008091800083
:1014500081608093800080919100826080939100F0
:1014600080919100816080939100809190008160D3
:10147000809390008091C10084608093C10080912E
:10148000C10082608093C1008091C100816080931F
:10149000C1008091C30081608093C3008091C0002F
:1014A00082608093C0008091C20081608093C200FE
:1014B00080917A00846080937A0080917A008260C3
:1014C00080937A0080917A008E7F80937A00809159
:1014D0007A00806880937A0010923E0110923A015F
:1014E00010923B018091D70081608093D70080EA01
:1014F0008093D80089B58F7E89BD89B5826089BD0A
:1015000009B400FEFDCF61E070E080E090E00E9451
:1015100095018091D8008F7C80618093D800809164
:10152000E000807F8093E0008091E1008E7E8093D8
:10153000E1008DE08093E200559A209AEEEFFFE7FC
:10154000859194918B3F9C4D19F481E080933901F2
:101550008FEF9FEF90934C0180934B018091950109
:1015600087FD07C061E00E94D902809195010E9429
:101570000B0681E0809390018FE891E00E945F0369
:1015800060E070E08FEF90E00E94070768EE73E084
:1015900080E090E00E94950185E090E09093A501A5
:1015A0008093A4018CE291E0A0E0B0E08093A801D8
:1015B0009093A901A093AA01B093AB0184E190E0BC
:1015C0009093B9018093B80180E090E0AFEFB0E074
:1015D0008093B0019093B101A093B201B093B30195
:1015E00080E09FEFA0E0B0E08093B4019093B5015C
:1015F000A093B601B093B7011092BB011092BA014B
:101600001092A7011092A6012FB7F8948091310192
:1016100090913201A0913301B09134012FBF4091DC
:10162000AC015091AD016091AE017091AF01841B8E
:10163000950BA60BB70B4091A8015091A9016091A1
:10164000AA017091AB0184179507A607B707E0F2CE
:101650002FB7F8948091310190913201A09133011C
:10166000B09134012FBF8093AC019093AD01A09352
:10167000AE01B093AF018091A4019091A501833098
:10168000910509F4D7C064F48130910509F465C06F
:10169000029709F02FC2E12CF12C03E010E0B9C051
:1016A0008430910509F4D5C0059709F023C2409113
:1016B000B0011091B1015091B201E091B801F091E7
:1016C000B901A090BA01B090BB017F01EA18FB08F4
:1016D000D090B4010091B5018091B6018A9D90012E
:1016E0008B9D300D11245E9DC0015F9D900D1124D6
:1016F000820F931FBF010E94100EC62E0A9D9001FB
:101700000B9D300D11241E9DC0011F9D900D1124B5
:10171000820F931FBF010E94100E062F10E020E0E1
:1017200030E0322F212F102F00272C29DA9CB00116
:10173000DB9C700D11244E9DC0014F9D900D112416
:10174000860F971FBF010E94100E68017901C62AFB
:10175000C701B6010E940707C7C100E010E0E12CF5
:10176000F12C6091910170919201E616F70608F054
:10177000BBC1C8010E94100E4091BA01640F609570
:10178000653558F4462F440F640F862F8095462FF9
:1017900050E060E070E0682B1BC06A3A58F4655571
:1017A000962F990F960F492F409550E060E070E01A
:1017B000592B0EC06A5A462F440F640F862F80950E
:1017C000462F50E060E070E0BA0155274427582BBF
:1017D000C7010E949C063FEFE31AF30A1395C1CF9D
:1017E0008091BA019091BB018E0D9F1DB8010E949E
:1017F000100E892BB1F44091B0015091B10160916C
:10180000B2017091B301C7010E949C068FEFE81AE4
:10181000F80A8091910190919201E816F90600F37F
:1018200063C14091B4015091B5016091B6017091CE
:10183000B701E9CF4091B0015091B1016091B2017F
:101840007091B3018091BA019091BB010E949C06F6
:101850004BC1C12CD12CE12CF12C00E010E0809187
:101860009101909192010817190708F03DC120914C
:10187000BA013091BB010217130749F08091B801FA
:101880009091B901821B930B0817190749F44091F5
:10189000B0015091B1016091B2017091B30118C1D2
:1018A00020919C01209099014091970150919801BD
:1018B00080909601822F90E0A0919A01A983B09127
:1018C0009B01BA83221160C01A012C0C3D1C882098
:1018D00009F442C0912CA12CB12CF101E80FF91FA1
:1018E000608170E0762F6627072E000C880B990B1D
:1018F000A50194010E94240E390155244424F101CC
:101900002981E20FF11D608170E0762F6627072E96
:10191000000C880B990BA50194010E94240EB42F92
:10192000A32F922F8827482A592A6A2A7B2AD10175
:101930003A81A30FB11D6C9170E0762F6627072EB8
:10194000000C880B990BA50194010E94240E422AD9
:10195000532A642A752A96C0F101E80FF91F808185
:10196000F1019981E90FF11D4080512C612C712CFE
:10197000762C652C542C4424682AD101EA81AE0FC0
:10198000B11D8C91482A7EC09A012E0D3F1D3C83CB
:101990002B83312C882009F45CC0912CA12CB12C14
:1019A000F901E80FF91F608170E0762F6627072E96
:1019B000000C880B990BA50194010E94240E722E35
:1019C000662455244424EB81FC81E20DF31D6081E3
:1019D00070E0762F6627072E000C880B990BA50167
:1019E00094010E94240ED90199278827482A592A50
:1019F0006A2A7B2AEB81FC813A81E30FF11D608129
:101A000070E0762F6627072E000C880B990BA50136
:101A100094010E94240E422A532A642A752AAB811B
:101A2000BC818981A80FB11D6C9170E0762F66276B
:101A3000072E000C880B990BA50194010E94240E1F
:101A4000B42FA32F922F8827482A592A6A2A7B2A43
:101A500019C0EB81FC81E20DF31D4080512C612CFB
:101A6000712C320155244424EB81FC819A81E90FC9
:101A7000F11D8081482AAB81BC81E981AE0FB11D87
:101A80008C91582A462D50E055954795052E000C0F
:101A9000660B770BBA0155274427852D90E0959565
:101AA0008795092E000CAA0BBB0BBA2FA92F982FD4
:101AB0008827482B592B6A2B7B2B512C5594479404
:101AC000052C000C660877084429552966297729D2
:101AD000C8010E949C060F5F1F4FF4E0EF0EF11C3F
:101AE00023E0C20ED11CBBCE8FE891E00E945F03C1
:101AF0000E94690600E010E001151105E9F30E945B
:101B00000000FACF8091970190919801009711F011
:101B10000E94E10E8091950187FD03C060E00C9466
:101B2000D9020895109242011092410188EE93E08B
:101B3000A0E0B0E08093430190934401A09345015D
:101B4000B09346018DE191E09093400180933F0175
:101B50008FEF9FEF90934C0180934B011092900177
:101B60001092960110929D0110929E0110929F0179
:101B70001092A00181E080939C01809399011092C2
:101B80009A0192E090939B0180938F0188E190E00D
:101B900090939401809393010E944C0E909398012E
:101BA00080939701009761F028E1FC0111922A953A
:101BB000E9F788E090E0909392018093910108C04A
:101BC000109294011092930110929201109291013F
:101BD00086E08093950180919001882339F061E03F
:101BE00086E00E94D90286E00E940B06E3EAF1E05B
:101BF000E491F0E0EE0FFF1FE157FE4F85919491C5
:101C00009093A2018093A101E6E7F1E0E491E093D3
:101C1000A3018BE592E09093BD018093BC010895F0
:101C2000AA1BBB1B51E107C0AA1FBB1FA617B70702
:101C300010F0A61BB70B881F991F5A95A9F780951E
:101C40009095BC01CD010895A1E21A2EAA1BBB1BE1
:101C5000FD010DC0AA1FBB1FEE1FFF1FA217B30778
:101C6000E407F50720F0A21BB30BE40BF50B661F8E
:101C7000771F881F991F1A9469F760957095809552
:101C800090959B01AC01BD01CF010895EE0FFF1FA0
:101C90000590F491E02D0994CF93DF938230910564
:101CA00010F482E090E0E091CD01F091CE0120E0CF
:101CB00030E0C0E0D0E0309711F140815181481709
:101CC0005907C0F04817590761F482819381209722
:101CD00019F09B838A832BC09093CE018093CD0112
:101CE00026C02115310519F04217530718F49A013F
:101CF000BE01DF01EF010280F381E02DDCCF211571
:101D0000310509F1281B390B2430310590F4129666
:101D10008D919C9113976115710521F0FB019383BF
:101D2000828304C09093CE018093CD01FD01329651
:101D300044C0FD01E20FF31F8193919322503109BA
:101D40002D933C933AC02091CB013091CC01232BB1
:101D500041F420910E0130910F013093CC0120937A
:101D6000CB0120910C0130910D012115310541F479
:101D70002DB73EB74091100150911101241B350B36
:101D8000E091CB01F091CC01E217F307A0F42E1BF8
:101D90003F0B2817390778F0AC014E5F5F4F2417CF
:101DA000350748F04E0F5F1F5093CC014093CB0195
:101DB0008193919302C0E0E0F0E0CF01DF91CF91F9
:101DC00008950F931F93CF93DF93009709F48CC06E
:101DD000FC013297138212820091CD011091CE0145
:101DE0000115110581F420813181820F931F20910B
:101DF000CB013091CC012817390779F5F093CC014C
:101E0000E093CB0171C0D80140E050E0AE17BF07AE
:101E100050F412962D913C911397AD012115310587
:101E200009F1D901F3CF9D01DA0133832283608167
:101E30007181860F971F8217930769F4EC0128813F
:101E40003981260F371F2E5F3F4F318320838A81D0
:101E50009B8193838283452B29F4F093CE01E093F9
:101E6000CD0142C01396FC93EE931297ED01499178
:101E700059919E01240F351FE217F30771F48081F9
:101E80009181840F951F029611969C938E93828167
:101E9000938113969C938E931297E0E0F0E0D80123
:101EA00012968D919C911397009719F0F8018C016F
:101EB000F6CF8D919C9198012E5F3F4F820F931F1B
:101EC0002091CB013091CC012817390769F4309764
:101ED00029F41092CE011092CD0102C01382128219
:101EE0001093CC010093CB01DF91CF911F910F9103
:101EF000089581E090E0F8940C947E0F10E0CFED0F
:101F0000D0E004C0FE010E94460E2196C03ED107DB
:061F1000C9F7F894FFCFB1
:101F1600FFFFFFFF00E10000000000000000CF010E
:101F2600800000C18081000000000000003501CF64
:0C1F360001560180025C024B0106000015
:00000001FF
